:020000040800F2
:10000000D82400247903000887350008BD31000892
:1000100085350008D5050008495A00080000000091
:10002000000000000000000000000000453900084A
:1000300021060008000000000337000851390008BD
:100040009303000893030008930300089303000838
:100050009303000893030008930300089303000828
:100060009303000893030008930300089303000818
:100070009303000893030008930300089303000808
:1000800093030008930300089303000893030008F8
:1000900093030008930300089303000893030008E8
:1000A00093030008930300089303000893030008D8
:1000B00093030008930300089303000893030008C8
:1000C00093030008930300089303000893030008B8
:1000D00093030008930300089303000893030008A8
:1000E0009303000893030008000000009303000836
:1000F0009303000893030008930300089303000888
:100100009303000893030008930300089303000877
:100110009303000893030008930300089303000867
:100120009303000893030008930300089303000857
:100130009303000893030008930300089303000847
:1001400000000000000000000000000000000000AF
:100150009303000893030008930300089303000827
:100160009303000893030008930300089303000817
:1001700093030008893500089303000893030008DF
:1001800093030008930300089303000893030008F7
:1001900093030008930300089303000893030008E7
:1001A00093030008930300089303000893030008D7
:1001B00093030008930300089303000893030008C7
:1001C00093030008930300089303000893030008B7
:1001D00093030008930300089303000893030008A7
:1001E0009303000893030008930300089303000897
:1001F0009303000893030008930300089303000887
:100200009303000893030008930300089303000876
:10021000E93A0008930300089303000893030008D9
:1002200093030008930300089303000800000000F4
:1002300093030008930300080000000093030008E4
:100240009303000893030008930300089303000836
:100250009303000893030008930300089303000826
:100260009303000893030008930300089303000816
:1002700093030008930300089303000800000000A4
:100280009303000893030008930300080000000094
:10029000000000009303000800F002F800F05CF892
:1002A0000AA090E8000C82448344AAF10107DA45D1
:1002B00001D100F051F8AFF2090EBAE80F0013F0C7
:1002C000010F18BFFB1A43F0010318471058000034
:1002D000305800000A444FF0000C10F8013B13F0B6
:1002E000070408BF10F8014B1D1108BF10F8015B8F
:1002F000641E05D010F8016B641E01F8016BF9D182
:1003000013F0080F1EBF10F8014BAD1C0C1B09D1D8
:100310006D1E58BF01F801CBFAD505E014F8016B4A
:1003200001F8016B6D1EF9D59142D6D370470000DC
:100330000023002400250026103A28BF78C1FBD8EE
:10034000520728BF30C148BF0B6070471FB505F08A
:10035000A3FB1FBD10B510BD00F001F91146FFF75A
:10036000F5FF05F083FB00F01FF903B4FFF7F2FF80
:1003700003BC00F029F900000948804709480047FC
:10038000FEE7FEE7FEE7FEE7FEE7FEE7FEE7FEE745
:10039000FEE7FEE704480549054A064B70470000A2
:1003A0000D3A000899020008D81E0024D824002421
:1003B000D8200024D820002453EA020C00F06980E1
:1003C0002DE9F04B4FF00006002B1FBFB3FA83F569
:1003D00003FA05F424FA05F65E4012BF1643B2FA9A
:1003E00082F502FA05F4C5F120051EBF22FA05FCCC
:1003F00044EA0C04203556EA044C4FEA144418BF72
:10040000641C4FF000084FF00009904271EB030CA0
:1004100039D3002919BFB1FA81F701FA07F6B0FA0A
:1004200080F700FA07F6C7F120071EBF20FA07FC85
:1004300046EA0C062037B6FBF4FCA7EB0507103F95
:1004400007F01F0BCBF120060CFA0BFB2CFA06F67B
:1004500044BFB3460026202FA4BF5E464FF0000BDA
:100460005BEA060C08BF4FF0010B19EB0B09ABFB65
:10047000027C48EB0608C01B06FB02CC0BFB03CC3E
:1004800071EB0C01C1E70B46024641464846BDE808
:10049000F08B13B54FF000004FF00001AFF3008078
:1004A000BDE81C40704710B5203AC0F00B80B1E8A1
:1004B0001850203AA0E81850B1E81850A0E8185099
:1004C000BFF4F5AF5FEA027C24BFB1E81850A0E8A2
:1004D000185044BF18C918C0BDE810405FEA827CBC
:1004E00024BF51F8043B40F8043B08BF7047D207D3
:1004F00028BF31F8023B48BF11F8012B28BF20F874
:10050000023B48BF00F8012B70474FF0000200B5D6
:10051000134694469646203922BFA0E80C50A0E826
:100520000C50B1F12001BFF4F7AF090728BFA0E8D4
:100530000C5048BF0CC05DF804EB890028BF40F8A0
:10054000042B08BF704748BF20F8022B11F0804FE2
:1005500018BF00F8012B7047704770477047754609
:1005600000F02CF8AE4605006946534620F007001F
:10057000854618B020B5FFF70DFFBDE820404FF0CD
:1005800000064FF000074FF000084FF0000B21F07D
:100590000701AC46ACE8C009ACE8C009ACE8C0094A
:1005A000ACE8C0098D46704710B50446AFF3008033
:1005B0002046BDE81040FFF7D8BE00000048704755
:1005C000741E00247047000001491820ABBEFEE7EE
:1005D00026000200FEE70020704700207047000060
:1005E00005490022054810B503F01DFF04490348E2
:1005F00003F010FF002010BD4C1000247C030024E9
:100600004C0800240146044810B503F003FF0248DB
:1006100003F0E5FE002010BD7C030024002070479D
:10062000704772B6FEE7000070B5044600F030F97E
:100630000546601C02D004480078044400F028F904
:10064000401BA042FAD370BD680000242DE9F84F8A
:1006500003247D4D00234FF001094FF0B04B4FF0C4
:100660000F0AE9E009FA03F73A4076D00E7906F06E
:100670000306012E01D0022E18D1D0F808C04FEA8F
:10068000430ECE6804FA0EF82CEA080C06FA0EF6B1
:1006900046EA0C068660D0F804C00E792CEA070CF6
:1006A000C6F300169E4046EA0C0646600E79F643F5
:1006B000B6070BD0C6684FEA43088F6804FA08FCF7
:1006C00026EA0C0607FA08F73743C7600E7906F0EA
:1006D0000306022E12D1DE080F694FEA437C00EBBD
:1006E0008606B646366A4FEADC6C0AFA0CF807FA58
:1006F0000CF726EA08063743CEF820700F79066813
:100700004FEA430807F0030704FA08FC07FA08F762
:1007100026EA0C06374307604E6816F4403F1CD0AB
:100720004A4E376847F00207376036689F0706F081
:100730000206009623F0030606F1B046B6463F0FC8
:10074000D6F80864DFF808810AFA07FC404526EA73
:100750000C0603D14FF0000C41E06CE0DFF8F4C070
:10076000604502D14FF0010C39E0DFF8ECC0604584
:1007700002D14FF0020C32E0DFF8E0C0604502D158
:100780004FF0030C2BE0DFF8D8C0604502D14FF0EA
:10079000040C24E0DFF8CCC0604502D14FF0050C1A
:1007A0001DE0DFF8C4C0604502D14FF0060C16E032
:1007B000DFF8B8C0604502D14FF0070C0FE0DFF85A
:1007C000B0C0604502D14FF0080C08E0DFF8A4C0CB
:1007D000604502D14FF0090C01E04FF00A0C0CFA11
:1007E00007FC4CEA060CCEF808C44F68DBF8006042
:1007F000FF0226EA020600D516435F46CBF80060EA
:10080000D1F804C0DBF804605FEA8C2C26EA02060B
:1008100000D516437E606E684F6826EA0206BF0365
:1008200000D516436E602E684F6826EA0206FF0365
:1008300000D516432E605B1C0A6832FA03F67FF47B
:1008400011AFBDE8F88F000080000058F444025852
:10085000000002580004025800080258000C025818
:10086000001002580014025800180258001C0258C8
:1008700000200258002402580AB18161704709041F
:10088000FBE7000001480068000C70470010005CA6
:1008900001488068704700006800002402488168B1
:1008A000027811448160704768000024032010B56D
:1008B00000F086F801F0E4FC0F4A10491468136850
:1008C000C4F3032203F00F038A5CC95C02F01F0229
:1008D00001F01F01D0400A4A20FA01F111600949D4
:1008E00008600F2000F010F808B1012010BD00F0E2
:1008F0002BF8002010BD000018440258CA5A000806
:10090000780000247400002470B50D4D044628784A
:10091000A0B14FF47A71B1FBF0F00A490968B1FB5C
:10092000F0F002F01FF948B9102C07D2002221463E
:10093000501E00F025F800206C6070BD012070BDD5
:100940006800002474000024054808B5016841F0DF
:1009500002010160006800F00200009008BD000084
:10096000F4440258002809DB410900F01F02890005
:10097000012001F1E0219040C1F800017047000022
:100980000E4BF0B41B680D46C3F30223C3F10706F8
:10099000042E00D90426191D072901D2002300E0E6
:1009A000DB1E012404FA06F19C40491E2940641E06
:1009B000994014402143F0BC05F047B80CED00E02D
:1009C000064900F0070210B54FF6FF040868044B13
:1009D000204040EA02201843086010BD0CED00E002
:1009E0000000FA0501680123C0F8FC33002280F8FA
:1009F000F4238869044A40F000608861486D104320
:100A00004865002070470000030000107047006830
:100A1000416200207047F0B503685D6A39B19F6A92
:100A20004C1E00204FF4827605EB17450BE045EA9B
:100A30000240986210E0471C06EB800053F800C0AB
:100A4000F8B205EB1C45A042F5D34FF4807000EBE3
:100A5000810045EA02421A500020F0BDD0F804049B
:100A600003F06BBFC1EBC10200EB8202D0F80404BB
:100A7000926C03F0D8BEC1EBC10200EB8202D0F849
:100A80000404D2F8082203F022BFD0F8040403F0D3
:100A900056BF01F00F020B0670B5C2EBC20104464F
:100AA0004FF001004FF0000504EB810103D581F800
:100AB0003D003C3103E081F8FD5101F5FE710A7003
:100AC00094F8BC23012A08D084F8BC03206804F001
:100AD00007FB002084F8BC5370BD022070BD70B5C8
:100AE0004268044601F00F00904201D9012070BD18
:100AF00001F00F024FF000050B06C2EBC2014FF0F0
:100B0000010204EB810103D581F83D203C3103E073
:100B100081F8FD5101F5FE718D70087094F8BC03E9
:100B2000012808D084F8BC23206804F0D7FC0020FA
:100B300084F8BC5370BD022070BD01F00F01C1EB01
:100B4000C10100EB8100D0F8140270472DE9F0419B
:100B500001F00F0604460D064FF00100C6EBC6017A
:100B60004FF0000504EB810103D581F83D003C31D5
:100B700003E081F8FD5101F5FE714F788A60CB707A
:100B80000E7007B1CE80022B00D10D7194F8BC23FA
:100B9000012A09D084F8BC03206804F0EFF9284644
:100BA00084F8BC53BDE8F0810220FBE770B501F08A
:100BB0000F050C460026C5EBC50100EB8101C1F80D
:100BC0000822C1E9843681F8FD6181F8FC5101F504
:100BD000FE710369012B00D10A612207027C0068C3
:100BE00003D004F0D3FC002070BD04F0BDFBFAE795
:100BF00070B50D464168044605F00F00884201D9E2
:100C0000012070BD29064FF000064FF0010207D504
:100C1000C0EBC00104EB810181F83D203C3107E0CD
:100C2000C5EBC50104EB810181F8FD6101F5FE71A1
:100C30008A70087094F8BC03012807D084F8BC239C
:100C4000206804F077FC280702D007E0022070BD7E
:100C5000217C04F57172206804F014FC002084F8F3
:100C6000BC6370BD2DE9F04101F00F050C46002674
:100C7000C5EBC501012700EB81018A64C1E9143687
:100C800081F83D7001F83C5F0369012B00D10A61D6
:100C90002207027C006804D004F078FC0020BDE844
:100CA000F08104F061FBF9E72DE9FC5F056804467B
:100CB000284604F0B0FD00287ED1206804F0D7FD5E
:100CC000002879D0206804F0D2FD800704D5206880
:100CD000416901F002014161206804F0C8FDC106CC
:100CE00004F57170009035D52068816921F01001FC
:100CF00081612F6A07F00F01C7F34340C1EBC101C7
:100D0000022804EB810606F5FE7602D0062812D0F2
:100D10001BE047F6F070074217D0C7F30A12F168DC
:100D20001746284604F0A7FDB169F0683944B1615F
:100D30003844F06009E000990822284604F09BFD41
:100D4000B169C7F30A100844B0612068816941F0B5
:100D500010018161206804F08AFD00034FF0010951
:100D60004FF0080B5BD52068002604F05FFDDFF82C
:100D7000A4A3074651E0F8074DD02068F1B204F073
:100D80006EFD8046C00707D005EB4611C1F8089BF1
:100D90003146204602F0FEFB5FEA087022D505EBE3
:100DA0004611C1F808BB2068026C00EB46100192A6
:100DB0005245D0F8081B00E0A9E105D9090403D584
:100DC0004FF40041C0F8081B204600F0B3FA019927
:100DD000514507D92069012804D120680121009AD2
:100DE00004F050FB5FEAC86004D505EB4611102003
:100DF000C1F8080B5FEA886004D505EB4611202096
:100E0000C1F8080B5FEA884005D505EB46114FF4A1
:100E10000050C1F8080B7F08761C002FABD120686A
:100E200004F025FD40034FF0000A61D5206804F06E
:100E3000F6FC0026074659E0F80755D02068F1B2C5
:100E400004F0FBFC8046C00724D0D5F834C806F077
:100E50000F0205EB461109FA02F02CEA000CC5F866
:100E600034C8C1F80899206901280FD1C6EBC60023
:100E700004EB8000D0E911211144816436B9206D62
:100E800020B920680121009A04F0FCFA2046F1B252
:100E9000FFF7E8FD5FEA087003D505EB4611C1F8DE
:100EA00008B95FEAC86004D505EB46101021C0F808
:100EB00008195FEA486004D505EB46114020C1F8E7
:100EC00008095FEA887008D53146284604F076FCA8
:100ED00005EB46110220C1F808095FEA086003D556
:100EE0003146204602F0BCFB7F08761C002FA3D1C0
:100EF000206804F0BCFC002811DAD5F8040820F0C2
:100F00000100C5F8040894F8F40301283BD02046FA
:100F100000F0F4F92068416901F000414161206866
:100F200004F0A5FC00050BD5D5F80808C00702D0D1
:100F3000204600F027FA2068416901F40061416110
:100F4000206804F094FC00010AD52068416901F092
:100F50000061416194F8F403E0B1204600F012FA18
:100F6000206804F084FCC00470D5D5F8040820F093
:100F70000100C5F804082068102104F01FFC0021BE
:100F80004FF67F322DE00021204684F8F4A3FFF7CE
:100F90003DFDBFE784F8F4932068406D0121C0F364
:100FA0008300C4F8F8032046FFF730FDD8E700BF00
:100FB00005EB4110C0F80829D0F8003923F40013DC
:100FC000C0F80039C0F8082BD0F8003B23F4001318
:100FD000C0F8003BD0F8003B43F00063C0F8003B92
:100FE000491C60688842E3D8D5F81C0840F001101D
:100FF000C5F81C08206B60B1D5F8840840F00B00E0
:10100000C5F88408D5F8440840F00B00C5F844083A
:101010000CE0D5F8141842F22B000143C5F814185F
:10102000D5F8100840F00B00C5F81008D5F80008F6
:1010300020F4FE60C5F80008217C2068009A04F0C6
:1010400021FA2068416901F480514161206804F06F
:101050000EFC800415D5206803F0D0FF206804F052
:10106000CDFBE06001F0C6F8227B0146206804F069
:1010700063FC204600F02CF92068416901F400511E
:101080004161206804F0F3FB000707D5204600F01B
:1010900039F92068416901F008014161206804F0D4
:1010A000E6FBC00208D50021204600F035F8206894
:1010B000416901F480114161206804F0D8FB80028D
:1010C00008D50021204600F02BF82068416901F482
:1010D00000114161206804F0CAFB400007D520469A
:1010E000FFF7BCFC2068416901F080414161206844
:1010F00004F0BDFB40070AD520684568680702D5A3
:101100002046FFF7C2FC2068416829434160BDE8E2
:10111000FC9F00000A30544FD0F8040403F066BC72
:10112000D0F8040403F072BC2DE9F04104008AB049
:1011300005D094F8BD030025266820B108E0012001
:101140000AB0BDE8F081204684F8BC5300F066F890
:10115000032084F8BD03F06BC00500D4256120682E
:1011600004F0FCF804F11001684628228846FFF7D5
:101170009AF994E80F0003F04FFF0227D8BB2068CC
:10118000002104F098FB0020012610E0C0EBC00114
:10119000421C04EB810181F83D6081F83F504D64B1
:1011A0008D640D6581F83C00A1F84200D0B2616801
:1011B0008142EBD8002011E0C0EBC001421C04EBDF
:1011C000810181F8FD5181F8FF51C1F80452C1F845
:1011D0000852C1F8105281F8FC01D0B26168814216
:1011E000EAD8282241466846FFF75DF994E80F00E7
:1011F00003F0F8FF10B184F8BD73A0E7606A84F8CB
:10120000385084F8BD63012802D12046FFF7EAFB7D
:10121000206803F0D9FF002092E70000F0B5B5B0D8
:10122000044614212FA8FFF770F9BC216846FFF788
:101230006CF924492068884242D14FF4827304201B
:101240004FF480270097CDE9090300241094082665
:1012500002250D950202C1042191CDE90E24CDE9AC
:101260000B06684600F02EFA08B1FFF7DAF900F035
:10127000CBF81548016841F00201016000680C21BB
:10128000CDE9305400F002003490CDE932414FF402
:1012900040402F900D482FA9FFF7D8F90A48083889
:1012A000016841F00071016000680022114600F001
:1012B000007034904D20FFF763FB4D20FFF752FB89
:1012C00035B0F0BD00000440E0440258000402586C
:1012D00070B50446C068012570B1022801D0FFF73F
:1012E000A0F9D4F80404294603F0FCFBD4F8040464
:1012F000BDE8704003F0AFBB0025F2E7D0F804046E
:1013000003F0D6BBD0F8040403F0DCBB10B50446F0
:1013100090F8BC0301280BD0012084F8381084F821
:10132000BC03206804F0F6FA002084F8BC0310BD6A
:10133000022010BDD0F8042400F57171104603F0AE
:10134000DDBB10B590F8BC1304460068012906D037
:10135000A26A012184F8BC13012A02D008E002200D
:1013600010BDA169012903D0816B41F480318163F3
:10137000206804F0FFF9206803F018FF002084F8CB
:10138000BC0310BD10B50446D0F8040403F0F8FB0C
:101390002068D0F8001E41F00101C0F8001E206A4C
:1013A000002804D00248016841F00601016010BD28
:1013B00010ED00E0134970B50A68D243520705D515
:1013C000096801F00701814213D118E00A6822F090
:1013D000070202430A60FFF75BFA0A4D4FF47A7680
:1013E0000446083D07E000BFFFF752FA001BB04279
:1013F00001D9012070BD2868C0438004F4D40020C6
:1014000070BD00000C4802580248016841F080712C
:10141000016070470C48025810B500F0EBFE05491A
:101420000968054AC1F30211515C01F01F01C8406F
:1014300010BD000020440258CA5A0008494930B57E
:10144000484C0B1D0A68143409681D68246802F0B2
:101450000303C5F30012C1F30531C4F3CC04002922
:1014600014FB02F200EE102AF8EE400A75D03F4A53
:101470009FED3D1AB7EE000A6BB1DFED3D1A012B6F
:1014800001D0022B64D002EE101A1168F8EE422A45
:1014900081EEA22A21E0334C283C23689B0612D51A
:1014A000344B246801EE901A1168C4F3C104F8EEBD
:1014B000612AE34001EE903AC1F30801F8EE611AA7
:1014C00081EEA22A0BE001EE901ADFED2B2A00BF7D
:1014D000F8EE611A116882EEA12AC1F3080101EE4B
:1014E000901A1168F8EE611A40EE811A71EE800AC6
:1014F00062EE200AC1F3462101EE101AB8EE411A3D
:1015000031EE001AC0EE811ABCEEE11A80ED001A2D
:101510001168C1F3064101EE101AB8EE411A31EE1E
:10152000001AC0EE811ABCEEE11A80ED011A1168B2
:10153000C1F3066101EE101AB8EE411A31EE000A4D
:1015400080EE801ABCEEC10A80ED020A30BD04E0D4
:1015500001EE901ADFED092ABAE70021016041602F
:101560008160F3E7284402580000003938440258EB
:101570000024744A0090D0030024744C0024F44AE0
:10158000494930B5484C0B1D0A681C3409681D6870
:10159000246802F00303C5F30022C1F30551C4F32C
:1015A000CC04002914FB02F200EE102AF8EE400AE7
:1015B00075D03F4A9FED3D1AB7EE000A6BB1DFEDE3
:1015C0003D1A012B01D0022B64D002EE101A1168D3
:1015D000F8EE422A81EEA22A21E0334C283C23680F
:1015E0009B0612D5344B246801EE901A1168C4F39F
:1015F000C104F8EE612AE34001EE903AC1F308011C
:10160000F8EE611A81EEA22A0BE001EE901ADFEDEE
:101610002B2A00BFF8EE611A116882EEA12AC1F3ED
:10162000080101EE901A1168F8EE611A40EE811A75
:1016300071EE800A62EE200AC1F3462101EE101A13
:10164000B8EE411A31EE001AC0EE811ABCEEE11A72
:1016500080ED001A1168C1F3064101EE101AB8EED0
:10166000411A31EE001AC0EE811ABCEEE11A80ED8B
:10167000011A1168C1F3066101EE101AB8EE411AA1
:1016800031EE000A80EE801ABCEEC10A80ED020A3B
:1016900030BD04E001EE901ADFED092ABAE700211F
:1016A000016041608160F3E728440258000000397E
:1016B000404402580024744A0090D0030024744C23
:1016C0000024F44A2DE9FC5F044650F8241B002551
:1016D00000902E460801FE4FDFF8F8831DD5606E9E
:1016E00050B1B0F5801F0CD0B0F5001F0ED0B0F592
:1016F000401F1DD001250FE0386840F400303860ED
:1017000016E00221201D01F0FDFF03E000980221F8
:1017100002F088F805000BD02E462088C00523D59E
:10172000606D05281ED2DFE800F00C11161B1B00AF
:10173000626ED8F8001021F440111143C8F800106F
:10174000EBE7386840F40030386009E00021201DE4
:1017500001F0D8FF03E00098002102F063F805468D
:101760006DB100E001252E462088800528D5A06DAA
:1017700080281ED00CDC90B140280ED114E0626DA0
:10178000D8F8001021F007011143C8F80010EBE76A
:10179000C02813D0B0F5807F10D001250FE0386845
:1017A00040F40030386009E00021201D01F0AAFF5C
:1017B00003E00098002102F035F8054695B12E4669
:1017C0002088DFF81093400509F108092CD5D4F8DA
:1017D000A400B0F5800F20D00DDCA0B1B0F5001F43
:1017E0000FD115E0A26DD8F8001021F4E07111437B
:1017F000C8F80010E4E7B0F5C00F13D0B0F5000F43
:1018000010D001250FE0386840F40030386009E05E
:101810000021201D01F076FF03E00098002102F076
:1018200001F8054675B12E46208800052DD5D4F85F
:10183000A800B0F1007F21D00EDCA8B1B0F1807F0C
:1018400010D116E0D4F8A420D9F8001021F46001DA
:101850001143C9F80010E7E7B0F1407F13D0B0F1B1
:10186000806F10D001250FE0386840F400303860F8
:1018700009E00021201D01F045FF03E00098002150
:1018800001F0D0FF05466DB12E46206880011FD5BE
:10189000A06CD8B110280FD0202812D0302815D035
:1018A000012514E0D4F8A820D9F8001021F0E06157
:1018B0001143C9F80010E8E7386840F40030386098
:1018C00004E00221201D01F01DFF05466DB12E46EA
:1018D0002088C0042BD5E06DB0F5005F20D00DDC72
:1018E000A0B1B0F5805F0FD115E07A48A26C001F5F
:1018F000016821F0300111430160E9E7B0F5405F74
:1019000013D0B0F5804F10D001250FE0386840F4B7
:101910000030386009E00021201D01F0F3FE03E0F3
:101920000098002101F07EFF054685B12E462088F3
:10193000800429D5206EB0F5403F23D010DC08B3D9
:10194000B0F5803F14D0B0F5003F0FD115E0E26D47
:10195000D8F8001021F4E0411143C8F80010E6E780
:10196000B0F5802F0ED0B0F5A02F0BD001250AE0E6
:101970000121201D01F0C6FE03E00098012101F0C5
:1019800051FF05468DB12E46208840042AD5D4F853
:10199000AC00B0F1405F23D010DC08B3B0F1805F41
:1019A00014D0B0F1005F0FD115E0226ED8F800100E
:1019B00021F4E0211143C8F80010E5E7B0F1804FB1
:1019C0000ED0B0F1A04F0BD001250AE00121201D5F
:1019D00001F098FE03E00098012101F023FF054685
:1019E0006DB12E46208800041FD5E06ED8B1B0F14D
:1019F000805F0ED0B0F1005F10D0012514E0D4F864
:101A0000AC20D9F8001021F0E0411143C9F80010D2
:101A1000E8E7386840F40030386004E00121201D18
:101A200001F070FE05466DB12E462068C0011ED53E
:101A3000606CD0B101280ED0022811D0032814D038
:101A4000012513E0E26ED8F8001021F04051114357
:101A5000C8F80010E9E7386840F40030386004E066
:101A60000221201D01F04EFE054685B12E4620685C
:101A7000DFF85CB04002ABF11C0B57D5164801688B
:101A800041F480710160FEF703FF82460EE01148C9
:101A9000626C001F016821F0030111430160E6E759
:101AA000FEF7F6FEA0EB0A0064283DD80A4800685D
:101AB000C005F5D57DBBDFF81CA0B4F8B0200AF155
:101AC000200ADAF8001002F4407001F4407105E0D9
:101AD0002C4402585044025800480258814211D008
:101AE000DAF80010DAF8002021F4407142F4803274
:101AF000CAF80020DAF8002022F48032CAF8002068
:101B0000CAF80010D4F8B000B0F5807F21D1FEF7FC
:101B1000BFFE019019E008E0FEF7BAFE0199411AF4
:101B200041F28830814210D903252E462078DFF813
:101B300044A4C0073DD0A06F182838D026DC80B35D
:101B4000082829D0102825D12CE0DAF800008007D9
:101B5000E2D5D4F8B010C1F30120032858460DD0C7
:101B6000016821F47C510160B4F8B020DAF800106B
:101B7000C2F30B021143CAF80010D7E7FE4A03680C
:101B800002EA111223F47C511143ECE720280ED015
:101B900028280CD001250BE00121201D01F0B2FD09
:101BA00004E004E00098012101F03CFE05465DB12F
:101BB0002E46207880071ED5606F062819D2DFE8F0
:101BC00000F0160C11161616A26FDAF8001021F0AC
:101BD00038011143CAF80010EBE70121201D01F084
:101BE00091FD03E00098012101F01CFE054675B14E
:101BF00000E001252E46207840071FD5D4F890003C
:101C0000062819D2DFE800F0160C11161616626FBE
:101C1000DAF8001021F007011143CAF80010EAE7D2
:101C20000121201D01F06EFD03E00098012101F06B
:101C3000F9FD05469DB100E001252E46207880067D
:101C40002BD5D4F88C00B0F1405F24D011DC10B358
:101C5000B0F1805F15D0B0F1005F10D116E0D4F87C
:101C60009020D9F8001021F007011143C9F80010A5
:101C7000E4E7B0F1804F0ED0B0F1A04F0BD00125BA
:101C80000AE00021201D01F03DFD03E00098022143
:101C900001F0C8FD05468DB12E46207840062BD5B3
:101CA000D4F89800B0F5406F24D011DC10B3B0F533
:101CB000806F15D0B0F5006F10D116E0D4F88C20ED
:101CC000DAF8001021F0E0411143CAF80010E4E70F
:101CD000B0F5805F0ED0B0F5A05F0BD001250AE013
:101CE0000021201D01F00EFD03E00098022101F00B
:101CF00099FD05468DB12E46207800062BD5D4F8E7
:101D00009C00B0F5C04F24D011DC10B3B0F5005FDB
:101D100015D0B0F5804F10D116E0D4F89820D9F83E
:101D2000001021F4E0511143C9F80010E4E7B0F5C8
:101D3000004F0ED0B0F5204F0BD001250AE0002156
:101D4000201D01F0DFFC03E00098022101F06AFD94
:101D500005464DB12E46207800071ED5D4F88000E8
:101D6000B0F5805F0AD00FE0D4F89C20D9F80010BD
:101D700021F460411143C9F80010ECE700980221FA
:101D800001F050FD00B10126D4F88020DAF80010EF
:101D900021F440511143CAF800102078C00613D531
:101DA000D4F89400B0F5807F05D10098022101F0AD
:101DB00039FD00B10126D4F89420D9F8001021F49F
:101DC00040711143C9F800102068000316D5D4F8FB
:101DD000A00038B1B0F5803F09D0B0F5003F0BD07E
:101DE00001250AE00021201D01F08CFC03E0009891
:101DF000022101F017FD054685B12E4620684003FB
:101E000022D5D4F88400B0F5801F11D0B0F5001FA2
:101E100013D0B0F5401F15D0012514E0D4F8A02050
:101E2000D9F8001021F440311143C9F80010E5E75A
:101E3000386840F40030386004E00098012101F077
:101E4000F1FC054655B12E462068C0031CD5E06C58
:101E500070B1B0F5803F10D0012514E0D4F8842093
:101E6000DAF8001021F440111143CAF80010EBE732
:101E7000386840F40030386004E00221201D01F091
:101E800041FC0546CDB12E462068800005D500985E
:101E9000022101F0C7FC00B10126206880031BD598
:101EA000E06FB8B1B0F5807F10D0B0F5007F11D0F1
:101EB000B0F5407F0ED001250DE02E48E26C0838C9
:101EC000016821F4803111430160DDE7386840F496
:101ED00000303860F5B32E462068C00207D5226F67
:101EE000D8F8001021F000411143C8F80010206814
:101EF000C00008D5D4F8B420DBF8001021F48041EC
:101F00001143CBF800102068800207D5A26ED8F8E4
:101F1000001021F080711143C8F8001020684000C3
:101F20000CD5DBF8001021F40041CBF80010DBF8F1
:101F30000010D4F8B8201143CBF800102068002816
:101F400007DA0C48226D0838016821F0405111432E
:101F5000016000E014E02068000208D5D4F8882071
:101F6000DAF8001021F440011143CAF8001086B1DC
:101F7000012003E054440258CFFFFF00BDE8FC9F5E
:101F8000E26FDAF8001021F440711143CAF8001032
:101F9000A2E70020EDE700002DE9F05F04000F4606
:101FA0007ED0DFF83882D8F8000000F00F00B84289
:101FB0000CD2D8F8001021F00F013943C8F80010F6
:101FC000D8F8000000F00F00B84269D12078844DA5
:101FD00040070AD52069296801F07001884204D9B8
:101FE000296821F070010143296020787C4E361D5C
:101FF00000070AD56069316801F07001884204D990
:10200000316821F07001014331602078C0060AD5A3
:10201000A069316801F4E061884204D9316821F493
:10202000E061014331602078DFF8B4B180060BF144
:10203000080B0CD5E1695846DBF8002002F070026D
:10204000914204D9026822F070020A4302602078AB
:1020500080070AD5E068296801F00F01884204D999
:10206000296821F00F01014329602078C0073ED084
:102070005B49A2682868183920F470601043286012
:102080006068022818D0032819D00968012819D0DF
:10209000490700294ADADFF848A1AAF1080A00E056
:1020A00044E0DAF8002022F007020243CAF80020D8
:1020B000FEF7EEFB814612E009688903E9E709684B
:1020C0008901E6E7C905E4E7FEF7E2FBA0EB0901B9
:1020D00041F28830814202D90320BDE8F09F616857
:1020E000DAF8000000F03800B0EBC10FECD1207836
:1020F00080070AD5E068296801F00F01884204D200
:10210000296821F00F0101432960D8F800104046EA
:1021100001F00F01B9420BD9016821F00F013943D9
:102120000160006800F00F00B84201D00120D4E740
:10213000207840070AD52069296801F0700188429B
:1021400004D2296821F0700101432960207800073A
:102150000AD56069316801F07001884204D23168A3
:1021600021F07001014331602078C0060AD5A069D2
:10217000316801F4E061884204D2316821F4E06101
:1021800001433160207880060CD5E1695846DBF8C0
:10219000002002F07002914204D2026822F0700224
:1021A0000A43026000F06CF80E492A682B68C2F3FB
:1021B000032203F00F038A5CC95C02F01F0201F0E6
:1021C0001F01D040084A20FA01F111600749086058
:1021D00007480068BDE8F05FFEF796BB002000529C
:1021E00018440258CA5A00087800002474000024D9
:1021F0006C00002430B500F043F80B4A0B490C4B3F
:1022000015681468C5F3032204F00F048A5C095DA5
:1022100002F01F0201F01F01D040064A20FA01F12E
:1022200019601060084630BD18440258CA5A0008A8
:10223000780000247400002400B5FFF7DBFF054997
:102240000968054AC1F30211515C01F01F01C84041
:1022500000BD00001C440258CA5A000800B5FFF730
:10226000C9FF05490968054AC1F30221515C01F023
:102270001F01C84000BD00001C440258CA5A000893
:10228000454970B545480968434B103B11F0380289
:1022900008D00111082A03D0102A0BD0182A0BD01D
:1022A000084670BD19688906FBD51968C1F3C101DC
:1022B000C84070BD3A4870BD3749374D18310C1DC4
:1022C00024350A68096826682D6802F0030406F0C0
:1022D0000102C1F30511C5F3CC0515FB02F200EEB6
:1022E000102AB8EE400AE9B32F4ADFED2E0AB7EE06
:1022F000001A6CB1DFED2D1A012C01D0022C43D055
:1023000002EE101A1068F8EE422A81EEA22A1EE0B0
:102310001C68A40611D51B6801EE901A1168C3F35E
:10232000C103F8EE612AD84001EE900AC1F308001B
:10233000F8EE611A81EEA22A0BE001EE901ADFEDB1
:102340001C2A00BFF8EE611A106882EEA12AC0F3C1
:10235000080001EE900AF8EE611A40EE201A31EE04
:10236000810A00E015E022EE000A1068C0F3462062
:10237000401C00EE900AF8EE600A80EE201ABCEED7
:10238000C10A10EE100A70BD01EE901ADFED092AA5
:10239000D8E7002070BD0000104402580090D00320
:1023A00000127A0000000039304402580024744AB8
:1023B0000024744C0024F44A2DE9F05F04007DD021
:1023C000FF4F2078FE4D1837DFF8F493103DC0071B
:1023D00048D0D9F80000396800F03800102815D02E
:1023E000182803D101F0030002280FD06068B0F56F
:1023F000803F12D010B1B0F5A02F18D0286820F47B
:1024000080302860286820F4802009E02868800354
:1024100028D560680028D2D024E0286840F48030B5
:102420002860606888B1FEF733FA064609E028683C
:1024300040F480202860F0E7FEF72AFA801B642829
:102440006FD828688003F7D50CE0FEF721FA06461E
:1024500005E000BFFEF71CFA801B6428F0D828684E
:102460008003F7D4207841F20308D54E0C3E800754
:1024700069D5D9F80000396810F038000ED0182856
:1024800001D188070AD0E06890B3296821F01901CA
:1024900001432960FEF7FCF9824631E028684007D5
:1024A00002D5E06800288AD0E168286820F0190089
:1024B00008432860FEF7ECF9824607E0DFE000BF42
:1024C000FEF7E6F9A0EB0A000228B9D82868400711
:1024D000F6D500BFFEF7D6F940451BD82069402845
:1024E00012D0316821F47C3141EA003030602AE0BA
:1024F00018E000BFFEF7CCF9A0EB0A0002289FD835
:1025000028684007F6D5E5E7306820F47C3040F4D1
:102510000030EBE7207C316821F0FE4141EA0060A9
:10252000E4E70DE1286820F001002860FEF7B0F92B
:10253000824605E0FEF7ACF9A0EB0A0002288DD830
:1025400028684007F6D42078C0065DD5D9F8000089
:10255000DFF86CB2396800F03800ABF1040B0828E2
:1025600010D0182803D101F0030001280AD0E06937
:102570000028286838D040F080002860FEF788F9ED
:10258000824623E02868C00523D5E069802876D1FB
:102590001FE0206A202821D0316821F0F84141EA6B
:1025A0008060306030E000BF94F82010DBF800203D
:1025B00022F07C5242EA0161CBF8001024E000BF17
:1025C000FEF766F9A0EB0A00022898D82868C00533
:1025D000F6D5FEF757F94045E6D8DAE7306820F03F
:1025E000F84040F08040DCE720F080002860FEF7F3
:1025F0004FF9064605E000BFFEF74AF9801B0228A6
:102600009DD82868C005F7D42078000729D56C48E4
:102610006169643000298046016811D041F00101F0
:102620000160FEF735F9064605E000BFFEF730F918
:10263000801B0228C9D8D8F800008007F6D510E022
:1026400021F001010160FEF723F9064605E000BF15
:10265000FEF71EF9801B022872D8D8F80000800708
:10266000F6D42078800623D5A0690028286810D0E9
:1026700040F480502860FEF70BF9064605E02CE197
:10268000FEF706F9801B02285AD828688004F7D57F
:102690000EE020F480502860FEF7FAF8064604E0C9
:1026A000FEF7F6F8801B02284AD828688004F7D481
:1026B000207840074FD5DFF80C81D8F8001041F49E
:1026C0008071C8F80010FEF7E3F8064605E000BF89
:1026D000FEF7DEF8801B642832D8D8F80000C00569
:1026E000F6D5374EA068603601280AD008B1052813
:1026F00013D0306820F001003060306820F0040012
:1027000002E0306840F001003060A06841F2883A91
:1027100090B1FEF7BDF880460AE0306840F0040052
:102720003060EEE7FEF7B4F8A0EB0801514507D89A
:1027300030688007F6D50EE0FEF7AAF8804607E07D
:1027400084E000BFFEF7A4F8A0EB080151457DD856
:1027500030688007F6D4606AB0B3DFF86480D9F8D7
:10276000001008F12008C1F3C20103296FD002282C
:10277000286820F08070286003D0FEF789F80446AE
:1027800080E0FEF785F8064605E000BFFEF780F81A
:10279000801B022873D828688001F7D4E26A40F2CF
:1027A000F331386854F8283F884340EA0210184350
:1027B0003860217B4FF4FE0C22894FF0FE4704E085
:1027C000104402580048025889E0208A4902521EEB
:1027D000267DA1F5007189B2401EC2F308021143A3
:1027E000761E0CEA004001433E4807EA06621143A8
:1027F0003C4AC8F800100832016821F0010101606C
:1028000011684FF6F876236AB14341EAC3011160BB
:102810000168A26921F00C01114301600168E269BD
:1028200021F0020111430160016841F4803101602F
:10283000016841F400310160016841F480210160C8
:10284000016841F001010160286801E017E01DE026
:1028500040F080702860FEF71BF8044605E000BFDA
:10286000FEF716F8001B022809D828688001F7D562
:1028700035E000BFFEF70CF8001B022802D9032048
:10288000BDE8F09F28688001F4D428E03968012869
:10289000D8F8000021D0A26A01F0030393421CD1B2
:1028A000E26AC1F305118A4217D1216BC0F3080215
:1028B000491E8A4211D1616BC0F34622491E9142E2
:1028C0000BD1A16BC0F30642491E914205D1E16BC9
:1028D000C0F30660491E814201D00120D0E70020EC
:1028E000CEE700002C4402582DE9F047040029D01F
:1028F000504A4FF0000920684F4B504D9042C4F8A9
:10290000289006D0984204D0A84202D0E1680F294E
:1029100018D8E1684FF0010AE76B0831C9080AEBE3
:1029200057167143904205D0984203D0A84201D077
:10293000082907D8904203D0984201D0A84204D178
:10294000102902D90120BDE8F08794F8810020B950
:10295000204684F8809000F073F8022084F881000B
:102960002068016821F0010101602168A0698A687E
:10297000B0F1806F02F4F81010D16268B2F5800FE8
:1029800001D01AB10AE0A26B22B107E0A26BB2F14A
:10299000805F03D10A6842F480520A60A66AE16946
:1029A000E26B25683143E368024311431943A96090
:1029B000D4E90D02D4E90571636A25691843D4F896
:1029C00020C00A43266810432843A56D3843D4E944
:1029D0000182D4E9123140EA0C0040EA08000843C1
:1029E000104318432843F060606868B92068816824
:1029F00021F4C05141F4006181602068816821F4B4
:102A0000C06141F4806181602068016D21F00101A5
:102A100001656068400206D52068626DC16821F0DA
:102A200000411143C160C4F8849084F881A0002063
:102A300089E700000030014000380040003C0040C1
:102A40002DE9F043B5B0044614212FA8FDF75DFD34
:102A5000BC216846FDF759FD3C4D02263C494FF02C
:102A600005092068103DDFF8E4800024884241D148
:102A700080140121782208238DE84F00C027089494
:102A8000CDE90674059617906846FEF71BFE08B15F
:102A9000FDF7C7FDD8F8001041F48051C8F80010C8
:102AA000D8F8000000F480503490286840F0080006
:102AB0002860286800F008003490286840F0400042
:102AC000286028682FA9CDE9306400F040003490D8
:102AD00080202F901F484D46CDE93249FDF7B6FDC5
:102AE0004FF420602F901C482FA9CDE93064CDE928
:102AF000324526E01949884225D1401418940090A7
:102B00006846FEF7DFFD08B1FDF78BFDD8F8001031
:102B100041F40051C8F80010D8F8000000F400504B
:102B20003490286840F01000286028685421CDE9CE
:102B3000306400F010002F9132942FA9CDE933902A
:102B40000748FDF783FD35B0BDE8F083F044025837
:102B500000300140000C02580018025800340140B7
:102B600000100258401EB0F1807F10B501D3012043
:102B700010BD4FF0E02460610F21601702F065FF87
:102B80000020A0610721216110BD70477047704788
:102B9000F0B590F83C20012A3BD01F4E012480F86C
:102BA0003C40022280F83D2002681C4D5368B2422E
:102BB000D2F808C001D0AA4203D14F6823F47003B1
:102BC0003B430F6823F070031F4357600268B24213
:102BD00013D0B2F1804F10D0114B9A420DD0114B4F
:102BE0009A420AD0104B9A4207D0AA4205D00F4B06
:102BF0009A4202D00E4B9A4204D189682CF080038D
:102C000019439160002180F83D4080F83C1008464F
:102C1000F0BD0220F0BD00000000014000040140B2
:102C20000004004000080040000C00400018004074
:102C30000040014010B5040003D094F83D0010B1ED
:102C400007E0012010BD002084F83C00204600F081
:102C500023F8022084F83D002068211D00F04AFF7F
:102C6000012084F8480084F83E0084F83F0084F88E
:102C7000400084F8410084F8420084F8430084F85E
:102C8000440084F8450084F8460084F8470084F83E
:102C90003D00002010BD000008B500680B498842C7
:102CA00012D10B48016841F48031016000680022B4
:102CB0000A2100F4803000907420FDF761FEBDE829
:102CC00008407420FDF74EBE08BD000000400140E2
:102CD000F044025890F83D10012901D001207047BE
:102CE000174A022180F83D100168CB6843F00103C8
:102CF000CB600068904214D0B0F1804F11D01149E0
:102D000088420ED0104988420BD01049884208D022
:102D10000F49884205D00F49884202D00E498842A7
:102D200007D181680D4A1140062906D0B1F5803FD0
:102D300003D0016841F001010160002070470000EC
:102D4000000001400004004000080040000C00406A
:102D5000000401400018004000400140070001004D
:102D600070B5044690F83C000025012814D03A4B79
:102D7000012684F83C60022084F83D0022689068B7
:102D8000184020F47F409060086870282FD010DC35
:102D900010F00F0F03D022E04FF0020070BD4FEA99
:102DA0002012072A1BD2DFE802F0535353534B394A
:102DB0004100B0F1101F4BD009DCB0F5805F0FD09F
:102DC000B0F5005F1ED0B0F5801F08D140E0A0F53F
:102DD000801120393CD010293AD0202938D0012543
:102DE00084F83D60002084F83C00284670BD4A68A5
:102DF0002068D1E9021300F0DFFE2068816841F00D
:102E0000770109E04A682068D1E9021300F0D4FE96
:102E10002068816841F480418160E1E7CA684968BF
:102E2000206800F0DDFE2068502106E0CA6849688D
:102E3000206800F0E6FE2068602100F0C7FECFE7C2
:102E4000CA684968206800F0CBFE20684021F4E79A
:102E5000226801461046F0E788FFCEFF704770B544
:102E60000446006800250169C943890715D4C16873
:102E7000C943890711D4EA1E026101212177206824
:102E800080698007204602D0FFF7E8FF04E000F0E9
:102E9000A7F8204600F0A5F8257720680169C94306
:102EA000490717D4C168C943490713D402216FF0F9
:102EB0000402026121772068806910F4407F204677
:102EC00002D0FFF7CBFF04E000F08AF8204600F0C4
:102ED00088F8257720680169C943090716D4C168B5
:102EE000C943090712D404216FF008020261217757
:102EF0002068C0698007204602D0FFF7AFFF04E0DA
:102F000000F06EF8204600F06CF825772068016923
:102F1000C943C90617D4C168C943C90613D40821D7
:102F20006FF01002026121772068C06910F4407FC1
:102F3000204602D0FFF792FF04E000F051F820464F
:102F400000F04FF8257720680169C943C90708D107
:102F5000C168C943C90704D1891E0161204600F038
:102F600041F820680169C943090609D4C168C94309
:102F7000090605D46FF0800101612046FFF706FEC7
:102F800020680169C943C90509D4C168C943090654
:102F900005D46FF4807101612046FFF7F6FD2068CB
:102FA0000169C943490609D4C168C943490605D422
:102FB0006FF040010161204600F01EF820680169B1
:102FC000C94389060BD4C168C943890607D46FF089
:102FD000200101612046BDE87040FFF7D8BD70BDFB
:102FE0007047704700680349884201D100F004B976
:102FF0007047000000400140704730B590F88010E5
:10300000012918D0012280F880202421C0F88410E2
:103010000022202450F8641B0B680D6823F0005335
:1030200025F001050D60026050F8641C0B6004621D
:103030000277104630BD022030BD70B5044690F8CE
:10304000800001281DD0012284F880202420C4F8AB
:10305000840020680568026822F00102026020688E
:10306000826822F060620A438260204600F0DCFD44
:103070002268202100201560C4F8841084F88000A4
:1030800070BD022070BD70B5044690F88000012824
:103090001DD0012284F880202420C4F884002068F8
:1030A0000568026822F0010202602068826822F04E
:1030B00060420A438260204600F0B6FD226820216B
:1030C00000201560C4F8841084F8800070BD0220D0
:1030D00070BD10B5040003D0D4F8840010B107E02F
:1030E000012010BD002084F88000204600F026F862
:1030F0002420C4F884002068016821F001010160E7
:10310000204600F047FE0128EBD0A06A10B120460F
:1031100000F0ACFD2068416821F4904141602068D6
:10312000816821F02A0181602068016841F0010175
:1031300001602046BDE8104000F0FCBD30B5B5B0E0
:10314000044614212FA8FDF7E0F9BC216846FDF7DD
:10315000DCF917492068884228D1022568460024F6
:1031600000951D94FEF7AEFA08B1FDF75AFA114822
:10317000016841F480210160006800F480203490EF
:103180000C480838016841F0080101600068072117
:10319000CDE9305400F008003490CDE932414FF4CD
:1031A00040702F9004482FA9FDF750FA35B030BD7C
:1031B00000480040E8440258000C0258FEE70000B6
:1031C000F0B500230A251C463026372711E000BF42
:1031D000B5EB107F02D906EB107C01E007EB107C09
:1031E00001F813C001EB430C00015B1C8CF801409B
:1031F000DBB29342ECD3F0BD0A490888401C82B28E
:103200000948012A0A8007D0322A07D0B2F57A7F0E
:1032100001D1002008807047002200E0012208212F
:10322000FDF72ABB00000024000002582DE9F04FF2
:1032300087B014216846FDF768F95248016841F0EB
:1032400010010160016801F010010591016841F071
:1032500040010160016801F040010591016841F001
:1032600008010160016801F008010591016841F061
:1032700001010160016801F001010591016841F05F
:1032800002010160016801F002010591016841F04D
:1032900004010160016801F004010591016841F039
:1032A0008001016000680022374E4FF4C04100F0F9
:1032B000800005903046FDF7DFFA344F0022C02130
:1032C0003846FDF7D9FA012230469102FDF7D4FACB
:1032D000DFF8BCA040F60878002241465046FDF7D2
:1032E000CBFADFF8B0900022C0214846FDF7C4FABF
:1032F000DFF8A4B0002280215846FDF7BDFA002473
:10330000694601254FF4C8400090CDE9015430468C
:103310000394FDF79BF9C0260096CDE90154694658
:1033200038460394FDF792F94FF488176946402018
:103330000294CDE900071948FDF788F9CDF800801F
:103340006946CDE9015450460394FDF77FF9009694
:103350006946CDE9015448460394FDF777F9009595
:103360006946CDE901745046FDF770F98020009060
:10337000CDE90154694658460394FDF767F907B053
:10338000BDE8F08FE04402580018025800040258CB
:10339000000002580008025800100258000C0258A1
:1033A0002DE9F04117484FF48007DFF854C00021A1
:1033B000FA000726C0F800C01301C0E90362C0E9A3
:1033C0000171C0E907314162551054008162520118
:1033D000C162C0E90D21C163016441648164C164BB
:1033E000016541658165C0E90554FFF77DFA002854
:1033F00003D0BDE8F041FDF714B9BDE8F08100004D
:1034000000300140900100241348002170B5114D97
:103410004FF4802405600723C360E201C0E9011472
:10342000C0E904218161016241628162C16241633C
:103430008163C163016441648164C1640165416564
:103440008165FFF751FA002803D0BDE87040FDF711
:10345000E8B870BD003401401802002430B587B0D0
:10346000184800241649EF2240F2E73300948025E3
:1034700001940294039404940594069480E8160041
:10348000C0E90334C0E90545FFF7D4FB08B1FDF7F7
:10349000C8F84FF4805000900A486946FFF760FC76
:1034A00008B1FDF7BEF8074804A904940694FFF795
:1034B0006FFB002801D0FDF7B4F807B030BD000065
:1034C00000400140A00200241848002110B5164C0D
:1034D0000C224FF461230460C0E90131C160C0E9EE
:1034E00004128161C161016241628162FFF7F1FDF5
:1034F00008B1FDF796F80D480021FFF7C4FD08B1AB
:10350000FDF78FF809480021FFF797FD08B1FDF797
:1035100088F80648FFF771FD002803D0BDE8104089
:10352000FDF77FB810BD000000480040EC02002409
:1035300010490122104810B501F050F908B1FDF70B
:1035400070F80E490C4801F042FB08B1FDF769F82C
:103550000B49094800F057FF08B1FDF762F806482B
:1035600001F0B0FB08B1FDF75CF8BDE81040FDF7D5
:103570004BBF0000040000247C03002458010024F9
:1035800054000024FEE7FEE70148FDF78DBB000074
:103590006C1A00242DE9F041044600690D462027ED
:1035A000236801284FF4004604F5717203EB4511BE
:1035B000D3F840C0D1F8080B09D0DFF89CE0F445FF
:1035C0003AD1020433D500BFC1F8086B40E0234B69
:1035D0005FEA007E04D59C453AD90004F4D437E074
:1035E0005FEA806E02D5C1F8087B31E010F0280F49
:1035F0002ED19C4501D90004E6D4D1F8103BC5EB8F
:10360000C50004EB8000C3F31203D0F80412A1EB51
:103610000303C0F81432D0F808321944C0F8081275
:1036200095B9D4F8100278B9206801210AE0800623
:103630000AD5C1F8087B07E035B9D4F8100218B9EB
:103640000021184601F01EFF2046E9B2FDF713FAEB
:103650000020BDE8F08100000A31544F0A30544F79
:103660002DE9F84F0E4605688146C1EBC60100EB17
:103670008104D4E914203C34904202D90120BDE8F1
:10368000F88FA168101A814200D20846C01C05EBD1
:10369000461887081BE000BFA268A0EB010A52454C
:1036A00000D2924699F810100AF1030000911FFA17
:1036B0008AF3E16887082846F2B202F0B1F9E168BE
:1036C00001EB0A00E060A16901EB0A00A061D8F8F3
:1036D000180980B2B84205D3D4E90501814201D26C
:1036E0000028D9D1D4E90501884208D8D5F8341882
:1036F000012006F00F0290408143C5F834180020E5
:10370000BDE770472DE9F047454D044689464FF027
:10371000000A2868C04380070AD0414E283E30681E
:1037200020F080603060FDF7B3F80746B04608E04F
:103730000120BDE8F08700BFFDF7AAF8C01B0228F2
:1037400067D8D8F800000001F6D4206829684FF443
:10375000FE0721F47C313E0241EA00302860207AE5
:10376000A389B4F804C040022D4D2D495B1E227C74
:10377000ACF1010C1035091DA0F5007080B2521E8D
:10378000CCF3080C07EA034340EA0C00184306EAAE
:103790000262104328600868626920F0C00010438C
:1037A00008600A68A06922F0200202430A60281D0E
:1037B0000A6822F010020A6002684FF6F873E469A2
:1037C0009A4342EAC40202600868B9F1000F40F06F
:1037D00010020A6011D00868B9F1010F11D040F44D
:1037E00000100860D8F80000444640F08060C8F837
:1037F0000000FDF74DF805460DE0086840F4002094
:10380000EFE740F48010ECE7FDF742F8401B022898
:1038100001D903208DE720680001F5D5504688E7DF
:10382000284402582DE9F047454D044689464FF09B
:10383000000A2868C04380070AD0414E283E3068FD
:1038400020F080503060FDF723F80746B04608E0CE
:103850000120BDE8F08700BFFDF71AF8C01B022861
:1038600067D8D8F800008000F6D4208829684FF483
:10387000FE0721F07C713E0241EA00502860207A68
:10388000A389B4F804C040022D4D2D495B1E227C53
:10389000ACF1010C1835091DA0F5007080B2521E64
:1038A000CCF3080C07EA034340EA0C00184306EA8D
:1038B0000262104328600868626920F44060104387
:1038C00008600A68A06922F4007202430A60281D99
:1038D0000A6822F480720A6002684FF6F873E4699D
:1038E0009A4342EAC40202600868B9F1000F40F44A
:1038F00080720A6011D00868B9F1010F11D040F050
:1039000080700860D8F80000444640F08050C8F845
:103910000000FCF7BDFF05460DE0086840F480009C
:10392000EFE740F40000ECE7FCF7B2FF401B022891
:1039300001D903208DE720688000F5D5504688E73F
:103940002844025870470178407841EA00207047C7
:10395000FCF7A4BFF0B59DB04C216846FCF7D5FD3F
:10396000202113A8FCF7D1FD0220FDF723FD2448F8
:1039700000242449026842F44042026002680A6856
:1039800042F001020A60096801F001011B9101681F
:103990008904FCD51C4901220B6802207826C50346
:1039A00023F003039B1C0B60CDE900250AAD0990B1
:1039B0000C27042185E845000DAA12940523CDE9C2
:1039C000107482E80B006846FEF7F6FC08B172B688
:1039D000FEE740201A9008230501CDE9163013AB0D
:1039E000CDE918053F21032283E81600042113A81E
:1039F000FEF7D2FA002801D072B6FEE71DB0F0BD86
:103A0000184802582C040058284402582C48F0B595
:103A10002C4A016841F470010160106800F00F0049
:103A2000072804D2106820F00F00C01D106026493E
:103A30000020254C10340B68244D43F001030B602B
:103A400020600B682B400B60136803F00F03072BFB
:103A500004D9136823F00F03DB1D13601A4C1C4AB2
:103A600018341C4B261D371D2060174C1A4D283466
:103A70003060261D3860371D23603B1D35601C1DDE
:103A80003A60251D2E1D1860331D226028603260AB
:103A900018600A680C4B114C22F4802260330A60D3
:103AA000186020686FF30F00B0F1005F03D20C497B
:103AB0000120C1F8080143F2D2000A490860F0BDB4
:103AC00088ED00E000200052004402587FEDF6EA45
:103AD00080020101000202020000FF010010005CF0
:103AE00000800051004000520148FFF7B8B90000C3
:103AF000A00200242DE9F047274B4FF0804A274DC4
:103B000002689842264E274F274C09D0504507D0CF
:103B1000A84205D0B04203D0B84201D0A04205D19E
:103B2000D1F804C022F070024CEA0202DFF87CC037
:103B3000DFF87C809842DFF87C900FD050450DD0A4
:103B4000A8420BD0B04209D0B84207D0A04205D05D
:103B5000604503D0404501D0484503D1CD6822F4EB
:103B600040722A434D6922F080022A430260984243
:103B70008A68C2620A68826207D0A04205D06045A6
:103B800003D0404501D0484501D1096901630121B5
:103B90004161BDE8F08700000000014000040040E2
:103BA00000080040000C00400004014000400140BB
:103BB000004401400048014042EA032283680A436E
:103BC00023F47F410A43826070470000034B826800
:103BD0001A400A4342F00701816070478FFFCFFF10
:103BE00010B5036A046A23F00A0324F00104046296
:103BF00084690B4324F0F00141EA02118161036200
:103C000010BD10B5036A23F0100303628369046AD0
:103C100023F4704324F0A00443EA0232826144EAB0
:103C20000111016210BD000030B5416EB9B10168EB
:103C30000D4B03F108048A688968C2F34262490F98
:103C40005D5C615C2D01B5FBF1F1A0F86A10995C37
:103C5000A25C0901B1FBF2F1A0F8681030BD0121AE
:103C6000A0F86A10F8E70000BA5A000890F8281087
:103C7000C90706D00168C36A4A6822F400321A43B1
:103C80004A6090F82810890706D50168036B4A68D6
:103C900022F480321A434A6090F82810490706D56A
:103CA0000168436B4A6822F480221A434A6090F804
:103CB0002810090706D50168836B4A6822F4004280
:103CC0001A434A6090F82810C90606D50168C36BEC
:103CD0008A6822F480521A438A6090F82810890674
:103CE00006D50168036C8A6822F400521A438A6080
:103CF00090F82810490611D50168436C4A6822F4EF
:103D000080121A434A60416CB1F5801F06D10168E8
:103D1000836C4A6822F4C0021A434A6090F8281063
:103D2000090606D50168C26C486820F400201043DB
:103D300048607047F8B500260446C0F88C60FCF770
:103D4000A7FD054620686FF07E470068000708D58C
:103D500000222B464FF400112046009700F0F0F9A6
:103D600060B92068006840070AD500222B464FF44E
:103D700080012046009700F0E3F908B10320F8BD68
:103D80002020C4F88400C4F88800E666002084F887
:103D90008060F8BD2DE9F04304468068D84E87B0B6
:103DA000D84B2168D4E90427D4F81CC010430A6812
:103DB000002547EA0C073843324002430A60206876
:103DC000E268416821F44051114341602268A169D1
:103DD0009A4201D0206A01439768DFF82CC3CB4E8A
:103DE000CB4807EA0C070F4397602168676ACA6AE5
:103DF00022F00F023A43CA622268B2420ED1006832
:103E000000F03800182873D047DCB8B3082879D000
:103E100010286FD178E028287ED17BE0BD498A4206
:103E200009D1006800F00700062875D2DFE800F02D
:103E3000546A6C6E7072B8498A4209D1006800F009
:103E40000700062868D2DFE800F0475D5F61636520
:103E5000B2498A4209D1006800F0070006285BD207
:103E6000DFE800F03A5052545658AD498A420BD11F
:103E7000006800F0070006284ED200E010E0DFE8FE
:103E800000F02B4143454749A6498A420AD10068C0
:103E900000F03800182839D0B7DD2028BBD13CE02D
:103EA00001203AE0A0498A4209D1006800F00700E9
:103EB000062831D2DFE800F01026282A2C2E9B4954
:103EC0008A420BD1006800F00700062824D2DFE800
:103ED00000F003191B1D1F2100201EE09A421BD178
:103EE0008B48001D006800F00700062814D202E08D
:103EF0000CE007E010E0DFE800F0030507090B0D18
:103F000002200AE0042008E0082006E0102004E077
:103F1000202002E0402000E080208549DFF8148264
:103F20009A42854A4FF400434FEA21174FF00006AA
:103F30004ED110281AD006DC022809D004280BD054
:103F400008287CD10DE020283ED0402877D13DE0E4
:103F5000FDF762FA014610E06846FDF76FFA019935
:103F60000BE003A8FDF70CFB049906E0106880063F
:103F700005D51068C0F3C100C140002970D0606A47
:103F8000676838F8102007EB4703B1FBF2F0834273
:103F900055D8B0EB073F52D8002308461946FCF726
:103FA0000BFA02467808130E120243EA0121101898
:103FB0003A4671410023FCF7FFF9604AA0F54071D1
:103FC00091423CD821688FE03946D8E71946D6E7B8
:103FD000D4F81CC04FF6EF799C4546D1082819D07B
:103FE00005DC58B101280CD0042875D10DE010284B
:103FF00015D0202835D040286ED134E0FEF71CF9CA
:1040000001E0FEF72BF9014610E06846FDF716FACD
:1040100001990BE003A8FDF7B3FA049906E01068D4
:10402000800604D51068C0F3C100C140C1B1636A05
:10403000606838F81330B1FBF3F1490000E04BE061
:1040400001EB5001B1FBF0F0A0F11001494543D85C
:104050004FF6F0732168C0F342021840104343E06A
:1040600043E03946E3E71946E1E7082819D005DCC3
:1040700058B101280CD004282ED10DE0102815D0FD
:1040800020282BD0402827D12AE0FEF7D5F801E0E0
:10409000FEF7E4F8014610E06846FDF7CFF9019914
:1040A0000BE003A8FDF76CFA049906E0106880069F
:1040B00004D51068C0F3C100C140B1B1636A606843
:1040C00038F81330B1FBF3F101EB5001B1FBF0F024
:1040D000A0F11001494505D9012506E03946EDE773
:1040E0001946EBE7216880B2C8600120A4F86A0095
:1040F000A4F8680028462667666707B0BDE8F08325
:10410000F369FFCF000C0058FFF4FF1100100140CD
:10411000544402580044004000480040004C004015
:10412000005000400014014000780040007C004036
:104130000090D003A25A000800440258FFFC0F0070
:104140002DE9F0479A4617460E460446089D4FF063
:1041500000094FF020084CE0681C4AD0FCF798FB9F
:10416000A0EB0A00A8422AD84DB32068016849078D
:104170003FD5C069C04300053BD421684FF40060BF
:104180000862216851E8000F20F4D07041E8000275
:10419000002AF6D12068083050E8001F21F0010104
:1041A00040E80012002AF5D1C4F8848084F8809099
:1041B000C4F88880C4F88C800320BDE8F0872068AC
:1041C00050E8001F21F4D07140E80012002AF6D117
:1041D0002068083050E8001F21F0010140E800127B
:1041E000002AF5D1C4F8848084F88090C4F88880CF
:1041F000E2E72068C06936EA000004D00020B84237
:10420000AAD00020D9E70120F9E72DE9F041D0F844
:10421000C4220C46D0F8BC12F9B104EB840300268A
:1042200000EB8305AB694BB1C4EBC40702EB87021B
:10423000526CB3FBF2F702FB173282B1C1F8146281
:10424000D0F8C00203692BB1D1F8080201F504715E
:10425000224698470020BDE8F0810320FBE70023B9
:1042600021461A46AE6100F094FCF3E770B5D0F831
:10427000BC4205466CB100F06FFBC4F80C0204F5BB
:104280000371D5F8C002C268D4F804029047002038
:1042900070BD032070BD70B58121044600F0BAFAEC
:1042A000002520460121258700F0B4FA822120460E
:1042B000A4F8785100F0AEFAD4F8BC02A4F84C503F
:1042C000A4F84E5048B1D4F8C00204F52F744068E9
:1042D0008047206800F04DFE2560002070BD10B5BD
:1042E000D0F8BC4284B1D0F8C01259B194F80002A1
:1042F000FF2807D08B68214694F801229847FF20B9
:1043000084F80002002010BD032010BD0A210180A6
:104310000048704780000024432101800048704716
:10432000D000002443210180004870478C00002405
:104330004321018000487047140100242DE9F04713
:1043400004464FF4077000F015FE05004FF000071B
:1043500035D0207C01264FF400794FF01008C4F8C6
:10436000BC5280B3402320460222812100F05EFB34
:104370004023268702222046012100F057FBA4F8A3
:1043800078610823032220468221A4F84E8000F0A1
:104390004DFBA4F84C60D4F8C00200688047C5F813
:1043A0001472C5F81872207CD5F80422A8B14023F5
:1043B0002046012100F046FB0020BDE8F0870220E6
:1043C000C4F8BC72F9E7FFE702224B468121204680
:1043D00000F02CFB4B462687CCE74B46E8E710B5B0
:1043E000D0F8BC1251B1027C002AD1F8042207D0C7
:1043F0004023012100F026FB002010BD032010BD4A
:104400004FF40073F5E719B1C0F8C01200207047EF
:1044100003207047D0F8BC0218B1C0F80412002085
:10442000704703207047D0F8BC0228B1C0F81022B2
:10443000C0F8081200207047032070472DE9FC41A6
:1044400006460C4600200546D6F8BC728DF80000E2
:10445000ADF8040037B1207810F0600129D0202990
:1044600045D102E00320BDE8FC81E288CAB1000624
:104470000BD5D6F8C0023946836860789847E28841
:10448000072A00D90722394629E06078394687F89B
:104490000002A07987F801023046E28800F051F866
:1044A0002AE0D6F8C0020022214683686078984747
:1044B00022E0607830B101281ED00A2809D00B28EC
:1044C00015D110E096F89C02032810D1022201A910
:1044D00005E096F89C02032809D10122694630467E
:1044E00000F049F808E096F89C02032804D0214621
:1044F000304600F01BF803252846B4E710B5D0F885
:10450000B8220AB152689047002010BD13460A46EF
:10451000002110B500F096FA002010BD13460A469F
:10452000002110B500F035FB002010BD10B5802132
:10453000044600F013FB2046BDE81040002100F0C7
:104540000DBB10B5C0F858210323C0F89432C0F851
:104550005C2113460A46002100F074FA002010BDC9
:1045600010B50521C0F8941200231A46194600F030
:1045700069FA002010BD10B582610223C0F89432A0
:10458000C26113460A46002100F003FB002010BD63
:1045900010B50421C0F8941200231A46194600F001
:1045A000F8FA002010BDF8B504460D460020ADF81D
:1045B00000004888010A08295FD2DFE801F05E04A4
:1045C00009175E5E3C45D4F8B412207C0A6819E0F5
:1045D000207C02260028D4F8B80205D0C16A6846BB
:1045E00088470146467039E0816AF8E7C0B206287C
:1045F00043D2DFE800F0030A1014181CD4F8B40208
:10460000426805E0694690471CE0D4F8B40282682D
:1046100092B3207CF6E7D4F8B402C268F8E7D4F885
:10462000B4020269F4E7D4F8B4024269F0E7D4F8BE
:10463000B4028269ECE7207CF0B9D4F8B802416B8F
:1046400068468847014609E0207CA8B9D4F8B8023A
:10465000016B68468847014607204870EA888AB19E
:10466000BDF8000040B1824200D902462046ADF8B4
:104670000020FFF780FFF8BDFFE729462046FFF73F
:1046800055FFF8E72046FFF783FFF4E770B50028F1
:104690004FF000051ED004462E4602E0761C641C36
:1046A000F6B22378002BF9D1022404EB46041480DF
:1046B00012786B1C03264A550024AA1CCE5406E02F
:1046C000551C8B54EAB2531C401C8C54DAB203784C
:1046D000002BF5D170BD01004FF0000004D001297E
:1046E00001D0022901D0032070470120704700004B
:1046F00004A00A46024910B5FFF7C8FF004810BDE4
:104700004C06002443444320436F6E6669670000F3
:1047100012200880004870472400002404A00A46A4
:10472000024910B5FFF7B2FF004810BD4C06002447
:1047300043444320496E74657266616365000000FE
:1047400004200880004870472000002404A00A4686
:10475000024910B5FFF79AFF004810BD4C0600242F
:1047600053544D6963726F656C656374726F6E69E3
:104770006373000004A00A46024910B5FFF786FFE4
:10478000004810BD4C06002453544D333220566966
:10479000727475616C20436F6D506F72740000000D
:1047A00010B51A2008800B480A490830021F096812
:1047B00000681468081809D007490822FEF700FDB0
:1047C0000549042220461031FEF7FAFC0248801EFB
:1047D00010BD000000E8F11F3A00002478B100236A
:1047E000C0F8B832C0F8C032C0F8CC3209B1C0F855
:1047F000B4120121027080F89C1200F0B1B80320BD
:10480000704710B5D0F8C402FCF769F9BDE8104054
:10481000FFF761BF10B5D0F8C402FCF73AF9BDE864
:104820001040FFF758BF70B51646044621B194F802
:104830009C02032841D048E0D4F89412002504F1EA
:104840001400022932D1D0E90232934206D99A1AD1
:10485000314682602046FFF761FE0FE09A4214D194
:104860004068904211D3D4F8981288420DD20022A9
:1048700020461146FFF752FEC4F8985200231A460C
:104880001946204600F0DEF810E094F89C02032858
:1048900005D1D4F8B802C16809B120468847802103
:1048A000204600F05BF92046FFF75AFE94F8A0027C
:1048B00001280AD184F8A05207E0D4F8B80242696E
:1048C0001AB120469047002800D1002070BD10B5D5
:1048D0001346044621B194F89C02032823D02AE011
:1048E000D4F8941204F5AA70032924D1D0E9021255
:1048F00091420AD98A1A8260C068824200D3024675
:1049000019462046FFF702FE15E094F89C020328A2
:1049100005D1D4F8B802016909B12046884720467C
:10492000FFF736FE07E0D4F8B80282691AB12046D4
:104930009047002800D1002010BD0020704710B51E
:10494000D0F8B812012280F89C2219B103794A6884
:10495000D9B29047002010BDD0F8C402FCF7EDB8E2
:1049600070B5017801292BD1164900220223164C7B
:104970000925C1F80404C0F8C4120120C1E90332BA
:10498000C1E906320A62C1E90920CA6208460A631F
:104990004A63C1E90045FCF7C7FB08B1FBF741FEDC
:1049A00008484FF40071FCF732F8064880220021D5
:1049B000FCF731F8034801214FF4BA72FCF72BF8E9
:1049C000002070BD6C1A002400000440D0F8C422FE
:1049D00001F07F000B06C0EBC00002EB800002D5A7
:1049E00090F83E00704790F8FE01704710B5D0F87F
:1049F000B82222B190F89C32032B02D004E00320AD
:104A000010BD126A02B19047002010BD10B5D0F859
:104A1000B82222B190F89C32032B02D004E003208C
:104A200010BD526A02B19047002010BD10B51C465F
:104A3000D0F8C40213462246FCF788F8BDE81040BF
:104A4000FFF749BE10B5D0F8C402FCF7AFF8BDE8D7
:104A50001040FFF740BE70B5044601250020D4F891
:104A6000B81284F89C52C4F894026060C4F8A4029E
:104A7000E1B1D4F8BC0220B14A6812B1002120464D
:104A800090470022204640231146FFF7CFFF4026E3
:104A9000A4F864510022334680212046C4F86061A6
:104AA000FFF7C4FFA5840020266270BD032070BDFF
:104AB00090F89C12042903D190F89D1280F89C1262
:104AC0000020704710B5D0F8B81221B190F89C22A0
:104AD000032A02D004E0032010BDC96901B1884750
:104AE000002010BD01740020704710B5D0F8C4023A
:104AF000FCF70CFCBDE81040FFF7EDBD70B50446B7
:104B000000F2AA20054600F04DF894F8AA0201230D
:104B1000B4F8B01210F01F02C4F89432C4F898121E
:104B20000AD0012A0ED0022A12D000F080012046BD
:104B3000BDE8704000F012B829462046BDE870403C
:104B400000F0C2B829462046BDE8704000F0E7B941
:104B500029462046BDE8704000F041B910B5D0F8B4
:104B6000C402FCF745F8BDE81040FFF7B4BD10B52E
:104B7000D0F8C402FCF7E5FBBDE81040FFF7ABBD81
:104B800090F89C22042180F89D2280F89C1200203D
:104B9000704710B5D0F8C402FCF764F8BDE81040C7
:104BA000FFF799BD70B5054608788C1C28704878C9
:104BB00068702046FEF7C7FEA41C68802046FEF7FA
:104BC000C2FEA880A01CFEF7BEFEE88070BD38B50E
:104BD00004460020ADF8000049B1C4F8B812C96A13
:104BE00019B168468847C4F8CC02002038BD0320BC
:104BF00038BDD0F8B83202460320002B02D01B6823
:104C000010461847704700002DE9F0412C4E04462D
:104C1000887800250F46C1B20129317006D939467E
:104C20002046FFF783FC0320BDE8F08194F89C0246
:104C300002280CD003281DD039462046FFF776FC09
:104C400031782046FFF75AFC03252846ECE799B354
:104C500020466160FFF7CDFF050004D039462046AD
:104C6000FFF764FCF1E72046FFF792FC032084F88D
:104C70009C02EAE74FF00208C1B1606888421BD08D
:104C8000C1B22046FFF73AFC317820466160FFF759
:104C9000B0FF050010D039462046FFF747FC2179C8
:104CA0002046FFF72BFC84F89C82CEE7616084F8F5
:104CB0009C822046FFF722FC2046FFF769FCC4E7F0
:104CC0007C000024FFF753BF2DE9F0410A784FF034
:104CD000000512F0600208D0202A01D0402A71D1CC
:104CE000D0F8B8229268904731E04B780022012634
:104CF0000A2B67D2DFE803F0415E66586608056656
:104D00002D29FFF750FC5FE004468888D8B9C88891
:104D1000C8B94888802816D294F89C2200F07F07F2
:104D2000032A10D03946204684F89E72FFF7DDFE34
:104D30002046FFF72DFC1FB1022084F89C0243E0BF
:104D400084F89C6240E020463CE0FFF75DFF0546AA
:104D50003AE0CB88012B35D190F89C32012B04D05E
:104D6000022B02D0032B2DD104E000F10801826058
:104D7000012216E00122011D13E090F89C22012A75
:104D800003D0022A01D0032A1CD1CA88022A19D1D1
:104D9000D0F8A412C66009B10321C160022200F15B
:104DA0000C01FFF7E8FB0FE0498801290CD1C0F89E
:104DB000A46211E090F89C32012B08D0022B06D09F
:104DC000032B04D0FFF7B2FB2846BDE8F0814988E9
:104DD0000129F9D1C0F8A422FFF7DAFBF4E72DE9A5
:104DE000F0410446087800260D46097910F060006D
:104DF0000BD0202801D040286DD1D4F8B802294624
:104E0000826820469047064686E06878A8B3012865
:104E100022D003287CD194F89C02022802D00328D7
:104E200076D10BE0002973D0802971D02046FFF79E
:104E300095FE80212046FFF791FE6DE0688838B925
:104E400031B1802904D0E88810B92046FFF786FEEA
:104E50002046FFF79DFB5FE094F89C020228E1D01A
:104E6000032855D16888A8BB480602D02046FFF722
:104E7000C8FC2046FFF78CFBBFE7FFE794F89C02D5
:104E80000027022802D0032842D111E009B180296D
:104E90003ED1080601F07F0000EB800004EB8001AA
:104EA00001D5143101E001F5AA7102220F602BE057
:104EB000080601F00F0000EB800004EB80000BD52A
:104EC000808C40B101F07F0000EB800004EB800596
:104ED00014350CE020E01BE0B0F86401C0B101F033
:104EE0007F0000EB800004EB800505F5AA7541B159
:104EF000802906D02046FFF769FD10B10120286007
:104F000000E02F60022229462046FFF734FB03E031
:104F100029462046FFF70AFB3046BDE8F08170B510
:104F2000064608780D464FF0000410F0600003D0EC
:104F3000202801D0402817D196F89C02012803D0E0
:104F4000022801D003280FD1287901280CD8D6F8DF
:104F5000B8028268304690470446E888204306D16C
:104F60003046FFF715FB02E03046FFF7DFFA204638
:104F700070BD7047004870474C18002470B54D78DC
:104F800001230A78012D1C4C02F00F0503FA05F3EA
:104F9000D0F81C5817D000EB421245EA0343C0F882
:104FA0001C38D2F8000B00040BD40B89C978D2F856
:104FB000000BC3F30A03184344EA81410843C2F8D3
:104FC000000B002070BD9EB23543C0F81C5800EBAA
:104FD0004213D3F800090004F3D40D89C978D3F83B
:104FE0000009C5F30A058904284341EA82510843B0
:104FF0002043C3F80009E4E700800010D0F800194E
:105000006FF30A01C0F80019D0F8041841F4807158
:10501000C0F804180020704770B5044606990A9E2F
:10502000049D01290D981DD0E06840F04000E0602B
:10503000204600F035F8A16B5EB321F48031A16306
:10504000012D0ED1E16D144A89B2E165E16D114384
:10505000E165A16841F00601A160A16841F020016D
:10506000A16070BDA26B01280C4922F48030A063BE
:10507000E06800EA0100E060E06820F44010E060D1
:1050800003D1E06840F48010E060204600F008F8AA
:10509000D6E741F48031D2E70000EE03BFFFBDFF49
:1050A00008B50E4900220092009B5B1C00938B42C6
:1050B0000CD80369002BF7DA0092026942F0010272
:1050C0000261009A521C00928A4201D9032008BD55
:1050D0000269D207F5D1002008BD0000400D030091
:1050E00070B50A7801234C78012C00EB42122CD0C9
:1050F000D2F8004B002C0BDAD2F8004B44F00064DD
:10510000C2F8004BD2F8004B44F08044C2F8004B88
:105110000C78D0F83C5804F00F0403FA04F425EAA4
:105120000444C0F83C480978D0F81C4801F00F014D
:105130008B401C4924EA0343C0F81C38D2F8000B0A
:105140000840C2F8000B002070BDD2F80049002CC6
:105150000BDAD2F8004944F00064C2F80049D2F8F2
:10516000004944F08044C2F800490D78D0F83C482A
:1051700005F00F050C4E03FA05F5ADB2AC43C0F8CF
:105180003C48D0F81C48097801F00F018B4099B2D7
:105190008C43C0F81C48D2F800093040C2F800091E
:1051A000D1E700000078F3EF007833ECD0F8001E70
:1051B00021F00301C0F8001ED0F8041821F002010C
:1051C000C0F8041800207047D0F8001E21F0030139
:1051D000C0F8001ED0F8041841F00201C0F804180D
:1051E000002070472DE9F04F0E4604460021DDF8FF
:1051F00024B00D46109F0846DDF82C2004EB800CEF
:10520000CCF80411401C0F28F8D32046AFB1806BB6
:1052100040F4001CC4F838C088460846C4F8000EA4
:10522000D4F80008012A2146C4F800081BD008461B
:10523000D1F8001841F003011BE0D0F8040840F059
:10524000020CC4F804C8A06B20F4001CC4F838C0D9
:10525000206840F0400CC4F800C0206840F0800C8A
:10526000C4F800C0D8E70846D1F800180BB141F0E7
:105270000101C0F80018102100F0A0FA00B10125CA
:10528000204600F07DFA00B1012540464FF000694C
:105290004FF67F334FF0904AC4F81088C4F8148852
:1052A000C4F81C88002114E004EB4112D2F800C9B4
:1052B000BCF1000F06DA11B1C2F800A904E0C4F88D
:1052C000009901E0C2F80009C2F81009C2F80839D3
:1052D000491C8E42E8D8002115E000BF04EB4112C2
:1052E000D2F800CBBCF1000F06DA11B1C2F800AB66
:1052F00004E0C4F8009B01E0C2F8000BC2F8100BF8
:10530000C2F8083B491C8E42E8D8D4F81038BBF1EB
:10531000000F6FF0804223F48073C4F81038A0614E
:10532000626103D1A06940F01000A061A069094A40
:105330000C9940EA0200A06119B1A06940F0080090
:10534000A061012F03D1A06903490843A061284649
:10535000BDE8F08F00383C8004000040816821F0F7
:10536000010181600020704770B50B784E78444C85
:105370000D78012E00EB431320D0D3F8100B6FF300
:105380001200C3F8100BD3F8100B2040C3F8100B19
:10539000486908B188684861D3F8100B012A40F4C5
:1053A0000020C3F8100BD3F8100B8A68C2F3120266
:1053B00040EA0200C3F8100B56D059E04E69002EA7
:1053C000D3F8106933D06FF31206C3F81069D3F81D
:1053D00010692640C3F810694E698C68A64200D94E
:1053E0004C61D3F8104944F40024C3F81049D3F8B1
:1053F00010494E69C6F3120654EA0604C3F8104970
:10540000012A22D000EB4512D2F8003943F00443C0
:10541000C2F800394A6932B30B78D0F83418012247
:1054200003F00F039A401143C0F8341826E02640D9
:10543000C3F81069D3F8104944F40024C3F81049A4
:10544000D3F810496FF31204D8E7096919B100EBDA
:105450004512C2F8141900EB4510D0F8001941F0BC
:105460000441C0F8001909E0C86808B1C3F8140B7A
:10547000D3F8000B40F00440C3F8000B002070BDCF
:10548000FFFF07E010B5144C036CA34203D9D0F81A
:10549000003B002B1EDB0023C0F8103B0129D0F895
:1054A000101B41F40021C0F8101BD0F8101B41F074
:1054B0001801C0F8101BD0F8101B41F0C041C0F813
:1054C000101B07D1C0F8142BD0F8001B41F080212D
:1054D000C0F8001B002010BD0A30544F0B784A78EA
:1054E000012A00EB43100BD0D0F8002B22F400125D
:1054F000C0F8002BC978032914D0022912D017E074
:10550000D0F8002922F40012C0F80029C978032934
:1055100001D002290CD1D0F8001941F08051C0F817
:10552000001905E0D0F8001B41F08051C0F8001BC5
:10553000002070470A784B78D1B2012B00EB421063
:1055400012D0D0F8002B002A06DB29B1D0F8001BBE
:1055500021F08041C0F8001BD0F8001B41F400117D
:10556000C0F8001B00207047D0F80029002A06DB95
:1055700029B1D0F8001921F08041C0F80019D0F805
:10558000001941F40011C0F80019EBE7F8B50B78E9
:105590006FF060464F78764DDCB2012F00EB43137D
:1055A00026D0D3F8104B6FF31204C3F8104BD3F886
:1055B000104B2C40C3F8104B4C698D68002C74D0F4
:1055C000D3F8107B2C44641EB4FBF5F4A4B206EAB5
:1055D000C4452F43C3F8107BD3F8105B8E68664335
:1055E000C6F312042543C3F8105B012A72D0A6E06B
:1055F0004F6927B3D3F810796FF31207C3F8107906
:10560000D3F810792F40C3F810794F698D68D3F81B
:1056100010C92F447F1EB7FBF5F506EAC54545EADC
:105620000C05C3F81059D3F810594E69C6F3120689
:105630003543C3F81059CD78012D10D01BE0D3F8B5
:1056400010692E40C3F81069D3F8105945F40025AD
:10565000C3F81059D3F810596FF3120509E0D3F8C5
:10566000105925F0C045C3F81059D3F8105945F02A
:105670000055C3F81059012A18D000EB4413D3F891
:10568000004944F00444C3F80049CC78012C2FD0E1
:105690004A6962B30B78D0F83418012203F00F0383
:1056A0009A401143C0F834185FE036E00A691AB135
:1056B00000EB4413C3F81429C97801290FD1D0F89D
:1056C0000818C90500EB4411D1F8002903D442F0B1
:1056D000005202E02FE042F08052C1F8002900EBB6
:1056E0004410D0F8001941F00441C0F800193CE022
:1056F000D0F80848E405D3F8004902D444F0005437
:1057000001E044F08054C3F8004900928B8A0A7883
:10571000C9689BB200F084F927E0D3F8104BC5F3B9
:1057200012052C43C3F8104BD3F8104B44F400245B
:10573000C3F8104B59E7CA680AB1C3F8142BC978EB
:1057400001290CD1D0F80808C005D3F8000B02D409
:1057500040F0005001E040F08050C3F8000BD3F857
:10576000000B40F00440C3F8000B0020F8BD00001F
:10577000FFFF07E0816841F0010181600020704770
:1057800008B50D4900220092009B5B1C00938B42E0
:105790000AD80369002BF7DA009210230361009AFC
:1057A000521C00928A4201D9032008BD0269D20628
:1057B000F5D4002008BD0000400D030018B50E4AC6
:1057C00000230093009C641C009494420CD804694C
:1057D000002CF7DA2024009344EA8111016100993A
:1057E000491C0091914201D9032018BD0169890625
:1057F000F5D4002018BD0000400D0300D0F80808C3
:1058000010F0060004D0022803D0062801D00F2093
:10581000704702207047406900F001007047D0F8DF
:105820001818D0F81C08084080B27047D0F8181833
:10583000D0F81C080840000C704710B5D0F81028AC
:1058400001F00F0300EB4114D0F83418D4F8080924
:10585000D94001F0010142EAC111084010BD00EB3E
:105860004111D1F8081BD0F814080840704741696D
:105870008069084070470346084630B5940802F036
:105880000301002203F5805303E01D68521C40F819
:10589000045BA242F9D300290CD01C680023491EE6
:1058A000DD00090403F10103090C24FA05F200F8F4
:1058B000012BF4D130BD70B50446C06801294FF00A
:1058C000000520F0C040E06001D079B120E0E06840
:1058D00040F00050E0600120FAF7A6FE60696D1C00
:1058E00010F0010F10D1322DF5D30DE0E06840F03B
:1058F0008040E0600120FAF797FE60696D1C10F0AF
:10590000010F01D0322DF5D3322D01D0002070BD12
:10591000012070BDD0F800284FF4FE6303EA0113A4
:1059200022F4FE62C0F80028D0F800181943C0F82D
:105930000018002070470000022A3ED1264A274B5B
:105940000A449A4201D20F2138E0254A254B0A44E5
:105950009A4201D20E2131E0234A244B0A449A4252
:1059600001D20D212AE0224A224B0A449A4201D256
:105970000C2123E0204B214A0B44934201D20B21FE
:105980001CE01F4B1F4A0B44934201D20A2115E031
:105990001D4B1E4A0B4493420FD31D4B1D4A0B4413
:1059A000934201D2082109E01B4B1C4A1944914241
:1059B00001D2072102E0062100E00921C2684FF46C
:1059C000705322F47052C26003EA8123C168194304
:1059D000C160002070470000405327FF00350C00D5
:1059E000401E1BFF40420F0000DC0BFF804F1200E7
:1059F000808CF9FE20D6130060B6E5FE60E3160049
:105A000000D3CEFE40771B00C05BB3FEC0912100E7
:105A100000CA91FE20753800E05459FEE09C410018
:105A200010B5029C74B900EB0232DB1C00209B080D
:105A300002F5805204E000BF51F8044B1460401C92
:105A40009842F9D3002010BDFEE7090700284FEA6D
:105A5000116104DB00F1E02080F80014704700F0D1
:105A60000F0000F1E02080F8141D7047FAF71EFFC8
:105A7000FDF770FFFDF7DAFBFDF792FCFDF724FD63
:105A8000FDF756FDFDF7EAFCFDF7BEFC0148FDF70A
:105A900021F9FEE7A00200244FF04070E1EE100A69
:105AA0007047010002000400060008000A000C0014
:105AB00010002000400080000001010101030701E7
:105AC00000000804020408010101000000000102B6
:105AD000030401020304060708090000FC5A000839
