:020000040800F2
:1000000070260024790300080F530008594E000899
:100010000D530008D5050008C9780008000000004D
:10002000000000000000000000000000C5570008AC
:1000300045080008000000008B540008D157000854
:100040009303000893030008930300089303000838
:100050009303000893030008930300089303000828
:100060009303000893030008930300089303000818
:100070009303000893030008930300089303000808
:1000800093030008930300089303000893030008F8
:1000900093030008930300089303000893030008E8
:1000A00093030008930300089303000893030008D8
:1000B00093030008930300089303000893030008C8
:1000C00093030008930300089303000893030008B8
:1000D00093030008930300089303000893030008A8
:1000E0009303000893030008000000009303000836
:1000F0009303000893030008930300089303000888
:100100009303000893030008930300089303000877
:100110009303000893030008930300089303000867
:1001200093030008210600089303000893030008C6
:100130009303000893030008930300089303000847
:1001400000000000000000000000000000000000AF
:100150009303000893030008930300089303000827
:100160009303000893030008930300089303000817
:100170009303000811530008930300089303000839
:1001800093030008930300089303000893030008F7
:1001900093030008930300089303000835570008F1
:1001A00093030008930300089303000893030008D7
:1001B00093030008930300089303000893030008C7
:1001C00093030008930300089303000893030008B7
:1001D00093030008930300089303000893030008A7
:1001E0009303000893030008930300089303000897
:1001F0009303000893030008930300089303000887
:100200009303000893030008930300089303000876
:10021000695900089303000893030008930300083A
:1002200093030008930300089303000800000000F4
:1002300093030008930300080000000093030008E4
:100240009303000893030008930300089303000836
:100250009303000893030008930300089303000826
:100260009303000893030008930300089303000816
:1002700093030008930300089303000800000000A4
:100280009303000893030008930300080000000094
:10029000000000009303000800F002F800F05CF892
:1002A0000AA090E8000C82448344AAF10107DA45D1
:1002B00001D100F051F8AFF2090EBAE80F0013F0C7
:1002C000010F18BFFB1A43F001031847A87600007E
:1002D000C87600000A444FF0000C10F8013B13F000
:1002E000070408BF10F8014B1D1108BF10F8015B8F
:1002F000641E05D010F8016B641E01F8016BF9D182
:1003000013F0080F1EBF10F8014BAD1C0C1B09D1D8
:100310006D1E58BF01F801CBFAD505E014F8016B4A
:1003200001F8016B6D1EF9D59142D6D370470000DC
:100330000023002400250026103A28BF78C1FBD8EE
:10034000520728BF30C148BF0B6070471FB507F088
:10035000EBFA1FBD10B510BD00F001F91146FFF713
:10036000F5FF07F0C3FA00F01FF903B4FFF7F2FF3F
:1003700003BC00F029F900000948804709480047FC
:10038000FEE7FEE7FEE7FEE7FEE7FEE7FEE7FEE745
:10039000FEE7FEE704480549054A064B70470000A2
:1003A0008D5800089902000870200024702600244F
:1003B000702200247022002453EA020C00F06980AD
:1003C0002DE9F04B4FF00006002B1FBFB3FA83F569
:1003D00003FA05F424FA05F65E4012BF1643B2FA9A
:1003E00082F502FA05F4C5F120051EBF22FA05FCCC
:1003F00044EA0C04203556EA044C4FEA144418BF72
:10040000641C4FF000084FF00009904271EB030CA0
:1004100039D3002919BFB1FA81F701FA07F6B0FA0A
:1004200080F700FA07F6C7F120071EBF20FA07FC85
:1004300046EA0C062037B6FBF4FCA7EB0507103F95
:1004400007F01F0BCBF120060CFA0BFB2CFA06F67B
:1004500044BFB3460026202FA4BF5E464FF0000BDA
:100460005BEA060C08BF4FF0010B19EB0B09ABFB65
:10047000027C48EB0608C01B06FB02CC0BFB03CC3E
:1004800071EB0C01C1E70B46024641464846BDE808
:10049000F08B13B54FF000004FF00001AFF3008078
:1004A000BDE81C40704710B5203AC0F00B80B1E8A1
:1004B0001850203AA0E81850B1E81850A0E8185099
:1004C000BFF4F5AF5FEA027C24BFB1E81850A0E8A2
:1004D000185044BF18C918C0BDE810405FEA827CBC
:1004E00024BF51F8043B40F8043B08BF7047D207D3
:1004F00028BF31F8023B48BF11F8012B28BF20F874
:10050000023B48BF00F8012B70474FF0000200B5D6
:10051000134694469646203922BFA0E80C50A0E826
:100520000C50B1F12001BFF4F7AF090728BFA0E8D4
:100530000C5048BF0CC05DF804EB890028BF40F8A0
:10054000042B08BF704748BF20F8022B11F0804FE2
:1005500018BF00F8012B7047704770477047754609
:1005600000F02CF8AE4605006946534620F007001F
:10057000854618B020B5FFF70DFFBDE820404FF0CD
:1005800000064FF000074FF000084FF0000B21F07D
:100590000701AC46ACE8C009ACE8C009ACE8C0094A
:1005A000ACE8C0098D46704710B50446AFF3008033
:1005B0002046BDE81040FFF7D8BE00000048704755
:1005C000102000247047000001491820ABBEFEE750
:1005D00026000200FEE70020704700207047000060
:1005E00005490022054810B505F05DFE04490348A1
:1005F00005F050FE002010BDE8110024180500246D
:10060000E80900240146044810B505F043FE0248FD
:1006100005F025FE002010BD1805002400207047BD
:10062000014800F005BC00002C020024294A0168A2
:1006300091423AD0274A1832914236D0254A303278
:10064000914232D0234A483291422ED0214A603220
:1006500091422AD01F4A7832914226D01D4A9032C8
:10066000914222D01B4AA83291421ED01A4A91428E
:100670001BD0194A1832914217D0174A3032914292
:1006800013D0154A483291420FD0134A603291423A
:100690000BD0114A7832914207D00F4A90329142E2
:1006A00003D00D4AA832914211D1CAB21823103A90
:1006B000B2FBF3F26FF30901032A02F00703074AC2
:1006C000D25CC26500D9091D81650846704721F0DA
:1006D000FF01F9E7100002401004024032790008DF
:1006E00030B5224A012301689142CAB21BD01F4C87
:1006F0001434A14217D01D4C2834A14213D01B4CF6
:100700003C34A1420FD0194C5034A1420BD0174CAD
:100710006434A14207D0154C7834A14203D0134C65
:100720008C34A1420CD11421114C083AB2FBF1F1E6
:100730000F4A803201F01F0504EB8101AB4010E04D
:100740000C4D1824103A0D44B2FBF4F1A82D00D83A
:100750000831094A01F01F0402EB8101064AA34057
:100760008032603080E80E0030BD0000085402582E
:1007700000580258F0FBFDBF0008024010B5027996
:10078000531E072B2DD8174C0168A1421BD0154CC6
:100790001434A14217D0134C2834A14213D0114C69
:1007A0003C34A1420FD00F4C5034A1420BD00D4C21
:1007B0006434A14207D00B4C7834A14203D0094CD9
:1007C0008C34A14203D10849074C443102E0074967
:1007D000064C443104EB8202C0E91B2101219940FF
:1007E000416710BD08540258FC580258FC080240EA
:1007F00010B583694FF0C074826A0146002053B17E
:10080000B3F5005F15D072B1012A0CD0022A0AD0CC
:10081000032A09D104E01AB1012A06D0022A03D121
:10082000C96AC90100D5012010BDC96AA142FAD028
:1008300010BD002AF7D0012AF2D0022AF3D0032AF1
:10084000F3D010BD704772B6FEE700002DE9F84FF7
:10085000044601F077F900903CB194F83500022885
:1008600006D0802161650020E4E00120BDE8F88F1A
:10087000C74DC74EC649183520683036DFF8148397
:10088000DFF814938842DFF814A3DFF814B32ED0F6
:10089000A8422CD0B0422AD0404528D0484526D086
:1008A000504524D0584522D0BD4A183290421ED01F
:1008B000BC4A90421BD0BB4A1832904217D0B94A6A
:1008C0003032904213D0B74A483290420FD0B54AE6
:1008D000603290420BD0B34A7832904207D0B14A8E
:1008E0009032904203D0AF4AA832904209D10268B8
:1008F00022F01E0202602068426922F080024261FA
:1009000003E0026822F00E02026027688F42384638
:100910004DD0A8424BD0B04249D0404547D0484581
:1009200045D0504543D0584541D09D4A1832904259
:100930003DD09C4A90423AD09A4A1832904236D0E2
:10094000984A3032904232D0964A483290422ED065
:10095000944A603290422AD0924A7832904226D00D
:10096000904A9032904222D08E4AA83290421ED0B5
:100970008D4A90421BD08C4A1432904217D08A4A3A
:100980002832904213D0884A3C3290420FD0864A97
:10099000503290420BD0844A6432904207D0824A4F
:1009A0007832904203D0804A8C32974204D1206E34
:1009B000026822F48072026075492068884228D05B
:1009C000A84226D0B04224D0404522D0484520D06D
:1009D00050451ED058451CD071491831884218D056
:1009E0007049884215D06F491831884211D06D493D
:1009F000303188420DD06B494831884209D069496D
:100A00006031884205D067497831884201D0654914
:100A10009031016821F0010101600EE001F092F8CF
:100A20000099401A052808D9202262650321002078
:100A300084F8351084F8340017E73868C007EDD122
:100A4000534A0121206890422ED0A8422CD0B042B7
:100A50002AD0404528D0484526D0504524D0584576
:100A600022D04F4B183398421ED04E4B98421BD089
:100A70004C4B1833984217D04A4B3033984213D01E
:100A8000484B483398420FD0464B603398420BD0C6
:100A9000444B7833984207D0424B9033984203D06E
:100AA000404BA833984208D194F85C703F23A06D66
:100AB00007F01F07BB40836007E094F85C30A06D2F
:100AC00003F01F0301FA03F34360206890424DD006
:100AD000A8424BD0B04249D0404547D0484545D0C8
:100AE000504543D0584541D02D4A183290423DD010
:100AF0002C4A90423AD02B4A1832904236D0294A9A
:100B00003032904232D0274A483290422ED0254A85
:100B1000603290422AD0234A7832904226D0214A2D
:100B20009032904222D01F4AA83290421ED01E4AD4
:100B300090421BD01C4A1432904217D01A4A2832D5
:100B4000904213D0184A3C3290420FD0164A50328D
:100B500090420BD0144A6432904207D0124A783245
:100B6000904203D0104A8C3290420BD1D4E9190242
:100B70004260E06E30B1026822F480720260D4E913
:100B80001C024260002084F8351084F834006DE6C1
:100B900010000240580002407000024088000240ED
:100BA000A000024010040240085402582DE9F05FF2
:100BB00028B190F83510022904D080214165012028
:100BC000BDE8F09F904C904B0168183C18338E4A5A
:100BD000DFF83C92A1428D4CDFF838E28E4FDFF80F
:100BE0003CB2DFF83CA28F4D8F4E31D091422FD0D6
:100BF00099422DD0A1422BD0494529D0714527D00B
:100C0000B94225D0DFF810C20CF1180C61451FD095
:100C1000DFF808C2ACF1600C614519D0DFF8FCC107
:100C2000ACF1480C614513D0DFF8F0C1ACF1300CE9
:100C300061450DD0DFF8E4C1ACF1180C614507D077
:100C4000594505D0514503D0A94201D0B1422CD11C
:100C5000DFF8B4C14FF0040880F83580ACF1180C0F
:100C600061451DD091421BD0994219D0A14217D0A5
:100C7000494515D0714513D0B94211D06648183096
:100C800081420DD065486038814209D063484838B8
:100C9000814205D061483038814201D05F48183820
:100CA000086820F001000860ABE0D1F800C02CF02B
:100CB0000E08DFF854C1C1F80080ACF1180C0168CF
:100CC000614527D0914225D0994223D0A14221D01D
:100CD00049451FD071451DD0B9421BD0DFF838C13E
:100CE0000CF1180C614515D0DFF830C1ACF1600C87
:100CF00061450FD0DFF824C1ACF1480C614509D043
:100D0000DFF818C1ACF1300C614503D0DFF80CC13D
:100D1000ACF1180CD1F800C02CF0010CC1F800C0E7
:100D2000DFF8E4804FF0010C0168A8F11808414594
:100D300046D0914244D0994242D0A14240D0494548
:100D40003ED071453CD0B9423AD0334A1832914234
:100D500036D0324A603A914232D0304A483A9142D3
:100D60002ED02E4A303A91422AD02C4A183A91423B
:100D700026D0594524D0514522D0A94220D0B14295
:100D80001ED02A4A91421BD0284A1432914217D0D1
:100D9000264A2832914213D0244A3C3291420FD045
:100DA000224A503291420BD0204A6432914207D0FD
:100DB0001E4A7832914203D01C4A8C32914218D19B
:100DC000016E0A6822F480720A6090F85C20816DDE
:100DD00002F01F020CFA02F24A60D0E919124A60CE
:100DE000C16E31B10A6822F480720A60D0E91C1227
:100DF0004A600022016D80F835C080F8342001B1CE
:100E000088470020DCE6000028000240580002402D
:100E10007000024088000240A000024070040240BE
:100E200088040240A0040240B8040240085402585A
:100E30002DE9FC5F0446F74E0020DFF8D8830090D0
:100E40004FF41652F44808F11808A56DDFF8C49362
:100E5000DFF8C0A3016809F1300920680AF1480AE7
:100E6000B1FBF2F1B04201912F68D5F800C0DFF874
:100E7000ACB335D04146884232D0484530D0504599
:100E80002ED058452CD0E5491831884228D0E34966
:100E90003031884224D0E1494831884220D0E049AD
:100EA00088421DD0DE491831884219D0DC493031E2
:100EB000884215D0DA494831884211D0DFF860E322
:100EC0000EF1600E70450BD0D54A7832904207D0B3
:100ED000D34B9033984203D0D149A83188427DD179
:100EE00094F85C20082102F01F0201FA02F23A4253
:100EF0004AD0B04232D0404530D048452ED050453F
:100F00002CD058452AD0C54A1832904226D0C34A20
:100F10003032904222D0C14A483290421ED0C04A5C
:100F200090421BD0BE4A1832904217D0BC4A303291
:100F3000904213D0BA4A483290420FD0B84A603239
:100F400090420BD0B64A7832904207D0B44A9032E1
:100F5000904203D0B24AA832904203D1026802F014
:100F6000040202E0026802F008026AB1026822F09C
:100F70000402026094F85C0000F01F008140A96048
:100F8000606D40F00100606594F85C00012100F0A4
:100F90001F008140394240D02068B04234D04045E3
:100FA00032D0484530D050452ED058452CD09B4AA1
:100FB0001832904228D0994A3032904224D0974A31
:100FC0004832904220D0964A90421DD0944A18321E
:100FD000904219D0924A3032904200E0AFE113D0F3
:100FE0008F4A483290420FD08D4A603290420BD0E7
:100FF0008B4A7832904207D0894A9032904203D08F
:10100000874AA83290427DD1406910F0800F04D009
:10101000A960606D40F00200606594F85C000421F6
:1010200000F01F00814039423ED02068B04232D0EB
:10103000404530D048452ED050452CD058452AD078
:10104000764A1832904226D0744A3032904222D0EA
:10105000724A483290421ED0714A90421BD0704A68
:101060001832904217D06E4A3032904213D06C4AF8
:10107000483290420FD06A4A603290420BD0684AA0
:101080007832904207D0664A9032904203D0644A48
:10109000A83290424ED1006810F0020F04D0A9602F
:1010A000606D40F00400606594F85C00102100F071
:1010B0001F008140394258D02068B04234D04045AA
:1010C00032D0484530D050452ED058452CD0534AC8
:1010D0001832904228D0514A3032904224D04F4AA0
:1010E0004832904220D04E4A90421DD04C4A18328D
:1010F000904219D04A4A3032904215D0484A48327C
:10110000904200E014E00FD0454A603290420BD08C
:10111000434A7832904207D0414A9032904203D0FD
:101120003F4AA832904207D1006800F0080006E06C
:10113000006872E70068B7E7006800F00400A0B13B
:10114000A96020680168490304D50068000308D538
:10115000A16C07E00168C90503D4016821F008010A
:101160000160216C09B12046884794F85C00202179
:1011700000F01F008140394279D02068B04232D05F
:10118000404530D048452ED050452CD058452AD027
:10119000224A1832904226D0204A3032904222D041
:1011A0001E4A483290421ED01D4A90421BD01C4A13
:1011B0001832904217D01A4A3032904213D0184A4F
:1011C000483290420FD0164A603290420BD0144AF7
:1011D0007832904207D0124A9032904203D0104A9F
:1011E000A832904203D1006800F0100002E00068CD
:1011F00000F00200B0B3A96094F83500042820681C
:1012000001680FD049037ED5006800032BD4616CC0
:101210002AE0000010000240140000247000024088
:101220001004024021F0160101602068416921F09C
:1012300080014161206C08B9A06C20B12068016870
:1012400021F00801016094F85C303F21012003F097
:101250001F0300229940A96084F8350084F83420E7
:10126000216D65E003E0E16B09B120468847606DC0
:1012700000287DD0606DC00759D02068042184F813
:101280003510B0422BD0404529D0484527D0504595
:1012900025D0584523D09D49884220D09B491831FC
:1012A00088421CD099493031884218D098498842E8
:1012B00015D097491831884211D09549303188426C
:1012C0000DD093494831884209D091496031884214
:1012D00005D08F497831884201D08D49903101681D
:1012E00021F00101016020680099019A491C0091D8
:1012F000914202D80168C907F6D10068C00710D032
:1013000003200FE0FFE70168C905ACD403680121A1
:10131000002223F01003036084F8351084F8342091
:10132000A1E7012084F83500002084F83400E16C46
:1013300000291DD002B02046BDE8F05F084775497E
:1013400088421DD073491431884219D0714928311F
:10135000884215D06F493C31884211D06D495031D7
:1013600088420DD06B496431884209D0694900E058
:1013700084E07831884203D066498C3188427DD13F
:1013800094F85C800427016808F01F0807FA08F742
:1013900017EA0C0F009746D04F0744D500980F046A
:1013A000686003D5C8033CD4A16CC1E7880638D473
:1013B0002068B0422DD055496039884229D048452F
:1013C00027D0504525D0584523D05049884220D0B9
:1013D0004E49183188421CD04C493031884218D0CF
:1013E0004B49884215D04A491831884211D04849A2
:1013F000303188420DD046494831884209D0704585
:1014000007D0904205D0984203D04149A831884284
:1014100003D1016821F0080102E0016821F0040114
:101420000160216C84E7022707FA08F717EA0C0F1E
:1014300000974ED08F074CD500980F04686003D5F5
:10144000C80344D4616C73E7880640D42068B04276
:101450002FD02E49603988422BD0484529D050459D
:1014600027D0584525D02949884222D0274918310C
:1014700088421ED025493031884200E044E018D02F
:101480002349884215D022491831884211D0204979
:10149000303188420DD01E494831884209D070450C
:1014A00007D0904205D0984203D01949A83188420C
:1014B00003D1016821F0140102E0016821F00A0162
:1014C0000160012184F83510002084F83400E16BBC
:1014D0002EE7082202FA08F212EA0C0F14D00907CC
:1014E00012D5016821F00E01016094F85C10012012
:1014F000002201F01F0100FA01F16960606584F8C3
:10150000350084F8342012E7BDE8FC9F88000240D3
:1015100010040240085402582DE9F05F044600F020
:1015200011FB002C07467DD0E34E022120684FF0CE
:101530000308DFF888934FF00005DFF884A3B0427A
:10154000DFF880B334D0DC4A1832904230D04845BE
:101550002ED050452CD058452AD0DA4A1832904225
:1015600026D0D84A3032904222D0D64A48329042D1
:101570001ED0D54A90421BD0D34A1832904217D081
:10158000D14A3032904213D0CF4A483290420FD0E5
:10159000CD4A603290420BD0CB4A7832904207D08D
:1015A000C94A9032904203D0C74AA83290427DD1B6
:1015B00084F83510B04284F834502ED0BE4918312A
:1015C00088422AD0484528D0504526D0584524D0B6
:1015D000BC491831884220D0BA49303188421CD0E9
:1015E000B8494831884218D0B749884215D0B64921
:1015F0001831884211D0B449303188420DD0B249F7
:101600004831884209D0B0496031884205D0AE499E
:101610007831884201D0AC499031016821F0010154
:10162000016008E027E100BF00F08CFAC01B05282C
:1016300001D920211CE120680068C007F4D104F121
:1016400008002168D4E9053C8E4685C80968104326
:10165000D4E907281F43636A38439C4F40EA0C00D3
:101660001043394040EA0800042B40EA010003D14E
:10167000D4E90B1211430843954909686FF30F0130
:10168000B1F1005F0FD36168A1F12902052A08D9E1
:10169000163A032A05D9083A012A02D94F390329F3
:1016A00001D840F48010CEF8000000E023E020686C
:1016B000676A4069042F20F0070047EA00070DD150
:1016C000D4E90A01074349B12046FFF791F828B150
:1016D00040206065012184F83510CCE02068476126
:1016E0002046FEF7A3FF94F85C203F2102F01F0282
:1016F0009140816054E0774A90421BD0754B14337F
:10170000984217D0734B2833984213D0714B3C3317
:1017100098420FD06F4B503398420BD06D4B6433CF
:10172000984207D06B4B7833984203D0694B8C3387
:1017300098427DD184F8351084F83450664B0168A6
:10174000A26801EA030E402A73D0802A72D00022D8
:10175000D4E90378D4E9053142EAD70242EAD8084D
:101760005C4AD4E9077C48EAD30848EAD10141EA57
:10177000D701524241EA1C11142341EA0E010160D3
:1017800020681044B0FBF3F08000E0652046FEF7CF
:101790004DFF94F85C20012102F01F02914041604E
:1017A0002068B04257D044491831884253D0484548
:1017B00051D050454FD058454DD0424918318842FC
:1017C00049D040493031884245D03E49483188426D
:1017D00041D03D4988423ED03B49183188423AD0F9
:1017E00039493031884236D037494831884232D081
:1017F0003549603188422ED03349783188422AD029
:1018000031499031884226D02F49A831884222D0D0
:10181000304988421FD02F49143188421BD02D49AE
:101820002831884217D02B493C31884213D002E03E
:101830001DE017E018E02749503188420BD02549B8
:101840006431884207D023497831884203D0214946
:101850008C31884229D12046FEF742FFA0688028BB
:101860000CD00CE0102273E74FF4804270E7402167
:10187000616584F835800120BDE8F09F6560216EC8
:1018800020790860D4E9190141606068401E07288A
:1018900008D82046FEF772FFE06E0560D4E91C010F
:1018A000416002E0E566256765670120656584F8AB
:1018B00035000020E0E70000100002404000024038
:1018C0005800024070000240100402403F8010FEA9
:1018D0000010005C085402580F00FEFF70B504466B
:1018E00000F030F90546601C02D00448007804443A
:1018F00000F028F9401BA042FAD370BD0800002474
:101900002DE9F84F03247D4D00234FF001094FF0DE
:10191000B04B4FF00F0AE9E009FA03F73A4076D0EE
:101920000E7906F00306012E01D0022E18D1D0F850
:1019300008C04FEA430ECE6804FA0EF82CEA080CF1
:1019400006FA0EF646EA0C068660D0F804C00E7958
:101950002CEA070CC6F300169E4046EA0C064660C9
:101960000E79F643B6070BD0C6684FEA43088F6876
:1019700004FA08FC26EA0C0607FA08F73743C760A2
:101980000E7906F00306022E12D1DE080F694FEA27
:10199000437C00EB8606B646366A4FEADC6C0AFAF0
:1019A0000CF807FA0CF726EA08063743CEF8207041
:1019B0000F7906684FEA430807F0030704FA08FCAA
:1019C00007FA08F726EA0C06374307604E6816F454
:1019D000403F1CD04A4E376847F0020737603668F0
:1019E0009F0706F00206009623F0030606F1B046B4
:1019F000B6463F0FD6F80864DFF808810AFA07FCFC
:101A0000404526EA0C0603D14FF0000C41E06CE0A3
:101A1000DFF8F4C0604502D14FF0010C39E0DFF887
:101A2000ECC0604502D14FF0020C32E0DFF8E0C0BC
:101A3000604502D14FF0030C2BE0DFF8D8C06045C1
:101A400002D14FF0040C24E0DFF8CCC0604502D195
:101A50004FF0050C1DE0DFF8C4C0604502D14FF027
:101A6000060C16E0DFF8B8C0604502D14FF0070C55
:101A70000FE0DFF8B0C0604502D14FF0080C08E07D
:101A8000DFF8A4C0604502D14FF0090C01E04FF02F
:101A90000A0C0CFA07FC4CEA060CCEF808C44F6896
:101AA000DBF80060FF0226EA020600D516435F4617
:101AB000CBF80060D1F804C0DBF804605FEA8C2C3E
:101AC00026EA020600D516437E606E684F6826EA55
:101AD0000206BF0300D516436E602E684F6826EAE3
:101AE0000206FF0300D516432E605B1C0A6832FA1B
:101AF00003F67FF411AFBDE8F88F000080000058B6
:101B0000F444025800000258000402580008025829
:101B1000000C025800100258001402580018025815
:101B2000001C025800200258002402580AB18161AA
:101B300070470904FBE7000001480068000C70478B
:101B40000010005C01488068704700000800002415
:101B500002488168027811448160704708000024BF
:101B6000032010B500F086F801F0A2FE0F4A1049DC
:101B700014681368C4F3032203F00F038A5CC95C82
:101B800002F01F0201F01F01D0400A4A20FA01F1C1
:101B90001160094908600F2000F010F808B1012019
:101BA00010BD00F02BF8002010BD000018440258B2
:101BB00062790008180000241400002470B50D4D4F
:101BC00004462878A0B14FF47A71B1FBF0F00A49CD
:101BD0000968B1FBF0F002F013FE48B9102C07D2EF
:101BE00000222146501E00F025F800206C6070BDD8
:101BF000012070BD0800002414000024054808B529
:101C0000016841F002010160006800F002000090EC
:101C100008BD0000F4440258002809DB410900F027
:101C20001F028900012001F1E0219040C1F800016C
:101C3000704700000E4BF0B41B680D46C3F302233F
:101C4000C3F10706042E00D90426191D072901D265
:101C5000002300E0DB1E012404FA06F19C40491E2B
:101C60002940641E994014402143F0BC05F02DBE6C
:101C70000CED00E0064900F0070210B54FF6FF0436
:101C80000868044B204040EA02201843086010BD59
:101C90000CED00E00000FA0501680123C0F8FC33F8
:101CA000002280F8F4238869044A40F000608861CB
:101CB000486D104348650020704700000300001085
:101CC00070470068416200207047F0B503685D6AA4
:101CD00039B19F6A4C1E00204FF4827605EB174500
:101CE0000BE045EA0240986210E0471C06EB8000DA
:101CF00053F800C0F8B205EB1C45A042F5D34FF4F1
:101D0000807000EB810045EA02421A500020F0BDCD
:101D1000D0F8040404F051BDC1EBC10200EB820213
:101D2000D0F80404926C04F0BEBCC1EBC10200EB1D
:101D30008202D0F80404D2F8082204F008BDD0F8DA
:101D4000040404F03CBD01F00F020B0670B5C2EBB9
:101D5000C20104464FF001004FF0000504EB810181
:101D600003D581F83D003C3103E081F8FD5101F5D8
:101D7000FE710A7094F8BC23012A08D084F8BC03D1
:101D8000206805F0EDF8002084F8BC5370BD0220F7
:101D900070BD70B54268044601F00F00904201D951
:101DA000012070BD01F00F024FF000050B06C2EBE1
:101DB000C2014FF0010204EB810103D581F83D20FF
:101DC0003C3103E081F8FD5101F5FE718D70087022
:101DD00094F8BC03012808D084F8BC23206805F0DF
:101DE000BDFA002084F8BC5370BD022070BD01F024
:101DF0000F01C1EBC10100EB8100D0F81402704764
:101E00002DE9F04101F00F0604460D064FF00100E8
:101E1000C6EBC6014FF0000504EB810103D581F844
:101E20003D003C3103E081F8FD5101F5FE714F7832
:101E30008A60CB700E7007B1CE80022B00D10D717D
:101E400094F8BC23012A09D084F8BC03206804F06C
:101E5000D5FF284684F8BC53BDE8F0810220FBE79B
:101E600070B501F00F050C460026C5EBC50100EB6F
:101E70008101C1F80822C1E9843681F8FD6181F849
:101E8000FC5101F5FE710369012B00D10A612207A3
:101E9000027C006803D005F0B9FA002070BD05F09F
:101EA000A3F9FAE770B50D464168044605F00F0046
:101EB000884201D9012070BD29064FF000064FF07D
:101EC000010207D5C0EBC00104EB810181F83D2080
:101ED0003C3107E0C5EBC50104EB810181F8FD61F0
:101EE00001F5FE718A70087094F8BC03012807D0D0
:101EF00084F8BC23206805F05DFA280702D007E0CB
:101F0000022070BD217C04F57172206805F0FAF999
:101F1000002084F8BC6370BD2DE9F04101F00F058D
:101F20000C460026C5EBC501012700EB81018A6440
:101F3000C1E9143681F83D7001F83C5F0369012B5B
:101F400000D10A612207027C006804D005F05EFA25
:101F50000020BDE8F08105F047F9F9E72DE9FC5FC5
:101F600005680446284605F096FB00287ED12068C7
:101F700005F0BDFB002879D0206805F0B8FB80078C
:101F800004D52068416901F002014161206805F033
:101F9000AEFBC10604F57170009035D520688169EB
:101FA00021F0100181612F6A07F00F01C7F3434050
:101FB000C1EBC101022804EB810606F5FE7602D0D2
:101FC000062812D01BE047F6F070074217D0C7F37F
:101FD0000A12F1681746284605F08DFBB169F068D2
:101FE0003944B1613844F06009E00099082228467C
:101FF00005F081FBB169C7F30A100844B06120689D
:10200000816941F010018161206805F070FB0003D7
:102010004FF001094FF0080B5BD52068002605F052
:1020200045FBDFF8A4A3074651E0F8074DD0206830
:10203000F1B205F054FB8046C00707D005EB46110E
:10204000C1F8089B3146204603F068F95FEA087042
:1020500022D505EB4611C1F808BB2068026C00EBE5
:10206000461001925245D0F8081B00E0A9E105D9BD
:10207000090403D54FF40041C0F8081B204600F0C6
:1020800097FA0199514507D92069012804D12068A0
:102090000121009A05F036F95FEAC86004D505EB26
:1020A00046111020C1F8080B5FEA886004D505EBE3
:1020B00046112020C1F8080B5FEA884005D505EBE2
:1020C00046114FF40050C1F8080B7F08761C002F12
:1020D000ABD1206805F00BFB40034FF0000A61D53F
:1020E000206805F0DCFA0026074659E0F80755D0CD
:1020F0002068F1B205F0E1FA8046C00724D0D5F897
:1021000034C806F00F0205EB461109FA02F02CEA7A
:10211000000CC5F834C8C1F80899206901280FD10E
:10212000C6EBC60004EB8000D0E9112111448164A4
:1021300036B9206D20B920680121009A05F0E2F837
:102140002046F1B2FFF7E8FD5FEA087003D505EB22
:102150004611C1F808B95FEAC86004D505EB46101E
:102160001021C0F808195FEA486004D505EB461154
:102170004020C1F808095FEA887008D53146284632
:1021800005F05CFA05EB46110220C1F808095FEA88
:10219000086003D53146204603F026F97F08761CF7
:1021A000002FA3D1206805F0A2FA002811DAD5F893
:1021B000040820F00100C5F8040894F8F40301288D
:1021C0003BD0204600F0D8F92068416901F0004179
:1021D0004161206805F08BFA00050BD5D5F8080899
:1021E000C00702D0204600F00BFA2068416901F4D4
:1021F00000614161206805F07AFA00010AD5206883
:10220000416901F00061416194F8F403E0B12046B6
:1022100000F0F6F9206805F06AFAC00470D5D5F828
:10222000040820F00100C5F804082068102105F01A
:1022300005FA00214FF67F322DE00021204684F878
:10224000F4A3FFF73DFDBFE784F8F4932068406DE9
:102250000121C0F38300C4F8F8032046FFF730FDE6
:10226000D8E700BF05EB4110C0F80829D0F80039C5
:1022700023F40013C0F80039C0F8082BD0F8003B55
:1022800023F40013C0F8003BD0F8003B43F0006398
:10229000C0F8003B491C60688842E3D8D5F81C08A8
:1022A00040F00110C5F81C08206B60B1D5F8840817
:1022B00040F00B00C5F88408D5F8440840F00B0046
:1022C000C5F844080CE0D5F8141842F22B0001437D
:1022D000C5F81418D5F8100840F00B00C5F8100820
:1022E000D5F8000820F4FE60C5F80008217C2068BD
:1022F000009A05F007F82068416901F480514161B6
:10230000206805F0F4F9800415D5206804F0B6FDC6
:10231000206805F0B3F9E06001F084FA227B014601
:10232000206805F049FA204600F010F9206841695C
:1023300001F400514161206805F0D9F9000707D583
:10234000204600F01DF92068416901F00801416153
:10235000206805F0CCF9C00208D50021204600F025
:1023600035F82068416901F480114161206805F069
:10237000BEF9800208D50021204600F02BF8206825
:10238000416901F400114161206805F0B0F9400095
:1023900007D52046FFF7BCFC2068416901F0804169
:1023A0004161206805F0A3F940070AD52068456817
:1023B000680702D52046FFF7C2FC20684168294320
:1023C0004160BDE8FC9F00000A30544FD0F804047F
:1023D00004F04CBAD0F8040404F058BA2DE9F041E6
:1023E00004008AB005D094F8BD030025266820B10A
:1023F00008E001200AB0BDE8F081204684F8BC5313
:1024000000F066F8032084F8BD03F06BC00500D42B
:102410002561206804F0E2FE04F1100168462822DC
:102420008846FEF740F894E80F0004F035FD0227D7
:10243000D8BB2068002105F07EF90020012610E0BD
:10244000C0EBC001421C04EB810181F83D6081F8C2
:102450003F504D648D640D6581F83C00A1F8420049
:10246000D0B261688142EBD8002011E0C0EBC0011E
:10247000421C04EB810181F8FD5181F8FF51C1F844
:102480000452C1F80852C1F8105281F8FC01D0B2D0
:1024900061688142EAD8282241466846FEF703F87F
:1024A00094E80F0004F0DEFD10B184F8BD73A0E7DE
:1024B000606A84F8385084F8BD63012802D1204650
:1024C000FFF7EAFB206804F0BFFD002092E7000060
:1024D00010B586B0044614216846FEF716F8184970
:1024E000206888422AD100F0CDF81648016841F0F2
:1024F0000201016000680C23022200F00200059036
:1025000000204FF4404100916946CDE90120CDE91A
:1025100003030D48FFF7F4F90A480838016841F051
:102520000071016000680022114600F00070059003
:102530004D20FFF77FFB4D20FFF76EFB06B010BD6F
:1025400000000440E04402580004025870B50446FC
:10255000C068012570B1022801D0FEF774F9D4F8E3
:102560000404294604F0FEF9D4F80404BDE87040E0
:1025700004F0B1B90025F2E7D0F8040404F0D8B9AA
:10258000D0F8040404F0DEB910B5044690F8BC039A
:1025900001280BD0012084F8381084F8BC0320688F
:1025A00005F0F8F8002084F8BC0310BD022010BD2F
:1025B000D0F8042400F57171104604F0DFB910B5AD
:1025C00090F8BC1304460068012906D0A26A0121D4
:1025D00084F8BC13012A02D008E0022010BDA169D2
:1025E000012903D0816B41F480318163206805F0BB
:1025F00001F8206804F01AFD002084F8BC0310BD27
:1026000010B50446D0F8040404F0FAF92068D0F8B4
:10261000001E41F00101C0F8001E206A002804D00D
:102620000248016841F00601016010BD10ED00E0B4
:10263000134970B50A68D243520705D5096801F0FD
:102640000701814213D118E00A6822F00702024311
:102650000A60FFF777FA0A4D4FF47A760446083D90
:1026600007E000BFFFF76EFA001BB04201D901205E
:1026700070BD2868C0438004F4D4002070BD000001
:102680000C4802580248016841F0807101607047AF
:102690000C48025810B501F0C5F805490968054A0B
:1026A000C1F30211515C01F01F01C84010BD0000D0
:1026B00020440258627900084A4930B5494C0B1D44
:1026C0000A680C3409681D68246802F0030305F0E9
:1026D0000102C1F30511C4F3CC04002914FB02F27A
:1026E00000EE102AF8EE400A76D0414A9FED3E1ADD
:1026F000DFED3E1AB7EE000A23B1012B5AD0022BB0
:1027000018D15CE0374C283C23689B0612D5394B26
:10271000246801EE901A1168C4F3C104F8EE612A2E
:10272000E34001EE903AC1F30801F8EE611A81EE40
:10273000A22A07E002EE101A1168F8EE422A81EE92
:10274000A22A45E001EE901A1168F8EE611A40EEF7
:10275000811A71EE800A62EE200AC1F3462101EE71
:10276000101AB8EE411A31EE001AC0EE811ABCEE12
:10277000E11A80ED001A1168C1F3064101EE101A4A
:10278000B8EE411A31EE001AC0EE811ABCEEE11A21
:1027900080ED011A1168C1F3066101EE101AB8EE5E
:1027A000411A31EE000A80EE801ABCEEC10A80EDBB
:1027B000020A30BD01EE901ADFED0F2A03E001EEB0
:1027C000901ADFED0E2A1168F8EE611A82EEA12A46
:1027D000C1F30801B6E7FFE70021016041608160B5
:1027E00030BD000028440258000000390024744C19
:1027F000304402580090D0030024744A0024F44A64
:10280000494930B5484C0B1D0A68143409681D68E5
:10281000246802F00303C5F30012C1F30531C4F3C9
:10282000CC04002914FB02F200EE102AF8EE400A54
:1028300075D03F4A9FED3D1AB7EE000A6BB1DFED50
:102840003D1A012B01D0022B64D002EE101A116840
:10285000F8EE422A81EEA22A21E0334C283C23687C
:102860009B0612D5344B246801EE901A1168C4F30C
:10287000C104F8EE612AE34001EE903AC1F3080189
:10288000F8EE611A81EEA22A0BE001EE901ADFED5C
:102890002B2A00BFF8EE611A116882EEA12AC1F35B
:1028A000080101EE901A1168F8EE611A40EE811AE3
:1028B00071EE800A62EE200AC1F3462101EE101A81
:1028C000B8EE411A31EE001AC0EE811ABCEEE11AE0
:1028D00080ED001A1168C1F3064101EE101AB8EE3E
:1028E000411A31EE001AC0EE811ABCEEE11A80EDF9
:1028F000011A1168C1F3066101EE101AB8EE411A0F
:1029000031EE000A80EE801ABCEEC10A80ED020AA8
:1029100030BD04E001EE901ADFED092ABAE700218C
:10292000016041608160F3E72844025800000039EB
:10293000384402580024744A0090D0030024744C98
:102940000024F44A494930B5484C0B1D0A681C3430
:1029500009681D68246802F00303C5F30022C1F36F
:102960000551C4F3CC04002914FB02F200EE102A36
:10297000F8EE400A75D03F4A9FED3D1AB7EE000AC7
:102980006BB1DFED3D1A012B01D0022B64D002EEBA
:10299000101A1168F8EE422A81EEA22A21E0334C87
:1029A000283C23689B0612D5344B246801EE901A0C
:1029B0001168C4F3C104F8EE612AE34001EE903AD5
:1029C000C1F30801F8EE611A81EEA22A0BE001EED4
:1029D000901ADFED2B2A00BFF8EE611A116882EE23
:1029E000A12AC1F3080101EE901A1168F8EE611AEC
:1029F00040EE811A71EE800A62EE200AC1F3462190
:102A000001EE101AB8EE411A31EE001AC0EE811A2A
:102A1000BCEEE11A80ED001A1168C1F3064101EE27
:102A2000101AB8EE411A31EE001AC0EE811ABCEE4F
:102A3000E11A80ED011A1168C1F3066101EE101A66
:102A4000B8EE411A31EE000A80EE801ABCEEC10ADF
:102A500080ED020A30BD04E001EE901ADFED092A94
:102A6000BAE70021016041608160F3E72844025821
:102A700000000039404402580024744A0090D003FA
:102A80000024744C0024F44A2DE9F04F954A4FF489
:102A90008079DFF84C824845934E89B09349A8F17C
:102AA00004054FF080574FEA22144FF0005C4FEAC4
:102AB000E2032ED1D8F8000000F00700052824D248
:102AC000DFE800F09DB58425AA0003A8FFF7F4FD18
:102AD000049809B0BDE8F08F6846FFF791FE0098B2
:102AE000F7E706A8FFF72EFF0698F2E70868C0F39D
:102AF000C10022FA00F0ECE70A68D2057ED5B842A0
:102B00007CD12046E5E71846E3E70020E1E73046C0
:102B1000DFE7B0F5007F1AD0DFF8D491B0F5806F11
:102B200026D0B0F5006F37D04FF4805A50454FF49F
:102B3000804B4FD1D8F8000000F4E040B0F5005FC2
:102B400044D03DDC00285AD05045DED16FE0D8F8A3
:102B5000000000F4E070802838D004DC00284ED05B
:102B60004028D2D163E0C028D1D04845CDD153E030
:102B7000D9F8000000F46000B0F5800F26D004DC26
:102B8000E8B3B0F5001FC0D151E0B0F5C00FBED022
:102B9000B0F5000FB9D13FE0D9F8000000F0E060D7
:102BA000B0F1007F12D004DC48B3B0F1807FACD12B
:102BB0003DE0B0F1407FAAD0B0F1806FA5D12BE00D
:102BC000B0F5405FA3D058459FD125E0086880004C
:102BD0009BD586E7B0F5002F4FF4803612D0B04277
:102BE00037D1286810F4803075D0B0428DD1086894
:102BF00000018AD56846FFF703FE01E023E06AE0A2
:102C0000029866E7D9F8000010F440300FD0B042C7
:102C100011D0B0F5003F98D128680D6800F0405001
:102C20006D077FF569AF00287FF466AF5EE708683F
:102C30000001CDD550E708688000C9D506A8FFF788
:102C400081FE089845E709688903C1D5604588D1A8
:102C500059E758452BD1D9F8000000F0E040B0F119
:102C6000405F1CD00CDC90B1B8422CD060458AD1BA
:102C700008688000ACD506A8FFF764FE079828E72F
:102C8000B0F1804F0FD0B0F1A04F90D11FE0FFF70F
:102C900001FD1EE76846FFF7B3FD019819E70868D4
:102CA000400795D522E70868C00591D529E7B0F51A
:102CB000004F89D1D8F8000010F0405007D0B8423A
:102CC00009D0604592D108680001E3D41DE7086887
:102CD0008003FBD517E708688001F7D5F5E600000B
:102CE000504402580090D0030080BB0000440258BA
:102CF000584402582DE9FC5F044650F8241B002577
:102D000000902E460801FE4FDFF8F8831DD5606E57
:102D100050B1B0F5801F0CD0B0F5001F0ED0B0F54B
:102D2000401F1DD001250FE0386840F400303860A6
:102D300016E00221201D02F0DDFB03E000980221D5
:102D400002F068FC05000BD02E462088C00523D574
:102D5000606D05281ED2DFE800F00C11161B1B0069
:102D6000626ED8F8001021F440111143C8F8001029
:102D7000EBE7386840F40030386009E00021201D9E
:102D800002F0B8FB03E00098002102F043FC054686
:102D90006DB100E001252E462088800528D5A06D64
:102DA00080281ED00CDC90B140280ED114E0626D5A
:102DB000D8F8001021F007011143C8F80010EBE724
:102DC000C02813D0B0F5807F10D001250FE03868FF
:102DD00040F40030386009E00021201D02F08AFB39
:102DE00003E00098002102F015FC054695B12E463F
:102DF0002088DFF81093400509F108092CD5D4F894
:102E0000A400B0F5800F20D00DDCA0B1B0F5001FFC
:102E10000FD115E0A26DD8F8001021F4E071114334
:102E2000C8F80010E4E7B0F5C00F13D0B0F5000FFC
:102E300010D001250FE0386840F40030386009E018
:102E40000021201D02F056FB03E00098002102F053
:102E5000E1FB054675B12E46208800052DD5D4F836
:102E6000A800B0F1007F21D00EDCA8B1B0F1807FC6
:102E700010D116E0D4F8A420D9F8001021F4600194
:102E80001143C9F80010E7E7B0F1407F13D0B0F16B
:102E9000806F10D001250FE0386840F400303860B2
:102EA00009E00021201D02F025FB03E0009800212D
:102EB00002F0B0FB05466DB12E46206880011FD59B
:102EC000A06CD8B110280FD0202812D0302815D0EF
:102ED000012514E0D4F8A820D9F8001021F0E06111
:102EE0001143C9F80010E8E7386840F40030386052
:102EF00004E00221201D02F0FDFA05466DB12E46C8
:102F00002088C0042BD5E06DB0F5005F20D00DDC2B
:102F1000A0B1B0F5805F0FD115E07A48A26C001F18
:102F2000016821F0300111430160E9E7B0F5405F2D
:102F300013D0B0F5804F10D001250FE0386840F471
:102F40000030386009E00021201D02F0D3FA03E0D0
:102F50000098002102F05EFB054685B12E462088D0
:102F6000800429D5206EB0F5403F23D010DC08B393
:102F7000B0F5803F14D0B0F5003F0FD115E0E26D01
:102F8000D8F8001021F4E0411143C8F80010E6E73A
:102F9000B0F5802F0ED0B0F5A02F0BD001250AE0A0
:102FA0000121201D02F0A6FA03E00098012102F0A1
:102FB00031FB05468DB12E46208840042AD5D4F831
:102FC000AC00B0F1405F23D010DC08B3B0F1805FFB
:102FD00014D0B0F1005F0FD115E0226ED8F80010C8
:102FE00021F4E0211143C8F80010E5E7B0F1804F6B
:102FF0000ED0B0F1A04F0BD001250AE00121201D19
:1030000002F078FA03E00098012102F003FB054684
:103010006DB12E46208800041FD5E06ED8B1B0F106
:10302000805F0ED0B0F1005F10D0012514E0D4F81D
:10303000AC20D9F8001021F0E0411143C9F800108C
:10304000E8E7386840F40030386004E00121201DD2
:1030500002F050FA05466DB12E462068C0011ED51B
:10306000606CD0B101280ED0022811D0032814D0F2
:10307000012513E0E26ED8F8001021F04051114311
:10308000C8F80010E9E7386840F40030386004E020
:103090000221201D02F02EFA054685B12E46206839
:1030A000DFF85CB04002ABF11C0B57D51648016845
:1030B00041F480710160FEF745FD82460EE0114843
:1030C000626C001F016821F0030111430160E6E713
:1030D000FEF738FDA0EB0A0064283DD80A480068D6
:1030E000C005F5D57DBBDFF81CA0B4F8B0200AF10F
:1030F000200ADAF8001002F4407001F4407105E093
:103100002C4402585044025800480258814211D0C1
:10311000DAF80010DAF8002021F4407142F480322D
:10312000CAF80020DAF8002022F48032CAF8002021
:10313000CAF80010D4F8B000B0F5807F21D1FEF7B6
:1031400001FD019019E008E0FEF7FCFC0199411A2D
:1031500041F28830814210D903252E462078DFF8CD
:1031600044A4C0073DD0A06F182838D026DC80B317
:10317000082829D0102825D12CE0DAF80000800793
:10318000E2D5D4F8B010C1F30120032858460DD081
:10319000016821F47C510160B4F8B020DAF8001025
:1031A000C2F30B021143CAF80010D7E7FE4A0368C6
:1031B00002EA111223F47C511143ECE720280ED0CF
:1031C00028280CD001250BE00121201D02F092F9E6
:1031D00004E004E00098012102F01CFA05465DB10C
:1031E0002E46207880071ED5606F062819D2DFE8AA
:1031F00000F0160C11161616A26FDAF8001021F066
:1032000038011143CAF80010EBE70121201D02F03C
:1032100071F903E00098012102F0FCF9054675B14F
:1032200000E001252E46207840071FD5D4F89000F5
:10323000062819D2DFE800F0160C11161616626F78
:10324000DAF8001021F007011143CAF80010EAE78C
:103250000121201D02F04EF903E00098012102F047
:10326000D9F905469DB100E001252E46207880065B
:103270002BD5D4F88C00B0F1405F24D011DC10B312
:10328000B0F1805F15D0B0F1005F10D116E0D4F836
:103290009020D9F8001021F007011143C9F800105F
:1032A000E4E7B0F1804F0ED0B0F1A04F0BD0012574
:1032B0000AE00021201D02F01DF903E00098022120
:1032C00002F0A8F905468DB12E46207840062BD590
:1032D000D4F89800B0F5406F24D011DC10B3B0F5ED
:1032E000806F15D0B0F5006F10D116E0D4F88C20A7
:1032F000DAF8001021F0E0411143CAF80010E4E7C9
:10330000B0F5805F0ED0B0F5A05F0BD001250AE0CC
:103310000021201D02F0EEF803E00098022102F0E7
:1033200079F905468DB12E46207800062BD5D4F8C4
:103330009C00B0F5C04F24D011DC10B3B0F5005F95
:1033400015D0B0F5804F10D116E0D4F89820D9F8F8
:10335000001021F4E0511143C9F80010E4E7B0F582
:10336000004F0ED0B0F5204F0BD001250AE0002110
:10337000201D02F0BFF803E00098022102F04AF994
:1033800005464DB12E46207800071ED5D4F88000A2
:10339000B0F5805F0AD00FE0D4F89C20D9F8001077
:1033A00021F460411143C9F80010ECE700980221B4
:1033B00002F030F900B10126D4F88020DAF80010CC
:1033C00021F440511143CAF800102078C00613D5EB
:1033D000D4F89400B0F5807F05D10098022102F066
:1033E00019F900B10126D4F89420D9F8001021F47D
:1033F00040711143C9F800102068000316D5D4F8B5
:10340000A00038B1B0F5803F09D0B0F5003F0BD037
:1034100001250AE00021201D02F06CF803E000986D
:10342000022102F0F7F8054685B12E4620684003D8
:1034300022D5D4F88400B0F5801F11D0B0F5001F5C
:1034400013D0B0F5401F15D0012514E0D4F8A0200A
:10345000D9F8001021F440311143C9F80010E5E714
:10346000386840F40030386004E00098012102F030
:10347000D1F8054655B12E462068C0031CD5E06C36
:1034800070B1B0F5803F10D0012514E0D4F884204D
:10349000DAF8001021F440111143CAF80010EBE7EC
:1034A000386840F40030386004E00221201D02F04A
:1034B00021F80546CDB12E462068800005D500983C
:1034C000022102F0A7F800B10126206880031BD575
:1034D000E06FB8B1B0F5807F10D0B0F5007F11D0AB
:1034E000B0F5407F0ED001250DE02E48E26C083883
:1034F000016821F4803111430160DDE7386840F450
:1035000000303860F5B32E462068C00207D5226F20
:10351000D8F8001021F000411143C8F800102068CD
:10352000C00008D5D4F8B420DBF8001021F48041A5
:103530001143CBF800102068800207D5A26ED8F89E
:10354000001021F080711143C8F80010206840007D
:103550000CD5DBF8001021F40041CBF80010DBF8AB
:103560000010D4F8B8201143CBF8001020680028D0
:1035700007DA0C48226D0838016821F040511143E8
:10358000016000E014E02068000208D5D4F888202B
:10359000DAF8001021F440011143CAF8001086B196
:1035A000012003E054440258CFFFFF00BDE8FC9F18
:1035B000E26FDAF8001021F440711143CAF80010EC
:1035C000A2E70020EDE700002DE9F05F04000F46C0
:1035D0007ED0DFF83882D8F8000000F00F00B84243
:1035E0000CD2D8F8001021F00F013943C8F80010B0
:1035F000D8F8000000F00F00B84269D12078844D5F
:1036000040070AD52069296801F07001884204D971
:10361000296821F070010143296020787C4E361D15
:1036200000070AD56069316801F07001884204D949
:10363000316821F07001014331602078C0060AD55D
:10364000A069316801F4E061884204D9316821F44D
:10365000E061014331602078DFF8B4B180060BF1FE
:10366000080B0CD5E1695846DBF8002002F0700227
:10367000914204D9026822F070020A430260207865
:1036800080070AD5E068296801F00F01884204D953
:10369000296821F00F01014329602078C0073ED03E
:1036A0005B49A2682868183920F4706010432860CC
:1036B0006068022818D0032819D00968012819D099
:1036C000490700294ADADFF848A1AAF1080A00E010
:1036D00044E0DAF8002022F007020243CAF8002092
:1036E000FEF730FA814612E009688903E9E70968C4
:1036F0008901E6E7C905E4E7FEF724FAA0EB090132
:1037000041F28830814202D90320BDE8F09F616810
:10371000DAF8000000F03800B0EBC10FECD12078EF
:1037200080070AD5E068296801F00F01884204D2B9
:10373000296821F00F0101432960D8F800104046A4
:1037400001F00F01B9420BD9016821F00F01394393
:103750000160006800F00F00B84201D00120D4E7FA
:10376000207840070AD52069296801F07001884255
:1037700004D2296821F070010143296020780007F4
:103780000AD56069316801F07001884204D231685D
:1037900021F07001014331602078C0060AD5A0698C
:1037A000316801F4E061884204D2316821F4E061BB
:1037B00001433160207880060CD5E1695846DBF87A
:1037C000002002F07002914204D2026822F07002DE
:1037D0000A43026000F06CF80E492A682B68C2F3B5
:1037E000032203F00F038A5CC95C02F01F0201F0A0
:1037F0001F01D040084A20FA01F111600749086012
:1038000007480068BDE8F05FFEF7D8B90020005215
:10381000184402586279000818000024140000249B
:103820000C00002430B500F043F80B4A0B490C4B58
:1038300015681468C5F3032204F00F048A5C095D5F
:1038400002F01F0201F01F01D040064A20FA01F1E8
:1038500019601060084630BD1844025862790008AB
:10386000180000241400002400B5FFF7DBFF054911
:103870000968054AC1F30211515C01F01F01C840FB
:1038800000BD00001C4402586279000800B5FFF733
:10389000C9FF05490968054AC1F30221515C01F0DD
:1038A0001F01C84000BD00001C4402586279000896
:1038B000454970B545480968434B103B11F0380243
:1038C00008D00111082A03D0102A0BD0182A0BD0D7
:1038D000084670BD19688906FBD51968C1F3C10196
:1038E000C84070BD3A4870BD3749374D18310C1D7E
:1038F00024350A68096826682D6802F0030406F07A
:103900000102C1F30511C5F3CC0515FB02F200EE6F
:10391000102AB8EE400AE9B32F4ADFED2E0AB7EEBF
:10392000001A6CB1DFED2D1A012C01D0022C43D00E
:1039300002EE101A1068F8EE422A81EEA22A1EE06A
:103940001C68A40611D51B6801EE901A1168C3F318
:10395000C103F8EE612AD84001EE900AC1F30800D5
:10396000F8EE611A81EEA22A0BE001EE901ADFED6B
:103970001C2A00BFF8EE611A106882EEA12AC0F37B
:10398000080001EE900AF8EE611A40EE201A31EEBE
:10399000810A00E015E022EE000A1068C0F346201C
:1039A000401C00EE900AF8EE600A80EE201ABCEE91
:1039B000C10A10EE100A70BD01EE901ADFED092A5F
:1039C000D8E7002070BD0000104402580090D003DA
:1039D00000127A0000000039304402580024744A72
:1039E0000024744C0024F44A2DE9F05F04007DD0DB
:1039F000FF4F2078FE4D1837DFF8F493103DC007D5
:103A000048D0D9F80000396800F03800102815D0E7
:103A1000182803D101F0030002280FD06068B0F528
:103A2000803F12D010B1B0F5A02F18D0286820F434
:103A300080302860286820F4802009E0286880030E
:103A400028D560680028D2D024E0286840F480306F
:103A50002860606888B1FEF775F8064609E02868B6
:103A600040F480202860F0E7FEF76CF8801B6428A3
:103A70006FD828688003F7D50CE0FEF763F8064698
:103A800005E000BFFEF75EF8801B6428F0D82868C8
:103A90008003F7D4207841F20308D54E0C3E80070E
:103AA00069D5D9F80000396810F038000ED0182810
:103AB00001D188070AD0E06890B3296821F0190184
:103AC00001432960FEF73EF8824631E0286840074E
:103AD00002D5E06800288AD0E168286820F0190043
:103AE00008432860FEF72EF8824607E0DFE000BFBB
:103AF000FEF728F8A0EB0A000228B9D8286840078A
:103B0000F6D500BFFEF718F840451BD820694028BD
:103B100012D0316821F47C3141EA003030602AE073
:103B200018E000BFFEF70EF8A0EB0A0002289FD8AD
:103B300028684007F6D5E5E7306820F47C3040F48B
:103B40000030EBE7207C316821F0FE4141EA006063
:103B5000E4E70DE1286820F001002860FDF7F2FF9E
:103B6000824605E0FDF7EEFFA0EB0A0002288DD8A3
:103B700028684007F6D42078C0065DD5D9F8000043
:103B8000DFF86CB2396800F03800ABF1040B08289C
:103B900010D0182803D101F0030001280AD0E069F1
:103BA0000028286838D040F080002860FDF7CAFF60
:103BB000824623E02868C00523D5E069802876D1B5
:103BC0001FE0206A202821D0316821F0F84141EA25
:103BD0008060306030E000BF94F82010DBF80020F7
:103BE00022F07C5242EA0161CBF8001024E000BFD1
:103BF000FDF7A8FFA0EB0A00022898D82868C005A6
:103C0000F6D5FDF799FF4045E6D8DAE7306820F0B1
:103C1000F84040F08040DCE720F080002860FDF7AD
:103C200091FF064605E000BFFDF78CFF801B0228D0
:103C30009DD82868C005F7D42078000729D56C489E
:103C40006169643000298046016811D041F00101AA
:103C50000160FDF777FF064605E000BFFDF772FF44
:103C6000801B0228C9D8D8F800008007F6D510E0DC
:103C700021F001010160FDF765FF064605E000BF88
:103C8000FDF760FF801B022872D8D8F8000080077B
:103C9000F6D42078800623D5A0690028286810D0A3
:103CA00040F480502860FDF74DFF064605E02CE10A
:103CB000FDF748FF801B02285AD828688004F7D5F2
:103CC0000EE020F480502860FDF73CFF064604E03B
:103CD000FDF738FF801B02284AD828688004F7D4F3
:103CE000207840074FD5DFF80C81D8F8001041F458
:103CF0008071C8F80010FDF725FF064605E000BFFB
:103D0000FDF720FF801B642832D8D8F80000C005DA
:103D1000F6D5374EA068603601280AD008B10528CC
:103D200013D0306820F001003060306820F00400CB
:103D300002E0306840F001003060A06841F2883A4B
:103D400090B1FDF7FFFE80460AE0306840F00400C5
:103D50003060EEE7FDF7F6FEA0EB0801514507D80D
:103D600030688007F6D50EE0FDF7ECFE804607E0F0
:103D700084E000BFFDF7E6FEA0EB080151457DD8C9
:103D800030688007F6D4606AB0B3DFF86480D9F891
:103D9000001008F12008C1F3C20103296FD00228E6
:103DA000286820F08070286003D0FDF7CBFE044621
:103DB00080E0FDF7C7FE064605E000BFFDF7C2FE46
:103DC000801B022873D828688001F7D4E26A40F289
:103DD000F331386854F8283F884340EA021018430A
:103DE0003860217B4FF4FE0C22894FF0FE4704E03F
:103DF000104402580048025889E0208A4902521EA5
:103E0000267DA1F5007189B2401EC2F3080211435C
:103E1000761E0CEA004001433E4807EA0662114361
:103E20003C4AC8F800100832016821F00101016025
:103E300011684FF6F876236AB14341EAC301116075
:103E40000168A26921F00C01114301600168E26977
:103E500021F0020111430160016841F480310160E9
:103E6000016841F400310160016841F48021016082
:103E7000016841F001010160286801E017E01DE0E0
:103E800040F080702860FDF75DFE044605E000BF4D
:103E9000FDF758FE001B022809D828688001F7D5D5
:103EA00035E000BFFDF74EFE001B022802D90320BB
:103EB000BDE8F09F28688001F4D428E03968012823
:103EC000D8F8000021D0A26A01F0030393421CD16C
:103ED000E26AC1F305118A4217D1216BC0F30802CF
:103EE000491E8A4211D1616BC0F34622491E91429C
:103EF0000BD1A16BC0F30642491E914205D1E16B83
:103F0000C0F30660491E814201D00120D0E70020A5
:103F1000CEE700002C4402582DE9F041044690F809
:103F20009000002501280FD0012684F890602068B9
:103F30000168890333D5016821F40031016094F8E8
:103F40009100122803D014E00220BDE8F081D4F8DB
:103F5000800070B1FCF77AFC58B1D4F88000406D55
:103F6000802806D0D4F89400012540F08000C4F8E1
:103F7000940094F89100222811D1D4F8840070B1F3
:103F8000FCF764FC58B1D4F88400406D802806D05A
:103F9000D4F89400012540F08000C4F89400216812
:103FA0000027781E0F6121688861204601F0EAFB36
:103FB00000B101252068416841F00801416084F8A2
:103FC0009160284684F89070BFE770472DE9F04172
:103FD000044690F89100002874D020684269016975
:103FE0000368150707D50D0705D5D4F88C102046B2
:103FF000BDE8F0410847D5074FF0010610D0CD07C6
:104000000ED0866194F89100222807D05FF002005C
:10401000D4F894100143C4F8941079E00120F7E734
:1040200095070AD58D0708D502218161D4F888004B
:10403000002870D0BDE8F0410047384D970631D5D3
:104040008F062FD5202181619A03D4F89400002A8D
:1040500040F0040032E000BFD4F8800070B1056584
:10406000D4F88000FCF7A2FD40B1D4F8940040F0F1
:104070008000C4F894002046FFF7A7FFD4F884001E
:10408000002848D00565D4F88400FCF78FFD00288F
:1040900041D0D4F8940040F0800037E02046FFF78C
:1040A0003BFF35E057060ED54F060CD54021816108
:1040B0009A03D4F89400002A40F00800C4F8940051
:1040C000ECDAC9E727E0570716D54F0714D50421C6
:1040D00081619A03D4F8940040F02000C4F8940061
:1040E000BAD422680020411E10612268916184F8D0
:1040F0009160A4F87E000BE0D2060CD5C9060AD563
:1041000010218161D4F8940040F01000C4F89400AC
:104110002046FFF75AFFBDE8F08100004157000834
:104120002DE9F05F040049D0FDF706FD94F8380052
:10413000CD49DFF838A3012809D12068884201D091
:1041400050453BD16068012838D1606CB0BBDFF8C6
:1041500018838B46206808F12008584501D0404557
:1041600002D1C148001F1BE0C149884203D0C049A9
:104170002031884202D1BE48001F11E0BD4988426B
:1041800003D0BC492031884202D1BA48001F07E061
:10419000504503D0B549203188420FD1B348001FA4
:1041A000814694F8910028B9002084F890002046B8
:1041B00000F068F9204601F0E5FA10B10120BDE8F1
:1041C000F09FE068022184F8911020B101280CD002
:1041D00002280CD00020A1684FF40066062908D2FE
:1041E000DFE801F007090C66696C1020F3E7202076
:1041F000F1E7002503E04FF4806500E03546C9F89B
:104200000000206A4FF40077F0B321680020594580
:1042100001D0414503D14FF48070FEF735FC944A3C
:104220002168914203D0924A2032914202D138460D
:10423000FEF72AFC8F4A2168914203D08D4A203232
:10424000914202D13846FEF71FFC2268524503D145
:104250004FF48060FEF718FC8449226820318A42BE
:1042600002D13046FEF710FCA169B1F5002F28D02D
:10427000A16AB1F1806F38D05FF00101226A00EBD2
:1042800080004A43400000E033E01102B0FBF1F04F
:104290000A22B0FBF2F3B0FBF2F1616202FB130001
:1042A000082801D9491C6162606C04281FD020E0F5
:1042B00040F00100A2E740F002009FE740F0030059
:1042C0009CE7616C04290BD008290BD0D4F854105A
:1042D00000EB8000226A4A434000B0FBF2F0D7E7CF
:1042E0004021F5E74FF48071F2E70221C6E7480864
:1042F0006062606878B302282ED0206D012800D05B
:104300000027FDF719FCB0F5005F206828D35A4A52
:10431000016811400160D4E911316068D4F84CC0E3
:10432000184341EA0C01B4F824C00843216838431B
:10433000D4E90536D4E90A82284325698E460968FE
:1043400010431843304340EA0C5040EA0800284329
:104350000843714621E0FFE7206D0128D0D0D0E767
:10436000464A016811400160D4E911626068E16C5D
:104370003043B4F824800A431043D4E9056CD4E9EF
:104380000A232168384328430D681843304340EA24
:104390000C0040EA085010432843086020686FF082
:1043A000FF01374A4EF20F064FF220074568B5432A
:1043B00045602068D4F81CC0266B456845EA0C05AA
:1043C000D4F834C046EA0C06354345602068856859
:1043D00015408560D4E91850D4E916C2666D1043C3
:1043E0002268761E35432843956801EB0C2630433E
:1043F0002843906054F8680BC2683A40C26094E861
:10440000C100A58954F8682D01EB072141EA054157
:104410003043D56808432843D0602068584501D010
:10442000504518D1D9F8440020F00101C9F84410D2
:1044300094F8380001280ED1D4E90F106FF00F0264
:1044400002EB01110843C9F84400D9F8440040F0D8
:104450000101C9F844100020C4F89400012184F837
:10446000911084F89000AAE60458014004540058C2
:10447000045C01400460014010C005F010C005F864
:104480000080F8FFF0B523490646006887B08842EF
:104490003ED1214C206880B92048016841F4800158
:1044A000016000680022012100F48000059057207F
:1044B000FDF7C0FB5720FDF7AFFB206800257021FA
:1044C0000222401C2060062315488DE82600CDE915
:1044D00003536946FDF714FA124C572112484FF462
:1044E000807C021584E823001701C4E90352831479
:1044F0002046C4E907C56562C4E90537FDF70CF835
:1045000008B1FCF7A0F9C6F88440A663C6F880405D
:1045100007B0F0BD0458014004000024F0440258E4
:10452000001002582C020024280402402DE9F04714
:10453000040029D0504A4FF0000920684F4B504DDD
:104540009042C4F8289006D0984204D0A84202D0E5
:10455000E1680F2918D8E1684FF0010AE76B0831CC
:10456000C9080AEB57167143904205D0984203D010
:10457000A84201D0082907D8904203D0984201D020
:10458000A84204D1102902D90120BDE8F08794F88F
:10459000810020B9204684F8809000F073F8022052
:1045A00084F881002068016821F001010160216820
:1045B000A0698A68B0F1806F02F4F81010D16268C7
:1045C000B2F5800F01D01AB10AE0A26B22B107E068
:1045D000A26BB2F1805F03D10A6842F480520A6094
:1045E000A66AE169E26B25683143E368024311433F
:1045F0001943A960D4E90D02D4E90571636A2569FC
:104600001843D4F820C00A43266810432843A56DF8
:104610003843D4E90182D4E9123140EA0C0040EA7F
:1046200008000843104318432843F060606868B9E5
:104630002068816821F4C05141F4006181602068E4
:10464000816821F4C06141F4806181602068016D5E
:1046500021F0010101656068400206D52068626DA5
:10466000C16821F000411143C160C4F8849084F80E
:1046700081A0002089E700000030014000380040A0
:10468000003C00402DE9F04186B005461421684603
:10469000FBF73BFF2A680024514802254F490526B5
:1046A00082422AD14D481030026842F480520260A2
:1046B000006800F480500590086840F00800086029
:1046C000086800F008000590086840F040000860A5
:1046D0000868694600F04000059080200090CDE910
:1046E00001544048CDE90346FDF70AF970020090F5
:1046F0003D486946CDE901542DE038483B4B3C4FDD
:1047000008309A422ED1026842F48042026000686A
:1047100000F480400590086840F0010008600868D7
:1047200000F001000590086840F480700860086897
:10473000694600F48070059098140090CDE901540A
:10474000CDE903463846FDF7DBF804200090294800
:104750006946CDE90154CDE90346FDF7D1F806B02D
:10476000BDE8F081244B9A42F9D1026842F400423C
:104770000260006800F400400590086840F0020004
:104780000860086800F002000590086840F0010029
:10479000086008680721DFF8648000F001000590D8
:1047A00020200090CDE90154CDE9034169464046FF
:1047B000FDF7A6F80626694618200090CDE90154B9
:1047C000CDE903464046FDF79BF84FF400400090CA
:1047D000CDE9015469463846BDE70000E04402587F
:1047E00000300140000C0258001802580038004008
:1047F0000000025800200258003C0040000402580B
:10480000401EB0F1807F10B501D3012010BD4FF0E4
:10481000E02460610F21601703F057F80020A061C9
:104820000721216110BD704770477047F0B590F8BF
:104830003C20012A3BD01F4E012480F83C4002223C
:1048400080F83D2002681C4D5368B242D2F808C07F
:1048500001D0AA4203D14F6823F470033B430F6891
:1048600023F070031F4357600268B24213D0B2F1C5
:10487000804F10D0114B9A420DD0114B9A420AD062
:10488000104B9A4207D0AA4205D00F4B9A4202D051
:104890000E4B9A4204D189682CF080031943916031
:1048A000002180F83D4080F83C100846F0BD022011
:1048B000F0BD000000000140000401400004004081
:1048C00000080040000C004000180040004001407B
:1048D00010B5040003D094F83D0010B107E00120AA
:1048E00010BD002084F83C00204600F023F8022090
:1048F00084F83D002068211D01F03CF8012084F877
:10490000480084F83E0084F83F0084F8400084F8B2
:10491000410084F8420084F8430084F8440084F89D
:10492000450084F8460084F8470084F83D000020E4
:1049300010BD000008B500680B49884212D10B4831
:10494000016841F480310160006800220A2100F40E
:10495000803000907420FDF76DF9BDE808407420A8
:10496000FDF75AB908BD000000400140F04402586C
:1049700090F83D10012901D001207047174A02210B
:1049800080F83D100168CB6843F00103CB600068FC
:10499000904214D0B0F1804F11D0114988420ED00E
:1049A000104988420BD01049884208D00F498842EC
:1049B00005D00F49884202D00E49884207D181684C
:1049C0000D4A1140062906D0B1F5803F03D0016899
:1049D00041F001010160002070470000000001402B
:1049E0000004004000080040000C004000040140AA
:1049F00000180040004001400700010070B5044667
:104A000090F83C000025012814D03A4B012684F888
:104A10003C60022084F83D0022689068184020F431
:104A20007F409060086870282FD010DC10F00F0FC6
:104A300003D022E04FF0020070BD4FEA2012072A97
:104A40001BD2DFE802F0535353534B394100B0F10E
:104A5000101F4BD009DCB0F5805F0FD0B0F5005FC0
:104A60001ED0B0F5801F08D140E0A0F5801120399C
:104A70003CD010293AD0202938D0012584F83D6057
:104A8000002084F83C00284670BD4A682068D1E9BF
:104A9000021300F0D1FF2068816841F0770109E03E
:104AA0004A682068D1E9021300F0C6FF20688168D7
:104AB00041F480418160E1E7CA684968206800F0FC
:104AC000CFFF2068502106E0CA684968206800F0DE
:104AD000D8FF2068602100F0B9FFCFE7CA684968B5
:104AE000206800F0BDFF20684021F4E722680146FD
:104AF0001046F0E788FFCEFF704770B504460068A7
:104B000000250169C943890715D4C168C9438907CC
:104B100011D4EA1E02610121217720688069800793
:104B2000204602D0FFF7E8FF04E000F0A7F8204697
:104B300000F0A5F8257720680169C943490717D413
:104B4000C168C943490713D402216FF0040202610E
:104B500021772068806910F4407F204602D0FFF75B
:104B6000CBFF04E000F08AF8204600F088F82577B3
:104B700020680169C943090716D4C168C9430907F8
:104B800012D404216FF00802026121772068C06905
:104B90008007204602D0FFF7AFFF04E000F06EF878
:104BA000204600F06CF8257720680169C943C906E2
:104BB00017D4C168C943C90613D408216FF0100285
:104BC000026121772068C06910F4407F204602D03E
:104BD000FFF792FF04E000F051F8204600F04FF894
:104BE000257720680169C943C90708D1C168C9434D
:104BF000C90704D1891E0161204600F041F82068F0
:104C00000169C943090609D4C168C943090605D425
:104C10006FF0800101612046FFF706FE2068016900
:104C2000C943C90509D4C168C943090605D46FF44D
:104C3000807101612046FFF7F6FD20680169C943D4
:104C4000490609D4C168C943490605D46FF040013B
:104C50000161204600F01EF820680169C9438906F9
:104C60000BD4C168C943890607D46FF020010161E4
:104C70002046BDE87040FFF7D8BD70BD7047704753
:104C800000680349884201D100F004B97047000070
:104C900000400140704730B590F88010012918D0CD
:104CA000012280F880202421C0F8841000222024D2
:104CB00050F8641B0B680D6823F0005325F00105C4
:104CC0000D60026050F8641C0B60046202771046AD
:104CD00030BD022030BD70B5044690F88000012838
:104CE0001DD0012284F880202420C4F8840020688C
:104CF0000568026822F0010202602068826822F0E2
:104D000060620A438260204600F0CEFE22682021C5
:104D100000201560C4F8841084F8800070BD022063
:104D200070BD70B5044690F8800001281DD00122A6
:104D300084F880202420C4F8840020680568026874
:104D400022F0010202602068826822F060420A4379
:104D50008260204600F0A8FE226820210020156015
:104D6000C4F8841084F8800070BD022070BD10B5B6
:104D7000040003D0D4F8840010B107E0012010BD76
:104D8000002084F88000204600F026F82420C4F893
:104D900084002068016821F001010160204600F0D4
:104DA00039FF0128EBD0A06A10B1204600F09EFE2A
:104DB0002068416821F4904141602068816821F0B9
:104DC0002A0181602068016841F0010101602046EC
:104DD000BDE8104000F0EEBE30B5B5B00446142179
:104DE0002FA8FBF792FBBC216846FBF78EFB174907
:104DF0002068884228D102256846002400951D9429
:104E0000FDF778FF08B1FBF71EFD1148016841F47A
:104E100080210160006800F4802034900C4808383C
:104E2000016841F00801016000680721CDE93054B4
:104E300000F008003490CDE932414FF440702F90DB
:104E400004482FA9FCF75CFD35B030BD0048004098
:104E5000E8440258000C0258FEE70000F0B50023B9
:104E60000A251C463026372711E000BFB5EB107F1E
:104E700002D906EB107C01E007EB107C01F813C0AF
:104E800001EB430C00015B1C8CF80140DBB2934248
:104E9000ECD3F0BD0A490888401C82B20948012AB7
:104EA0000A8007D0322A07D0B2F57A7F01D10020DC
:104EB00008807047002200E001220821FCF736BE7E
:104EC0000000002400000258094808B5016841F0BC
:104ED0000201016000680022114600F0020000900B
:104EE0003920FCF7A7FEBDE808403920FCF794BE46
:104EF000D84402582DE9F04F87B014216846FBF7DB
:104F000004FB5348016841F002010160016801F0AF
:104F100002010591016841F040010160016801F062
:104F200040010591016841F008010160016801F04C
:104F300008010591016841F004010160016801F078
:104F400004010591016841F001010160016801F06F
:104F500001010591016841F010010160016801F053
:104F600010010591016841F480710160016801F44C
:104F700080710591016841F08001016000684FF483
:104F8000C846344F002200F0800031460590384674
:104F9000FCF7CCFDDFF8C0900022C0214846FCF7AA
:104FA000C5FDDFF8B8A040F608780022414650461B
:104FB000FCF7BCFDDFF8A8B00022C0215846FCF782
:104FC000B5FD284800228021FCF7B0FD00240096A2
:104FD000012569463846CDE901540394FCF790FC5D
:104FE000C0260096CDE90154694648460394FCF773
:104FF00087FC4FF48817694640200294CDE90007EA
:105000001948FCF77DFCCDF800806946CDE90154D4
:1050100050460394FCF774FC00966946CDE90154B0
:1050200058460394FCF76CFC00956946CDE9017481
:105030005046FCF765FC80200090CDE901540948FA
:1050400069460394FCF75CFC07B0BDE8F08F0000F4
:10505000E0440258001802580004025800000258A8
:105060000008025800100258000C0258194801228A
:1050700070B5E024164E002106600325C0E9111426
:10508000C0E91312C0E9015141611024C160042339
:10509000C3611502C1628026C0E90C1480F8381083
:1050A0004FF6FF744665C0E90F25C0E91621016679
:1050B000416681666C3080E81A006C38FFF730F882
:1050C000002803D0BDE87040FBF7BDBB70BD0000F9
:1050D000045801409401002470B5154807224FF48C
:1050E0008005124E00212C01C0E902120161330437
:1050F000C0E90514C0E90731416222018162C16241
:10510000C0E90D21C163016441648164C16401652A
:1051100041658165C0E90065FFF708FA002803D002
:10512000BDE87040FBF78FBB70BD00000030014050
:10513000A40200241448002170B54FF4C024114D7E
:105140004FF0806205600323C0E90114C0E9033118
:10515000C0E90512016241628162C16241638163FB
:10516000C163016441648164C16401654165816515
:10517000FFF7DCF9002803D0BDE87040FBF763BB04
:1051800070BD0000003800402C03002414480322A6
:1051900010B50021114C4FF48003C0E902120161E7
:1051A0001A0241618161C161016241628162C16231
:1051B000C0E90D21C163016441648164C16401657A
:1051C00041658165C0E90043FFF7B0F9002803D0CD
:1051D000BDE81040FBF737BB10BD0000003C0040AD
:1051E000B403002430B587B0184800241649EF22D4
:1051F00040F2E733009480250194029403940494D0
:105200000594069480E81600C0E90334C0E905451A
:10521000FFF75EFB08B1FBF716FB4FF480500090E0
:105220000A486946FFF7EAFB08B1FBF70CFB0748A1
:1052300004A904940694FFF7F9FA002801D0FBF7BB
:1052400002FB07B030BD0000004001403C040024D8
:105250001848002110B5164C0C224FF4E1330460BD
:10526000C0E90131C160C0E904128161C16101621C
:1052700041628162FFF77BFD08B1FBF7E4FA0D485C
:105280000021FFF74EFD08B1FBF7DDFA09480021C8
:10529000FFF721FD08B1FBF7D6FA0648FFF7FBFC44
:1052A000002803D0BDE81040FBF7CDBA10BD0000C8
:1052B000004800408804002410490122104810B51D
:1052C00001F0CCF908B1FBF7BEFA0E490C4801F029
:1052D000BEFB08B1FBF7B7FA0B49094800F0D3FF52
:1052E00008B1FBF7B0FA064801F02CFC08B1FBF757
:1052F000AAFABDE81040FDF7C5B900001C00002463
:10530000180500245C0100246C000024FEE7FEE781
:105310000148FCF723BE0000081C00242DE9F041E1
:10532000044600690D462027236801284FF40046F3
:1053300004F5717203EB4511D3F840C0D1F8080BA6
:1053400009D0DFF89CE0F4453AD1020433D500BF20
:10535000C1F8086B40E0234B5FEA007E04D59C4512
:105360003AD90004F4D437E05FEA806E02D5C1F880
:10537000087B31E010F0280F2ED19C4501D90004A4
:10538000E6D4D1F8103BC5EBC50004EB8000C3F3B5
:105390001203D0F80412A1EB0303C0F81432D0F8C2
:1053A00008321944C0F8081295B9D4F8100278B937
:1053B000206801210AE080060AD5C1F8087B07E0D1
:1053C00035B9D4F8100218B90021184601F09AFF37
:1053D0002046E9B2FCF7A9FC0020BDE8F0810000FE
:1053E0000A31544F0A30544F2DE9F84F0E460568E4
:1053F0008146C1EBC60100EB8104D4E914203C34A2
:10540000904202D90120BDE8F88FA168101A8142AC
:1054100000D20846C01C05EB461887081BE000BFF9
:10542000A268A0EB010A524500D2924699F81010EA
:105430000AF1030000911FFA8AF3E1688708284601
:10544000F2B202F02DFAE16801EB0A00E060A16916
:1054500001EB0A00A061D8F8180980B2B84205D360
:10546000D4E90501814201D20028D9D1D4E905014E
:10547000884208D8D5F83418012006F00F02904071
:105480008143C5F834180020BDE77047F0B5AFB0D0
:10549000BC216846FBF739F8154D08220095C02558
:1054A00078240220049001260196CDE902420DF1F4
:1054B000200CCDE905050021079104234FF48274E7
:1054C0008CE81A0045020B93CDE90C20C60210911E
:1054D00007052197CDE90E51179615906846FDF7FF
:1054E00009FC002801D072B6FEE72FB0F0BD000025
:1054F000001104002DE9F047454D044689464FF060
:10550000000A2868C04380070AD0414E283E306810
:1055100020F080603060FCF715FB0746B04608E0DD
:105520000120BDE8F08700BFFCF70CFBC01B022880
:1055300067D8D8F800000001F6D4206829684FF435
:10554000FE0721F47C313E0241EA00302860207AD7
:10555000A389B4F804C040022D4D2D495B1E227C66
:10556000ACF1010C1035091DA0F5007080B2521E7F
:10557000CCF3080C07EA034340EA0C00184306EAA0
:105580000262104328600868626920F0C00010437E
:1055900008600A68A06922F0200202430A60281D00
:1055A0000A6822F010020A6002684FF6F873E46994
:1055B0009A4342EAC40202600868B9F1000F40F061
:1055C00010020A6011D00868B9F1010F11D040F43F
:1055D00000100860D8F80000444640F08060C8F829
:1055E0000000FCF7AFFA05460DE0086840F4002023
:1055F000EFE740F48010ECE7FCF7A4FA401B022828
:1056000001D903208DE720680001F5D5504688E7D1
:10561000284402582DE9F047454D044689464FF08D
:10562000000A2868C04380070AD0414E283E3068EF
:1056300020F080503060FCF785FA0746B04608E05D
:105640000120BDE8F08700BFFCF77CFAC01B0228F0
:1056500067D8D8F800008000F6D4208829684FF475
:10566000FE0721F07C713E0241EA00502860207A5A
:10567000A389B4F804C040022D4D2D495B1E227C45
:10568000ACF1010C1835091DA0F5007080B2521E56
:10569000CCF3080C07EA034340EA0C00184306EA7F
:1056A0000262104328600868626920F44060104379
:1056B00008600A68A06922F4007202430A60281D8B
:1056C0000A6822F480720A6002684FF6F873E4698F
:1056D0009A4342EAC40202600868B9F1000F40F43C
:1056E00080720A6011D00868B9F1010F11D040F042
:1056F00080700860D8F80000444640F08050C8F838
:105700000000FCF71FFA05460DE0086840F4800031
:10571000EFE740F40000ECE7FCF714FA401B022826
:1057200001D903208DE720688000F5D5504688E731
:10573000284402580148FEF749BC000094010024A7
:1057400070B5846B0025691E2068026822F400325F
:1057500002602068056120688161D4F894002028E7
:1057600007D0204600F00EF82068416841F008019B
:105770004160012084F891002046A4F87E50FEF795
:1057800024FC70BD30B50E4A41F6583301681468E8
:1057900000220D68B4FBF3F325F480340C6099000B
:1057A00031B103681B68491EDB03F9D4104630BDD4
:1057B000D0F89410032241F04001C0F89410F5E7AE
:1057C0001400002470470178407841EA00207047B7
:1057D000FCF7BEB9F0B59DB04C216846FAF795FECE
:1057E000202113A8FAF791FE0220FCF721FF24489C
:1057F00000242449026842F44042026002680A68B8
:1058000042F001020A60096801F001011B91016880
:105810008904FCD51C4901220B6802207826C503A7
:1058200023F003039B1C0B60CDE900250AAD099012
:105830000C27042185E845000DAA12940523CDE923
:10584000107482E80B006846FEF7CEF808B172B615
:10585000FEE740201A9008230501CDE9163013AB6E
:10586000CDE918053F21032283E81600042113A87F
:10587000FDF7AAFE002801D072B6FEE71DB0F0BD0C
:10588000184802582C040058284402582C48F0B5F7
:105890002C4A016841F470010160106800F00F00AB
:1058A000072804D2106820F00F00C01D10602649A0
:1058B0000020254C10340B68244D43F001030B608D
:1058C00020600B682B400B60136803F00F03072B5D
:1058D00004D9136823F00F03DB1D13601A4C1C4A14
:1058E00018341C4B261D371D2060174C1A4D2834C8
:1058F0003060261D3860371D23603B1D35601C1D40
:105900003A60251D2E1D1860331D2260286032600C
:1059100018600A680C4B114C22F4802260330A6034
:10592000186020686FF30F00B0F1005F03D20C49DC
:105930000120C1F8080143F2D2000A490860F0BD15
:1059400088ED00E000200052004402587FEDF6EAA6
:1059500080020101000202020000FF010010005C51
:1059600000800051004000520148FFF7C6B8000017
:105970003C0400242DE9F047274B4FF0804A274D87
:1059800002689842264E274F274C09D0504507D031
:10599000A84205D0B04203D0B84201D0A04205D100
:1059A000D1F804C022F070024CEA0202DFF87CC099
:1059B000DFF87C809842DFF87C900FD050450DD006
:1059C000A8420BD0B04209D0B84207D0A04205D0BF
:1059D000604503D0404501D0484503D1CD6822F44D
:1059E00040722A434D6922F080022A4302609842A5
:1059F0008A68C2620A68826207D0A04205D0604508
:105A000003D0404501D0484501D109690163012116
:105A10004161BDE8F0870000000001400004004043
:105A200000080040000C004000040140004001401C
:105A3000004401400048014042EA032283680A43CF
:105A400023F47F410A43826070470000034B826861
:105A50001A400A4342F00701816070478FFFCFFF71
:105A600010B5036A046A23F00A0324F001040462F7
:105A700084690B4324F0F00141EA02118161036261
:105A800010BD10B5036A23F0100303628369046A32
:105A900023F4704324F0A00443EA0232826144EA12
:105AA0000111016210BD000030B5416EB9B101684D
:105AB0000D4B03F108048A688968C2F34262490FFA
:105AC0005D5C615C2D01B5FBF1F1A0F86A10995C99
:105AD000A25C0901B1FBF2F1A0F8681030BD012110
