:020000040800F2
:10000000D829002479030008DF3C0008C73800081D
:10001000DD3C0008D5050008C162000800000000B2
:10002000000000000000000000000000DF410008A8
:1000300021060008000000005B3E0008EB410008BC
:100040009303000893030008930300089303000838
:100050009303000893030008930300089303000828
:100060009303000893030008930300089303000818
:100070009303000893030008930300089303000808
:1000800093030008930300089303000893030008F8
:100090009303000893030008930300082306000855
:1000A00093030008930300089303000893030008D8
:1000B00093030008930300089303000893030008C8
:1000C00093030008930300089303000893030008B8
:1000D00093030008930300089303000893030008A8
:1000E0009303000893030008000000009303000836
:1000F0009303000893030008930300089303000888
:100100009303000893030008930300089303000877
:100110009303000893030008930300089303000867
:100120009303000893030008930300089303000857
:100130009303000893030008930300089303000847
:1001400000000000000000000000000000000000AF
:100150009303000893030008930300089303000827
:100160009303000893030008930300089303000817
:100170009303000893030008930300089303000807
:1001800093030008930300089303000893030008F7
:1001900093030008930300089303000893030008E7
:1001A00093030008930300089303000893030008D7
:1001B00093030008930300089303000893030008C7
:1001C00093030008930300089303000893030008B7
:1001D00093030008E13C0008930300089303000820
:1001E0009303000893030008930300089303000897
:1001F0009303000893030008930300089303000887
:100200009303000893030008930300089303000876
:100210008543000893030008930300089303000834
:1002200093030008930300089303000800000000F4
:1002300093030008930300080000000093030008E4
:100240009303000893030008930300089303000836
:100250009303000893030008930300089303000826
:100260009303000893030008930300089303000816
:1002700093030008930300089303000800000000A4
:100280009303000893030008930300080000000094
:10029000000000009303000800F002F800F05CF892
:1002A0000AA090E8000C82448344AAF10107DA45D1
:1002B00001D100F051F8AFF2090EBAE80F0013F0C7
:1002C000010F18BFFB1A43F0010318473862000002
:1002D000586200000A444FF0000C10F8013B13F084
:1002E000070408BF10F8014B1D1108BF10F8015B8F
:1002F000641E05D010F8016B641E01F8016BF9D182
:1003000013F0080F1EBF10F8014BAD1C0C1B09D1D8
:100310006D1E58BF01F801CBFAD505E014F8016B4A
:1003200001F8016B6D1EF9D59142D6D370470000DC
:100330000023002400250026103A28BF78C1FBD8EE
:10034000520728BF30C148BF0B6070471FB506F089
:10035000B7F81FBD10B510BD00F001F91146FFF749
:10036000F5FF06F033F800F01FF903B4FFF7F2FFD2
:1003700003BC00F029F900000948804709480047FC
:10038000FEE7FEE7FEE7FEE7FEE7FEE7FEE7FEE745
:10039000FEE7FEE704480549054A064B70470000A2
:1003A000A942000899020008D8230024D829002473
:1003B000D8250024D825002453EA020C00F06980D7
:1003C0002DE9F04B4FF00006002B1FBFB3FA83F569
:1003D00003FA05F424FA05F65E4012BF1643B2FA9A
:1003E00082F502FA05F4C5F120051EBF22FA05FCCC
:1003F00044EA0C04203556EA044C4FEA144418BF72
:10040000641C4FF000084FF00009904271EB030CA0
:1004100039D3002919BFB1FA81F701FA07F6B0FA0A
:1004200080F700FA07F6C7F120071EBF20FA07FC85
:1004300046EA0C062037B6FBF4FCA7EB0507103F95
:1004400007F01F0BCBF120060CFA0BFB2CFA06F67B
:1004500044BFB3460026202FA4BF5E464FF0000BDA
:100460005BEA060C08BF4FF0010B19EB0B09ABFB65
:10047000027C48EB0608C01B06FB02CC0BFB03CC3E
:1004800071EB0C01C1E70B46024641464846BDE808
:10049000F08B13B54FF000004FF00001AFF3008078
:1004A000BDE81C40704710B5203AC0F00B80B1E8A1
:1004B0001850203AA0E81850B1E81850A0E8185099
:1004C000BFF4F5AF5FEA027C24BFB1E81850A0E8A2
:1004D000185044BF18C918C0BDE810405FEA827CBC
:1004E00024BF51F8043B40F8043B08BF7047D207D3
:1004F00028BF31F8023B48BF11F8012B28BF20F874
:10050000023B48BF00F8012B70474FF0000200B5D6
:10051000134694469646203922BFA0E80C50A0E826
:100520000C50B1F12001BFF4F7AF090728BFA0E8D4
:100530000C5048BF0CC05DF804EB890028BF40F8A0
:10054000042B08BF704748BF20F8022B11F0804FE2
:1005500018BF00F8012B7047704770477047754609
:1005600000F02CF8AE4605006946534620F007001F
:10057000854618B020B5FFF70DFFBDE820404FF0CD
:1005800000064FF000074FF000084FF0000B21F07D
:100590000701AC46ACE8C009ACE8C009ACE8C0094A
:1005A000ACE8C0098D46704710B50446AFF3008033
:1005B0002046BDE81040FFF7D8BE00000048704755
:1005C000782300247047000001491820ABBEFEE7E5
:1005D00026000200FEE70020704700207047000060
:1005E00005490022054810B504F06BFB0449034897
:1005F00004F05EFB002010BD50150024800800248C
:10060000500D00240146044810B504F051FB024887
:1006100004F033FB002010BD800800240020704748
:100620007047402000F08EB872B6FEE72DE9F04129
:10063000094D0024094F4FF48066204605F06CFEFA
:10064000285501223146384600F09EF9641CE4B278
:10065000592CF2D3BDE8F081100200240018025892
:1006600070B5044600F09CF90546601C02D00448B1
:100670000078044400F094F9401BA042FAD370BD06
:100680008C00002470B540284ED12849FF2328480B
:10069000202202F0D3FA254B012126485FF0000208
:1006A00002EB81041C44521C50F82150032A14F818
:1006B000034C44EA052440F82140F1DB491CC9B24F
:1006C0000929EBD35FF0010150F82120130202D574
:1006D00042F07F4201E022F07F4240F82120491C95
:1006E000C9B20929F0D301219FED130B4A1C50F820
:1006F000213001EE103AB8EEC11B21EE001BBDEE19
:10070000C11B11EE103A40F82130D1B20929EDD3C6
:10071000084901230A48242203F076F8002803D070
:10072000BDE87040FFF780BF70BD00006A02002482
:100730001403002400000024F43EB21A0240DF3FFC
:10074000E80300244FF0B04110B5D1F888200242F0
:1007500003D0C1F88800FFF795FF10BD2DE9F84FD1
:1007600003247D4D00234FF001094FF0B04B4FF0B3
:100770000F0AE9E009FA03F73A4076D00E7906F05D
:100780000306012E01D0022E18D1D0F808C04FEA7E
:10079000430ECE6804FA0EF82CEA080C06FA0EF6A0
:1007A00046EA0C068660D0F804C00E792CEA070CE5
:1007B000C6F300169E4046EA0C0646600E79F643E4
:1007C000B6070BD0C6684FEA43088F6804FA08FCE6
:1007D00026EA0C0607FA08F73743C7600E7906F0D9
:1007E0000306022E12D1DE080F694FEA437C00EBAC
:1007F0008606B646366A4FEADC6C0AFA0CF807FA47
:100800000CF726EA08063743CEF820700F79066801
:100810004FEA430807F0030704FA08FC07FA08F751
:1008200026EA0C06374307604E6816F4403F1CD09A
:100830004A4E376847F00207376036689F0706F070
:100840000206009623F0030606F1B046B6463F0FB7
:10085000D6F80864DFF808810AFA07FC404526EA62
:100860000C0603D14FF0000C41E06CE0DFF8F4C05F
:10087000604502D14FF0010C39E0DFF8ECC0604573
:1008800002D14FF0020C32E0DFF8E0C0604502D147
:100890004FF0030C2BE0DFF8D8C0604502D14FF0D9
:1008A000040C24E0DFF8CCC0604502D14FF0050C09
:1008B0001DE0DFF8C4C0604502D14FF0060C16E021
:1008C000DFF8B8C0604502D14FF0070C0FE0DFF849
:1008D000B0C0604502D14FF0080C08E0DFF8A4C0BA
:1008E000604502D14FF0090C01E04FF00A0C0CFA00
:1008F00007FC4CEA060CCEF808C44F68DBF8006031
:10090000FF0226EA020600D516435F46CBF80060D8
:10091000D1F804C0DBF804605FEA8C2C26EA0206FA
:1009200000D516437E606E684F6826EA0206BF0354
:1009300000D516436E602E684F6826EA0206FF0354
:1009400000D516432E605B1C0A6832FA03F67FF46A
:1009500011AFBDE8F88F000080000058F444025841
:10096000000002580004025800080258000C025807
:10097000001002580014025800180258001C0258B7
:1009800000200258002402580AB18161704709040E
:10099000FBE7000001480068000C70470010005C95
:1009A00001488068704700008C000024024881687C
:1009B00002781144816070478C000024032010B538
:1009C00000F086F801F0C8FC0F4A1049146813685B
:1009D000C4F3032203F00F038A5CC95C02F01F0218
:1009E00001F01F01D0400A4A20FA01F111600949C3
:1009F00008600F2000F010F808B1012010BD00F0D1
:100A00002BF8002010BD000018440258F2640008C2
:100A10009C0000249800002470B50D4D04462878F1
:100A2000A0B14FF47A71B1FBF0F00A490968B1FB4B
:100A3000F0F002F0BDFB48B9102C07D2002221468D
:100A4000501E00F025F800206C6070BD012070BDC4
:100A50008C00002498000024054808B5016841F086
:100A600002010160006800F00200009008BD000073
:100A7000F4440258002809DB410900F01F028900F4
:100A8000012001F1E0219040C1F800017047000011
:100A90000E4BF0B41B680D46C3F30223C3F10706E7
:100AA000042E00D90426191D072901D2002300E0D5
:100AB000DB1E012404FA06F19C40491E2940641EF5
:100AC000994014402143F0BC05F0FBBB0CED00E065
:100AD000064900F0070210B54FF6FF040868044B02
:100AE000204040EA02201843086010BD0CED00E0F1
:100AF0000000FA0501680123C0F8FC33002280F8E9
:100B0000F4238869044A40F000608861486D10430E
:100B10004865002070470000030000107047D0F8BF
:100B2000040404F058BBC1EBC10200EB8202D0F810
:100B30000404926C04F0C5BAC1EBC10200EB82025E
:100B4000D0F80404D2F8082204F00FBBD0F8040453
:100B500004F043BB01F00F020B0670B5C2EBC201FB
:100B600004464FF001004FF0000504EB810103D56E
:100B700081F83D003C3103E081F8FD5101F5FE7143
:100B80000A7094F8BC23012A08D084F8BC032068BA
:100B900004F0E2FE002084F8BC5370BD022070BD5A
:100BA00070B54268044601F00F00904201D901205F
:100BB00070BD01F00F024FF000050B06C2EBC20141
:100BC0004FF0010204EB810103D581F83D203C3157
:100BD00003E081F8FD5101F5FE718D70087094F805
:100BE000BC03012808D084F8BC23206805F0B2F8C3
:100BF000002084F8BC5370BD022070BD01F00F01CD
:100C0000C1EBC10100EB8100D0F8140270472DE95F
:100C1000F04101F00F0604460D064FF00100C6EB4F
:100C2000C6014FF0000504EB810103D581F83D00BA
:100C30003C3103E081F8FD5101F5FE714F788A6087
:100C4000CB700E7007B1CE80022B00D10D7194F8DD
:100C5000BC23012A09D084F8BC03206804F0CAFD33
:100C6000284684F8BC53BDE8F0810220FBE770B54C
:100C700001F00F050C460026C5EBC50100EB810114
:100C8000C1F80822C1E9843681F8FD6181F8FC5180
:100C900001F5FE710369012B00D10A612207027C74
:100CA000006803D005F0AEF8002070BD04F098FF96
:100CB000FAE770B50D464168044605F00F0088421A
:100CC00001D9012070BD29064FF000064FF0010246
:100CD00007D5C0EBC00104EB810181F83D203C3118
:100CE00007E0C5EBC50104EB810181F8FD6101F569
:100CF000FE718A70087094F8BC03012807D084F84C
:100D0000BC23206805F052F8280702D007E0022033
:100D100070BD217C04F57172206804F0EFFF0020A3
:100D200084F8BC6370BD2DE9F04101F00F050C465D
:100D30000026C5EBC501012700EB81018A64C1E9EA
:100D4000143681F83D7001F83C5F0369012B00D136
:100D50000A612207027C006804D005F053F80020E5
:100D6000BDE8F08104F03CFFF9E700002DE9FC5FED
:100D700005680446284605F08AF900287ED12068D7
:100D800005F0B1F9002879D0206805F0ACF98007AA
:100D900004D52068416901F002014161206805F035
:100DA000A2F9C10604F57170009035D520688169FB
:100DB00021F0100181612F6A07F00F01C7F3434052
:100DC000C1EBC101022804EB810606F5FE7602D0D4
:100DD000062812D01BE047F6F070074217D0C7F381
:100DE0000A12F1681746284605F081F9B169F068E2
:100DF0003944B1613844F06009E00099082228467E
:100E000005F075F9B169C7F30A100844B0612068AC
:100E1000816941F010018161206805F064F90003E7
:100E20004FF001094FF0080B5BD52068002605F054
:100E300039F9DFF8A4A3074651E0F8074DD0206840
:100E4000F1B205F048F98046C00707D005EB46111E
:100E5000C1F8089B3146204602F048FF5FEA08705F
:100E600022D505EB4611C1F808BB2068026C00EBE7
:100E7000461001925245D0F8081B00E0A9E105D9BF
:100E8000090403D54FF40041C0F8081B204600F0C8
:100E9000BDFA0199514507D92069012804D120687C
:100EA0000121009A04F02AFF5FEAC86004D505EB2F
:100EB00046111020C1F8080B5FEA886004D505EBE5
:100EC00046112020C1F8080B5FEA884005D505EBE4
:100ED00046114FF40050C1F8080B7F08761C002F14
:100EE000ABD1206805F0FFF840034FF0000A61D550
:100EF000206805F0D0F80026074659E0F80755D0DD
:100F00002068F1B205F0D5F88046C00724D0D5F8A6
:100F100034C806F00F0205EB461109FA02F02CEA7C
:100F2000000CC5F834C8C1F80899206901280FD110
:100F3000C6EBC60004EB8000D0E9112111448164A6
:100F400036B9206D20B920680121009A04F0D6FE40
:100F50002046F1B2FFF7E7FD5FEA087003D505EB25
:100F60004611C1F808B95FEAC86004D505EB461020
:100F70001021C0F808195FEA486004D505EB461156
:100F80004020C1F808095FEA887008D53146284634
:100F900005F050F805EB46110220C1F808095FEA98
:100FA000086003D53146204602F006FF7F08761C14
:100FB000002FA3D1206805F096F8002811DAD5F8A3
:100FC000040820F00100C5F8040894F8F40301288F
:100FD0003BD0204600F0FEF92068416901F0004155
:100FE0004161206805F07FF800050BD5D5F80808A9
:100FF000C00702D0204600F031FA2068416901F4B0
:1010000000614161206805F06EF800010AD5206892
:10101000416901F00061416194F8F403E0B12046B8
:1010200000F01CFA206805F05EF8C00470D5D5F811
:10103000040820F00100C5F804082068102104F01D
:10104000F9FF00214FF67F322DE00021204684F881
:10105000F4A3FFF763FDBFE784F8F4932068406DC5
:101060000121C0F38300C4F8F8032046FFF756FDC2
:10107000D8E700BF05EB4110C0F80829D0F80039C7
:1010800023F40013C0F80039C0F8082BD0F8003B57
:1010900023F40013C0F8003BD0F8003B43F000639A
:1010A000C0F8003B491C60688842E3D8D5F81C08AA
:1010B00040F00110C5F81C08206B60B1D5F8840819
:1010C00040F00B00C5F88408D5F8440840F00B0048
:1010D000C5F844080CE0D5F8141842F22B0001437F
:1010E000C5F81418D5F8100840F00B00C5F8100822
:1010F000D5F8000820F4FE60C5F80008217C2068BF
:10110000009A04F0FBFD2068416901F480514161BF
:10111000206804F0E8FF800415D5206804F0AAFBDD
:10112000206804F0A7FFE06001F0D0F8227B0146C0
:10113000206805F03DF8204600F036F92068416946
:1011400001F400514161206804F0CDFF000707D58C
:10115000204600F043F92068416901F0080141612F
:10116000206804F0C0FFC00208D50021204600F02E
:1011700035F82068416901F480114161206804F06C
:10118000B2FF800208D50021204600F02BF820682D
:10119000416901F400114161206804F0A4FF40009E
:1011A00007D52046FFF7BBFC2068416901F080416C
:1011B0004161206804F097FF40070AD52068456820
:1011C000680702D52046FFF7C1FC20684168294323
:1011D0004160BDE8FC9F00000A30544FD0F8040481
:1011E00004F040B8D0F8040404F04CB82DE9F04104
:1011F00004008AB005D094F8BD030025266820B10C
:1012000008E001200AB0BDE8F081204684F8BC5314
:1012100000F066F8032084F8BD03F06BC00500D42D
:101220002561206804F0D6FC04F1100168462822EC
:101230008846FFF738F994E80F0004F029FB0227ED
:10124000D8BB2068002104F072FF0020012610E0C6
:10125000C0EBC001421C04EB810181F83D6081F8C4
:101260003F504D648D640D6581F83C00A1F842004B
:10127000D0B261688142EBD8002011E0C0EBC00120
:10128000421C04EB810181F8FD5181F8FF51C1F846
:101290000452C1F80852C1F8105281F8FC01D0B2D2
:1012A00061688142EAD8282241466846FFF7FBF888
:1012B00094E80F0004F0D2FB10B184F8BD73A0E7EE
:1012C000606A84F8385084F8BD63012802D1204652
:1012D000FFF710FC206804F0B3FB002092E7000049
:1012E000F0B587B0044614216846FFF70EF9206870
:1012F0000026284C02272849264D083C884227D141
:1013000000F0EEF8286840F00100286028680A2103
:1013100000F0010005904FF4C0500090CDE9017637
:10132000CDE903611D486946FFF718FA206840F0CF
:101330000060206020680022114600F000600590E7
:101340006520FFF7A5FB6520FFF794FB07B0F0BD14
:1013500013498842FAD100F0C3F8286840F002002F
:10136000286028680C2100F0020005904FF44040EE
:101370000090CDE90176CDE903610A486946FFF79F
:10138000EDF9206840F000702060206800F00070E7
:101390000590DBE7E04402580000084000000258D6
:1013A000000004400004025870B50446C0680125DE
:1013B00070B1022801D0FFF737F9D4F804042946A8
:1013C00003F0CCFFD4F80404BDE8704003F07FBF05
:1013D0000025F2E7D0F8040403F0A6BFD0F8040417
:1013E00003F0ACBF10B5044690F8BC0301280BD045
:1013F000012084F8381084F8BC03206804F0C6FE8D
:10140000002084F8BC0310BD022010BDD0F80424D5
:1014100000F57171104603F0ADBF10B590F8BC1324
:1014200004460068012906D0A26A012184F8BC1391
:10143000012A02D008E0022010BDA169012903D0D1
:10144000816B41F480318163206804F0CFFD206816
:1014500004F0E8FA002084F8BC0310BD10B504467F
:10146000D0F8040403F0C8FF2068D0F8001E41F053
:101470000101C0F8001E206A002804D0024801685B
:1014800041F00601016010BD10ED00E0134970B598
:101490000A68D243520705D5096801F00701814265
:1014A00013D118E00A6822F0070202430A60FFF72E
:1014B00077FA0A4D4FF47A760446083D07E000BFFC
:1014C000FFF76EFA001BB04201D9012070BD2868F9
:1014D000C0438004F4D4002070BD00000C480258C2
:1014E0000248016841F08071016070470C48025861
:1014F00010B500F0EBFE05490968054AC1F3021179
:10150000515C01F01F01C84010BD0000204402588A
:10151000F2640008494930B5484C0B1D0A68143480
:1015200009681D68246802F00303C5F30012C1F3C3
:101530000531C4F3CC04002914FB02F200EE102A9A
:10154000F8EE400A75D03F4A9FED3D1AB7EE000A0B
:101550006BB1DFED3D1A012B01D0022B64D002EEFE
:10156000101A1168F8EE422A81EEA22A21E0334CCB
:10157000283C23689B0612D5344B246801EE901A50
:101580001168C4F3C104F8EE612AE34001EE903A19
:10159000C1F30801F8EE611A81EEA22A0BE001EE18
:1015A000901ADFED2B2A00BFF8EE611A116882EE67
:1015B000A12AC1F3080101EE901A1168F8EE611A30
:1015C00040EE811A71EE800A62EE200AC1F34621D4
:1015D00001EE101AB8EE411A31EE001AC0EE811A6F
:1015E000BCEEE11A80ED001A1168C1F3064101EE6C
:1015F000101AB8EE411A31EE001AC0EE811ABCEE94
:10160000E11A80ED011A1168C1F3066101EE101AAA
:10161000B8EE411A31EE000A80EE801ABCEEC10A23
:1016200080ED020A30BD04E001EE901ADFED092AD8
:10163000BAE70021016041608160F3E72844025865
:1016400000000039384402580024744A0090D00346
:101650000024744C0024F44A494930B5484C0B1D11
:101660000A681C3409681D68246802F00303C5F386
:101670000022C1F30551C4F3CC04002914FB02F28B
:1016800000EE102AF8EE400A75D03F4A9FED3D1A51
:10169000B7EE000A6BB1DFED3D1A012B01D0022B32
:1016A00064D002EE101A1168F8EE422A81EEA22AE6
:1016B00021E0334C283C23689B0612D5344B246828
:1016C00001EE901A1168C4F3C104F8EE612AE340F8
:1016D00001EE903AC1F30801F8EE611A81EEA22AF8
:1016E0000BE001EE901ADFED2B2A00BFF8EE611A35
:1016F000116882EEA12AC1F3080101EE901A116867
:10170000F8EE611A40EE811A71EE800A62EE200A4C
:10171000C1F3462101EE101AB8EE411A31EE001A5B
:10172000C0EE811ABCEEE11A80ED001A1168C1F317
:10173000064101EE101AB8EE411A31EE001AC0EE61
:10174000811ABCEEE11A80ED011A1168C1F306613D
:1017500001EE101AB8EE411A31EE000A80EE801A3E
:10176000BCEEC10A80ED020A30BD04E001EE901A21
:10177000DFED092ABAE70021016041608160F3E7EB
:101780002844025800000039404402580024744A9A
:101790000090D0030024744C0024F44A2DE9FC5F2F
:1017A000044650F8241B002500902E460801FE4FE9
:1017B000DFF8F8831DD5606E50B1B0F5801F0CD0F6
:1017C000B0F5001F0ED0B0F5401F1DD001250FE071
:1017D000386840F40030386016E00221201D02F025
:1017E0005FFB03E00098022102F0EAFB05000BD04A
:1017F0002E462088C00523D5606D05281ED2DFE85F
:1018000000F00C11161B1B00626ED8F8001021F4BA
:1018100040111143C8F80010EBE7386840F400307D
:10182000386009E00021201D02F03AFB03E0009837
:10183000002102F0C5FB05466DB100E001252E46F2
:101840002088800528D5A06D80281ED00CDC90B1A2
:1018500040280ED114E0626DD8F8001021F0070185
:101860001143C8F80010EBE7C02813D0B0F5807F13
:1018700010D001250FE0386840F40030386009E0EE
:101880000021201D02F00CFB03E00098002102F073
:1018900097FB054695B12E462088DFF8109340054A
:1018A00009F108092CD5D4F8A400B0F5800F20D098
:1018B0000DDCA0B1B0F5001F0FD115E0A26DD8F876
:1018C000001021F4E0711143C8F80010E4E7B0F50E
:1018D000C00F13D0B0F5000F10D001250FE038680D
:1018E00040F40030386009E00021201D02F0D8FAF1
:1018F00003E00098002102F063FB054675B12E4617
:10190000208800052DD5D4F8A800B0F1007F21D0A3
:101910000EDCA8B1B0F1807F10D116E0D4F8A4207D
:10192000D9F8001021F460011143C9F80010E7E76D
:10193000B0F1407F13D0B0F1806F10D001250FE0DF
:10194000386840F40030386009E00021201D02F0C2
:10195000A7FA03E00098002102F032FB05466DB1C2
:101960002E46206880011FD5A06CD8B110280FD05A
:10197000202812D0302815D0012514E0D4F8A82052
:10198000D9F8001021F0E0611143C9F80010E8E730
:10199000386840F40030386004E00221201D02F075
:1019A0007FFA05466DB12E462088C0042BD5E06D28
:1019B000B0F5005F20D00DDCA0B1B0F5805F0FD195
:1019C00015E07A48A26C001F016821F03001114334
:1019D0000160E9E7B0F5405F13D0B0F5804F10D05B
:1019E00001250FE0386840F40030386009E000213C
:1019F000201D02F055FA03E00098002102F0E0FA01
:101A0000054685B12E462088800429D5206EB0F584
:101A1000403F23D010DC08B3B0F5803F14D0B0F5C0
:101A2000003F0FD115E0E26DD8F8001021F4E0413D
:101A30001143C8F80010E6E7B0F5802F0ED0B0F5DE
:101A4000A02F0BD001250AE00121201D02F028FA69
:101A500003E00098012102F0B3FA05468DB12E464D
:101A6000208840042AD5D4F8AC00B0F1405F23D0E0
:101A700010DC08B3B0F1805F14D0B0F1005F0FD17B
:101A800015E0226ED8F8001021F4E0211143C8F8C7
:101A90000010E5E7B0F1804F0ED0B0F1A04F0BD0B1
:101AA00001250AE00121201D02F0FAF903E0009867
:101AB000012102F085FA05466DB12E46208800040A
:101AC0001FD5E06ED8B1B0F1805F0ED0B0F1005FED
:101AD00010D0012514E0D4F8AC20D9F8001021F082
:101AE000E0411143C9F80010E8E7386840F40030DD
:101AF000386004E00121201D02F0D2F905466DB1E5
:101B00002E462068C0011ED5606CD0B101280ED0D1
:101B1000022811D0032814D0012513E0E26ED8F872
:101B2000001021F040511143C8F80010E9E738686F
:101B300040F40030386004E00221201D02F0B0F9CA
:101B4000054685B12E462068DFF85CB04002ABF157
:101B50001C0B57D51648016841F480710160FEF7EF
:101B60001FFF82460EE01148626C001F016821F0E1
:101B7000030111430160E6E7FEF712FFA0EB0A0044
:101B800064283DD80A480068C005F5D57DBBDFF85C
:101B90001CA0B4F8B0200AF1200ADAF8001002F410
:101BA000407001F4407105E02C4402585044025842
:101BB00000480258814211D0DAF80010DAF800200B
:101BC00021F4407142F48032CAF80020DAF8002093
:101BD00022F48032CAF80020CAF80010D4F8B0000D
:101BE000B0F5807F21D1FEF7DBFE019019E008E01F
:101BF000FEF7D6FE0199411A41F28830814210D990
:101C000003252E462078DFF844A4C0073DD0A06FFE
:101C1000182838D026DC80B3082829D0102825D1F0
:101C20002CE0DAF800008007E2D5D4F8B010C1F358
:101C30000120032858460DD0016821F47C51016031
:101C4000B4F8B020DAF80010C2F30B021143CAF85E
:101C50000010D7E7FE4A036802EA111223F47C5110
:101C60001143ECE720280ED028280CD001250BE0EA
:101C70000121201D02F014F904E004E00098012184
:101C800002F09EF905465DB12E46207880071ED5EC
:101C9000606F062819D2DFE800F0160C1116161630
:101CA000A26FDAF8001021F038011143CAF80010D1
:101CB000EBE70121201D02F0F3F803E00098012179
:101CC00002F07EF9054675B100E001252E46207828
:101CD00040071FD5D4F89000062819D2DFE800F09D
:101CE000160C11161616626FDAF8001021F00701B3
:101CF0001143CAF80010EAE70121201D02F0D0F8D4
:101D000003E00098012102F05BF905469DB100E077
:101D100001252E46207880062BD5D4F88C00B0F112
:101D2000405F24D011DC10B3B0F1805F15D0B0F16A
:101D3000005F10D116E0D4F89020D9F8001021F0FF
:101D400007011143C9F80010E4E7B0F1804F0ED04D
:101D5000B0F1A04F0BD001250AE00021201D02F0B8
:101D60009FF803E00098022102F02AF905468DB1A0
:101D70002E46207840062BD5D4F89800B0F5406F59
:101D800024D011DC10B3B0F5806F15D0B0F5006F22
:101D900010D116E0D4F88C20DAF8001021F0E041E0
:101DA0001143CAF80010E4E7B0F5805F0ED0B0F53B
:101DB000A05F0BD001250AE00021201D02F070F881
:101DC00003E00098022102F0FBF805468DB12E4693
:101DD000207800062BD5D4F89C00B0F5C04F24D055
:101DE00011DC10B3B0F5005F15D0B0F5804F10D105
:101DF00016E0D4F89820D9F8001021F4E0511143EE
:101E0000C9F80010E4E7B0F5004F0ED0B0F5204F50
:101E10000BD001250AE00021201D02F041F803E06B
:101E20000098022102F0CCF805464DB12E462078EC
:101E300000071ED5D4F88000B0F5805F0AD00FE00F
:101E4000D4F89C20D9F8001021F460411143C9F85E
:101E50000010ECE70098022102F0B2F800B1012670
:101E6000D4F88020DAF8001021F440511143CAF868
:101E700000102078C00613D5D4F89400B0F5807F08
:101E800005D10098022102F09BF800B10126D4F898
:101E90009420D9F8001021F440711143C9F80010C2
:101EA0002068000316D5D4F8A00038B1B0F5803F03
:101EB00009D0B0F5003F0BD001250AE00021201D1C
:101EC00001F0EEFF03E00098022102F079F80546E8
:101ED00085B12E462068400322D5D4F88400B0F5A1
:101EE000801F11D0B0F5001F13D0B0F5401F15D0E2
:101EF000012514E0D4F8A020D9F8001021F44031D5
:101F00001143C9F80010E5E7386840F40030386044
:101F100004E00098012102F053F8054655B12E4621
:101F20002068C0031CD5E06C70B1B0F5803F10D0C4
:101F3000012514E0D4F88420DAF8001021F44011CF
:101F40001143CAF80010EBE7386840F400303860FD
:101F500004E00221201D01F0A3FF0546CDB12E466D
:101F60002068800005D50098022102F029F800B110
:101F70000126206880031BD5E06FB8B1B0F5807FE3
:101F800010D0B0F5007F11D0B0F5407F0ED0012504
:101F90000DE02E48E26C0838016821F480311143CD
:101FA0000160DDE7386840F400303860F5B32E4654
:101FB0002068C00207D5226FD8F8001021F0004138
:101FC0001143C8F800102068C00008D5D4F8B42028
:101FD000DBF8001021F480411143CBF80010206899
:101FE000800207D5A26ED8F8001021F0807111434D
:101FF000C8F80010206840000CD5DBF8001021F470
:102000000041CBF80010DBF80010D4F8B8201143E1
:10201000CBF800102068002807DA0C48226D083839
:10202000016821F040511143016000E014E0206894
:10203000000208D5D4F88820DAF8001021F4400115
:102040001143CAF8001086B1012003E0544402583D
:10205000CFFFFF00BDE8FC9FE26FDAF8001021F42B
:1020600040711143CAF80010A2E70020EDE700001C
:102070002DE9F05F04000F467ED0DFF83882D8F8F3
:10208000000000F00F00B8420CD2D8F8001021F088
:102090000F013943C8F80010D8F8000000F00F0015
:1020A000B84269D12078844D40070AD52069296853
:1020B00001F07001884204D9296821F070010143C0
:1020C000296020787C4E361D00070AD5606931688A
:1020D00001F07001884204D9316821F07001014398
:1020E00031602078C0060AD5A069316801F4E0614A
:1020F000884204D9316821F4E061014331602078DD
:10210000DFF8B4B180060BF1080B0CD5E169584635
:10211000DBF8002002F07002914204D9026822F03C
:1021200070020A430260207880070AD5E0682968B7
:1021300001F00F01884204D9296821F00F01014301
:1021400029602078C0073ED05B49A268286818390A
:1021500020F47060104328606068022818D00328BB
:1021600019D00968012819D0490700294ADADFF88F
:1021700048A1AAF1080A00E044E0DAF8002022F0C1
:1021800007020243CAF80020FEF70AFC814612E06B
:1021900009688903E9E709688901E6E7C905E4E711
:1021A000FEF7FEFBA0EB090141F28830814202D923
:1021B0000320BDE8F09F6168DAF8000000F0380005
:1021C000B0EBC10FECD1207880070AD5E068296810
:1021D00001F00F01884204D2296821F00F01014368
:1021E0002960D8F80010404601F00F01B9420BD920
:1021F000016821F00F0139430160006800F00F0011
:10220000B84201D00120D4E7207840070AD52069E0
:10221000296801F07001884204D2296821F0700118
:1022200001432960207800070AD56069316801F010
:102230007001884204D2316821F07001014331609D
:102240002078C0060AD5A069316801F4E0618842AF
:1022500004D2316821F4E0610143316020788006C6
:102260000CD5E1695846DBF8002002F0700291427B
:1022700004D2026822F070020A43026000F06CF897
:102280000E492A682B68C2F3032203F00F038A5C0D
:10229000C95C02F01F0201F01F01D040084A20FA79
:1022A00001F111600749086007480068BDE8F05F68
:1022B000FEF7B2BB0020005218440258F264000836
:1022C0009C000024980000249000002430B500F009
:1022D00043F80B4A0B490C4B15681468C5F30322ED
:1022E00004F00F048A5C095D02F01F0201F01F0177
:1022F000D040064A20FA01F119601060084630BD4E
:1023000018440258F26400089C000024980000243D
:1023100000B5FFF7DBFF05490968054AC1F3021163
:10232000515C01F01F01C84000BD00001C44025870
:10233000F264000800B5FFF7C9FF05490968054ABE
:10234000C1F30221515C01F01F01C84000BD000033
:102350001C440258F2640008454970B545480968B4
:10236000434B103B11F0380208D00111082A03D06A
:10237000102A0BD0182A0BD0084670BD19688906A0
:10238000FBD51968C1F3C101C84070BD3A4870BDA2
:102390003749374D18310C1D24350A6809682668FD
:1023A0002D6802F0030406F00102C1F30511C5F324
:1023B000CC0515FB02F200EE102AB8EE400AE9B394
:1023C0002F4ADFED2E0AB7EE001A6CB1DFED2D1AA1
:1023D000012C01D0022C43D002EE101A1068F8EE46
:1023E000422A81EEA22A1EE01C68A40611D51B68B1
:1023F00001EE901A1168C3F3C103F8EE612AD840C8
:1024000001EE900AC1F30800F8EE611A81EEA22AEB
:102410000BE001EE901ADFED1C2A00BFF8EE611A06
:10242000106882EEA12AC0F3080001EE900AF8EECF
:10243000611A40EE201A31EE810A00E015E022EE2A
:10244000000A1068C0F34620401C00EE900AF8EE27
:10245000600A80EE201ABCEEC10A10EE100A70BDB0
:1024600001EE901ADFED092AD8E7002070BD0000C8
:10247000104402580090D00300127A000000003986
:10248000304402580024744A0024744C0024F44A56
:102490002DE9F05F04007DD0FF4F2078FE4D183706
:1024A000DFF8F493103DC00748D0D9F80000396830
:1024B00000F03800102815D0182803D101F00300CF
:1024C00002280FD06068B0F5803F12D010B1B0F58F
:1024D000A02F18D0286820F480302860286820F4C5
:1024E000802009E02868800328D560680028D2D0C1
:1024F00024E0286840F480302860606888B1FEF7E6
:102500004FFA064609E0286840F480202860F0E78A
:10251000FEF746FA801B64286FD828688003F7D539
:102520000CE0FEF73DFA064605E000BFFEF738FA7C
:10253000801B6428F0D828688003F7D4207841F203
:102540000308D54E0C3E800769D5D9F800003968DC
:1025500010F038000ED0182801D188070AD0E068A2
:1025600090B3296821F0190101432960FEF718FA98
:10257000824631E02868400702D5E06800288AD00A
:10258000E168286820F0190008432860FEF708FA7F
:10259000824607E0DFE000BFFEF702FAA0EB0A0088
:1025A0000228B9D828684007F6D500BFFEF7F2F92F
:1025B00040451BD82069402812D0316821F47C3175
:1025C00041EA003030602AE018E000BFFEF7E8F989
:1025D000A0EB0A0002289FD828684007F6D5E5E757
:1025E000306820F47C3040F40030EBE7207C316828
:1025F00021F0FE4141EA0060E4E70DE1286820F0A7
:1026000001002860FEF7CCF9824605E0FEF7C8F924
:10261000A0EB0A0002288DD828684007F6D420785D
:10262000C0065DD5D9F80000DFF86CB2396800F05B
:102630003800ABF1040B082810D0182803D101F0A2
:10264000030001280AD0E0690028286838D040F04B
:1026500080002860FEF7A4F9824623E02868C005C0
:1026600023D5E069802876D11FE0206A202821D078
:10267000316821F0F84141EA8060306030E000BF0D
:1026800094F82010DBF8002022F07C5242EA01612D
:10269000CBF8001024E000BFFEF782F9A0EB0A009F
:1026A000022898D82868C005F6D5FEF773F940458A
:1026B000E6D8DAE7306820F0F84040F08040DCE708
:1026C00020F080002860FEF76BF9064605E000BFA9
:1026D000FEF766F9801B02289DD82868C005F7D44C
:1026E0002078000729D56C4861696430002980464C
:1026F000016811D041F001010160FEF751F9064671
:1027000005E000BFFEF74CF9801B0228C9D8D8F8B5
:1027100000008007F6D510E021F001010160FEF70E
:102720003FF9064605E000BFFEF73AF9801B022894
:1027300072D8D8F800008007F6D42078800623D518
:10274000A0690028286810D040F480502860FEF767
:1027500027F9064605E02CE1FEF722F9801B022846
:102760005AD828688004F7D50EE020F480502860FD
:10277000FEF716F9064604E0FEF712F9801B022860
:102780004AD828688004F7D4207840074FD5DFF86E
:102790000C81D8F8001041F48071C8F80010FEF7E1
:1027A000FFF8064605E000BFFEF7FAF8801B642834
:1027B00032D8D8F80000C005F6D5374EA06860368C
:1027C00001280AD008B1052813D0306820F0010094
:1027D0003060306820F0040002E0306840F0010012
:1027E0003060A06841F2883A90B1FEF7D9F880468F
:1027F0000AE0306840F004003060EEE7FEF7D0F801
:10280000A0EB0801514507D830688007F6D50EE0E7
:10281000FEF7C6F8804607E084E000BFFEF7C0F888
:10282000A0EB080151457DD830688007F6D4606A76
:10283000B0B3DFF86480D9F8001008F12008C1F3C4
:10284000C20103296FD00228286820F08070286018
:1028500003D0FEF7A5F8044680E0FEF7A1F806468F
:1028600005E000BFFEF79CF8801B022873D828689B
:102870008001F7D4E26A40F2F331386854F8283F17
:10288000884340EA021018433860217B4FF4FE0C65
:1028900022894FF0FE4704E01044025800480258D5
:1028A00089E0208A4902521E267DA1F5007189B275
:1028B000401EC2F308021143761E0CEA0040014399
:1028C0003E4807EA066211433C4AC8F80010083245
:1028D000016821F00101016011684FF6F876236A62
:1028E000B14341EAC30111600168A26921F00C0102
:1028F000114301600168E26921F0020111430160A6
:10290000016841F480310160016841F400310160E7
:10291000016841F480210160016841F0010101601A
:10292000286801E017E01DE040F080702860FEF7A5
:1029300037F8044605E000BFFEF732F8001B022816
:1029400009D828688001F7D535E000BFFEF728F8E0
:10295000001B022802D90320BDE8F09F28688001EF
:10296000F4D428E039680128D8F8000021D0A26A00
:1029700001F0030393421CD1E26AC1F305118A42BC
:1029800017D1216BC0F30802491E8A4211D1616B35
:10299000C0F34622491E91420BD1A16BC0F30642FF
:1029A000491E914205D1E16BC0F30660491E814288
:1029B00001D00120D0E70020CEE700002C440258CF
:1029C0002DE9F047040029D0504A4FF00009206853
:1029D0004F4B504D9042C4F8289006D0984204D0F6
:1029E000A84202D0E1680F2918D8E1684FF0010A27
:1029F000E76B0831C9080AEB57167143904205D0BE
:102A0000984203D0A84201D0082907D8904203D0A9
:102A1000984201D0A84204D1102902D90120BDE872
:102A2000F08794F8810020B9204684F8809000F067
:102A300073F8022084F881002068016821F0010108
:102A400001602168A0698A68B0F1806F02F4F81013
:102A500010D16268B2F5800F01D01AB10AE0A26B02
:102A600022B107E0A26BB2F1805F03D10A6842F4A1
:102A700080520A60A66AE169E26B25683143E36827
:102A8000024311431943A960D4E90D02D4E9057149
:102A9000636A25691843D4F820C00A4326681043A6
:102AA0002843A56D3843D4E90182D4E9123140EAC4
:102AB0000C0040EA08000843104318432843F06024
:102AC000606868B92068816821F4C05141F40061F0
:102AD00081602068816821F4C06141F48061816077
:102AE0002068016D21F0010101656068400206D592
:102AF0002068626DC16821F000411143C160C4F8D3
:102B0000849084F881A0002089E700000030014013
:102B100000380040003C00402DE9F043B5B00446C9
:102B200014212FA8FDF7F1FCBC216846FDF7EDFC50
:102B30003C4D02263C494FF005092068103DDFF866
:102B4000E4800024884241D18014012178220823A6
:102B50008DE84F00C0270894CDE9067405961790BC
:102B60006846FEF71BFE08B1FDF75EFDD8F80010C1
:102B700041F48051C8F80010D8F8000000F48050EB
:102B80003490286840F008002860286800F00800A9
:102B90003490286840F04000286028682FA9CDE9CB
:102BA000306400F04000349080202F901F484D4644
:102BB000CDE93249FDF7D2FD4FF420602F901C483B
:102BC0002FA9CDE93064CDE9324526E01949884284
:102BD00025D14014189400906846FEF7DFFD08B137
:102BE000FDF722FDD8F8001041F40051C8F800109C
:102BF000D8F8000000F400503490286840F010002D
:102C0000286028685421CDE9306400F010002F912D
:102C100032942FA9CDE933900748FDF79FFD35B0D9
:102C2000BDE8F083F044025800300140000C025827
:102C30000018025800340140001002582DE9FF5FCF
:102C4000044616460F461D4600214FF0040BD4E9FA
:102C50000002009130300290B2F5800F01D1A068DF
:102C600088B194F88000012819D04FF0010984F848
:102C70008090FDF795FE94F881108246002001298E
:102C80000FD0022126E084F881B03A461146204652
:102C90000093334600F0FAF804B0BDE8F09F02203C
:102CA000FAE7B7B1AEB1A26880466766A4F868607B
:102CB00084F881B0C4F88400A4F86A60E065A4F8E0
:102CC0006000A4F86200B2F5C02F2067606705D0ED
:102CD00009E0012184F880000846DDE720680168EA
:102CE00021F400610160206841686FF30F013143F6
:102CF00041602068016841F0010101606068B0F541
:102D0000800F04D12068016841F400710160E0681F
:102D10000F282ED948F20806B4F86A00002859D0C6
:102D20002068416931420BD0006B616E0860606EB3
:102D3000001D6066B4F86A00401EA4F86A00EBE764
:102D4000FDF72EFEA0EB0A00A84202D3681CE3D0D8
:102D500001E0002DE0D1204601F0C2F9D4F8842032
:102D600084F8808042F48071C4F8841084F88190E3
:102D700088E007282AD868E02068416911F4604F8C
:102D800019D04169090409D5006B616E0860606E55
:102D9000001D6066B4F86A00801E09E00298008891
:102DA000616E0880606E801C6066B4F86A00401E28
:102DB000A4F86A000AE0FDF7F3FDA0EB0A00A842C0
:102DC00002D3681C02D0C6E7002DC4D0B4F86A0054
:102DD0000028D1D13DE02068416911F4604F2AD02C
:102DE0004169090409D5006B616E0860606E001DC1
:102DF0006066B4F86A00001F1AE0416901F4C0413E
:102E0000B1F5005F0AD902980088616E0880606E93
:102E1000801C6066B4F86A00801E09E090F83000FB
:102E2000616E0870606E401C6066B4F86A00401EF7
:102E3000A4F86A0009E0FDF7B3FDA0EB0A00A84280
:102E400002D3681C01D010E07DB1B4F86A000028FC
:102E5000C1D1204601F044F984F88190D4F884105F
:102E600084F8808081B1012016E7204601F038F90E
:102E7000D4F8842084F8808042F48070C4F8840000
:102E800084F88190032007E7009805E72DE9FF4FBC
:102E900083B090F880100446006801294FF00001CB
:102EA000109F1D46019100F1200100F13000934672
:102EB0000291009014D04FF0010A84F880A0FDF731
:102EC0006FFD804694F881006368002101282E463A
:102ED0004FF480020CD0934208D1A36833B903E0C9
:102EE000022007B0BDE8F08F042801D0022037E0AF
:102EF000049898B3BBF1000F31D07DB394F88100F2
:102F0000042802D0052084F8810089460846C4F8C8
:102F10008410C4F864B0A4F86A50A4F86850049906
:102F2000E165A4F86250A4F86050206760672068EB
:102F300041686FF30F01294341602068016841F047
:102F4000010101606068904204D12068016841F489
:102F500000710160E0680F2836D839E0FFE70120F2
:102F600084F88010BDE72068416989070DD565B1F7
:102F7000E16D09680162E06D001DE065B4F8620072
:102F8000401EA4F86200B4F8625048F208022068BB
:102F9000416911420DD066B1006B616E0860606ED0
:102FA000001D6066B4F86A00401EA4F86A00B4F818
:102FB0006A60FDF7F5FCA0EB0800B84202D3781C6C
:102FC00002D0E4E0002FFCD055EA0600CBD1C4E0EB
:102FD00007284CD8BEE02068416989071CD5DDB1BF
:102FE000012D0BD9E16B49B1E16D09680162E06D1A
:102FF000001DE065B4F86200801E09E0E06D018804
:1030000002980180E06D801CE065B4F86200401E0B
:10301000A4F86200B4F862502068416911F4604F6E
:103020001BD0D6B14169090409D5006B616E0860F7
:10303000606E001D6066B4F86A00801E09E00098AA
:103040000088616E0880606E801C6066B4F86A005B
:10305000401EA4F86A00B4F86A60FDF7A1FCA0EB7A
:103060000800B84202D3781C01D090E0F7B355EACB
:103070000600B0D171E02068416989072CD55DB3A5
:10308000032D0CD9E16B40290BD9E16D0968016270
:10309000E06D001DE065B4F86200001F18E0012D2E
:1030A0000CD9E16B51B1E06D018802980180E06DAF
:1030B000801CE065B4F86200801E09E0E16D0978CB
:1030C00080F82010E06D401CE065B4F86200401EFE
:1030D000A4F86200B4F862502068416911F4604FAE
:1030E0002ED06EB3416909040BD500E04FE0006BB0
:1030F000616E0860606E001D6066B4F86A00001FB3
:103100001AE0416901F4C041B1F5005F0AD90098A5
:103110000088616E0880606E801C6066B4F86A008A
:10312000801E09E090F83000616E0870606E401CEF
:103130006066B4F86A00401EA4F86A00B4F86A60D9
:10314000FDF72EFCA0EB0800B84202D3781C01D09A
:103150001DE0E7B155EA06008DD100224346082163
:103160002046009701F01AF828B1D4F8840040F006
:103170002000C4F88400204600F0B2FF84F881A04B
:10318000D4F8841084F8809081B10120A9E620460B
:1031900000F0A6FFD4F8842084F8809042F4807177
:1031A000C4F8841084F881A003209AE6019898E678
:1031B000401EB0F1807F10B501D3012010BD4FF04B
:1031C000E02460610F21601703F07BF80020A0610C
:1031D0000721216110BD704770477047F0B590F826
:1031E0003C20012A3BD01F4E012480F83C400222A3
:1031F00080F83D2002681C4D5368B242D2F808C0E6
:1032000001D0AA4203D14F6823F470033B430F68F7
:1032100023F070031F4357600268B24213D0B2F12B
:10322000804F10D0114B9A420DD0114B9A420AD0C8
:10323000104B9A4207D0AA4205D00F4B9A4202D0B7
:103240000E4B9A4204D189682CF080031943916097
:10325000002180F83D4080F83C100846F0BD022077
:10326000F0BD0000000001400004014000040040E7
:1032700000080040000C00400018004000400140E1
:1032800010B5040003D094F83D0010B107E0012010
:1032900010BD002084F83C00204600F023F80220F6
:1032A00084F83D002068211D01F072F8012084F8A7
:1032B000480084F83E0084F83F0084F8400084F819
:1032C000410084F8420084F8430084F8440084F804
:1032D000450084F8460084F8470084F83D0000204B
:1032E00010BD000008B500680B49884212D10B4898
:1032F000016841F480310160006800220A2100F475
:10330000803000907420FDF7C3FBBDE808407420B6
:10331000FDF7B0BB08BD000000400140F04402587A
:1033200090F83D10012901D001207047174A022171
:1033300080F83D100168CB6843F00103CB60006862
:10334000904214D0B0F1804F11D0114988420ED074
:10335000104988420BD01049884208D00F49884252
:1033600005D00F49884202D00E49884207D18168B2
:103370000D4A1140062906D0B1F5803F03D00168FF
:1033800041F0010101600020704700000000014091
:103390000004004000080040000C00400004014010
:1033A00000180040004001400700010070B50446CD
:1033B00090F83C000025012814D03A4B012684F8EF
:1033C0003C60022084F83D0022689068184020F498
:1033D0007F409060086870282FD010DC10F00F0F2D
:1033E00003D022E04FF0020070BD4FEA2012072AFE
:1033F0001BD2DFE802F0535353534B394100B0F175
:10340000101F4BD009DCB0F5805F0FD0B0F5005F26
:103410001ED0B0F5801F08D140E0A0F58011203902
:103420003CD010293AD0202938D0012584F83D60BD
:10343000002084F83C00284670BD4A682068D1E925
:10344000021301F007F82068816841F0770109E074
:103450004A682068D1E9021300F0FCFF2068816807
:1034600041F480418160E1E7CA684968206801F061
:1034700005F82068502106E0CA684968206801F014
:103480000EF82068602100F0EFFFCFE7CA684968B6
:10349000206800F0F3FF20684021F4E7226801462D
:1034A0001046F0E788FFCEFF704770B5044600680D
:1034B00000250169C943890715D4C168C943890733
:1034C00011D4EA1E026101212177206880698007FA
:1034D000204602D0FFF7E8FF04E000F0A7F82046FE
:1034E00000F0A5F8257720680169C943490717D47A
:1034F000C168C943490713D402216FF00402026175
:1035000021772068806910F4407F204602D0FFF7C1
:10351000CBFF04E000F08AF8204600F088F8257719
:1035200020680169C943090716D4C168C94309075E
:1035300012D404216FF00802026121772068C0696B
:103540008007204602D0FFF7AFFF04E000F06EF8DE
:10355000204600F06CF8257720680169C943C90648
:1035600017D4C168C943C90613D408216FF01002EB
:10357000026121772068C06910F4407F204602D0A4
:10358000FFF792FF04E000F051F8204600F04FF8FA
:10359000257720680169C943C90708D1C168C943B3
:1035A000C90704D1891E0161204600F041F8206856
:1035B0000169C943090609D4C168C943090605D48C
:1035C0006FF0800101612046FFF706FE2068016967
:1035D000C943C90509D4C168C943090605D46FF4B4
:1035E000807101612046FFF7F6FD20680169C9433B
:1035F000490609D4C168C943490605D46FF04001A2
:103600000161204600F01EF820680169C94389065F
:103610000BD4C168C943890607D46FF0200101614A
:103620002046BDE87040FFF7D8BD70BD70477047B9
:1036300000680349884201D100F062B97047000078
:1036400000400140704730B590F88010012918D033
:10365000012280F880202421C0F884100022202438
:1036600050F8641B0B680D6823F0005325F001052A
:103670000D60026050F8641C0B6004620277104613
:1036800030BD022030BD70B5044690F8800001289E
:103690001DD0012284F880202420C4F884002068F2
:1036A0000568026822F0010202602068826822F048
:1036B00060620A438260204600F004FF22682021F5
:1036C00000201560C4F8841084F8800070BD0220CA
:1036D00070BD70B5044690F8800001281DD001220D
:1036E00084F880202420C4F88400206805680268DB
:1036F00022F0010202602068826822F060420A43E0
:103700008260204600F0DEFE226820210020156045
:10371000C4F8841084F8800070BD022070BD10B51C
:10372000040003D0D4F8840010B107E0012010BDDC
:10373000002084F88000204600F026F82420C4F8F9
:1037400084002068016821F001010160204600F03A
:103750006FFF0128EBD0A06A10B1204600F0D4FE24
:103760002068416821F4904141602068816821F01F
:103770002A0181602068016841F001010160204652
:10378000BDE8104000F024BF30B5B5B004461421A8
:103790002FA8FCF7BAFEBC216846FCF7B6FE174915
:1037A0002068884228D102256846002400951D948F
:1037B000FDF7F4FF08B1FCF737FF1148016841F449
:1037C00080210160006800F4802034900C480838A3
:1037D000016841F00801016000680721CDE930541B
:1037E00000F008003490CDE932414FF440702F9042
:1037F00004482FA9FCF7B2FF35B030BD00480040A7
:10380000E8440258000C02582DE9F8430446D0F869
:1038100084001F4616460D46202852D1DDB1D6B190
:1038200094F8800001284CD0012084F880002122E7
:103830004FF00008C4F88C80C4F884201834FDF7D9
:10384000AFF8814654F8100CA687E687183CB0F50F
:10385000805F03D004E00120BDE8F883206920B137
:103860002E46002584F8808010E00026FAE78021AB
:10387000204601F0B3F8B8B9C6B116F8010B2168BB
:103880008862B4F85600401EA4F85600B4F85600FA
:103890004B464FF0000200970028E8D14FF040015E
:1038A000204601F09BF838B10320D5E735F8020B2C
:1038B0002168C0F30800E3E72020C4F8840000205A
:1038C000CAE70220C8E7FEE7F0B500230A251C4638
:1038D0003026372711E000BFB5EB107F02D906EB89
:1038E000107C01E007EB107C01F813C001EB430CE6
:1038F00000015B1C8CF80140DBB29342ECD3F0BDBD
:103900000A490888401C82B20948012A0A8007D067
:10391000322A07D0B2F57A7F01D1002008807047A3
:10392000002200E001220821FDF72EB82400002427
:10393000000002582DE9F04F87B014216846FCF7CB
:10394000E4FD5648016841F010010160016801F092
:1039500010010591016841F040010160016801F02A
:1039600040010591016841F008010160016801F022
:1039700008010591016841F001010160016801F051
:1039800001010591016841F002010160016801F047
:1039900002010591016841F004010160016801F034
:1039A00004010591016841F0800101600068002276
:1039B0003B4E4FF4C04100F0800005903046FCF7CC
:1039C000E3FF384F0022C0213846FCF7DDFF01221B
:1039D00030469102FCF7D8FFDFF8CCA04FF4E16845
:1039E000002241465046FCF7CFFFDFF8C09000228E
:1039F000C0214846FCF7C8FFDFF8B4B000228021A0
:103A00005846FCF7C1FF0024694601254FF4C84021
:103A10000090CDE9015430460394FCF79FFEC02688
:103A20000096CDE90154694638460394FCF796FEAA
:103A30004FF48817694640200294CDE900071D48DD
:103A4000FCF78CFECDF800806946CDE90154504664
:103A50000394FCF783FE00966946CDE9015448467D
:103A60000394FCF77BFE00956946CDE9017450464E
:103A7000FCF774FE80200090CDE901546946584659
:103A80000394FCF76BFE002201211720FDF700F8DC
:103A90001720FCF7EFFF07B0BDE8F08FE0440258B5
:103AA000001802580004025800000258000802588A
:103AB00000100258000C02582DE9F04117484FF44D
:103AC0008007DFF854C00021FA000726C0F800C0C4
:103AD0001301C0E90362C0E90171C0E90731416225
:103AE0005510540081625201C162C0E90D21C163C9
:103AF000016441648164C164016541658165C0E917
:103B00000554FEF75DFF002803D0BDE8F041FCF747
:103B10008BBDBDE8F0810000003001408C02002424
:103B20001348002170B5114D4FF480240560072320
:103B3000C360E201C0E90114C0E9042181610162AE
:103B400041628162C16241638163C1630164416416
:103B50008164C164016541658165FEF731FF00281C
:103B600003D0BDE87040FCF75FBD70BD003401407C
:103B70001403002430B587B0184800241649EF22FA
:103B800040F2E73300948025019402940394049456
:103B90000594069480E81600C0E90334C0E90545A1
:103BA000FFF76EFB08B1FCF73FFD4FF4805000902B
:103BB0000A486946FFF7FAFB08B1FCF735FD0748EC
:103BC00004A904940694FFF709FB002801D0FCF730
:103BD0002BFD07B030BD0000004001409C030024D5
:103BE0001848002110B5164C0C224FF461230460D4
:103BF000C0E90131C160C0E904128161C1610162A3
:103C000041628162FFF78BFD08B1FCF70DFD0D48A5
:103C10000021FFF75EFD08B1FCF706FD0948002111
:103C2000FFF731FD08B1FCF7FFFC0648FFF70BFD7D
:103C3000002803D0BDE81040FCF7F6BC10BD000022
:103C400000480040E803002410490022104810B545
:103C500001F012FA08B1FCF7E7FC0E490C4801F03C
:103C6000F2FB08B1FCF7E0FC0B49094801F019F838
:103C700008B1FCF7D9FC064801F060FC08B1FCF77C
:103C8000D3FCBDE81040FDF72BBC00002800002449
:103C9000800800247C010024780000240E480021C4
:103CA0000C4B022210B50924036001234460C0E9D3
:103CB0000321C0E906210162C0E90913C162016361
:103CC0004163FDF793FA002803D0BDE81040FCF7EC
:103CD000ABBC10BD0000044078040024FEE7FEE702
:103CE0000148FDF743B80000701F00242DE9F041A2
:103CF000044600690D462027236801284FF400463A
:103D000004F5717203EB4511D3F840C0D1F8080BEC
:103D100009D0DFF89CE0F4453AD1020433D500BF66
:103D2000C1F8086B40E0234B5FEA007E04D59C4558
:103D30003AD90004F4D437E05FEA806E02D5C1F8C6
:103D4000087B31E010F0280F2ED19C4501D90004EA
:103D5000E6D4D1F8103BC5EBC50004EB8000C3F3FB
:103D60001203D0F80412A1EB0303C0F81432D0F808
:103D700008321944C0F8081295B9D4F8100278B97D
:103D8000206801210AE080060AD5C1F8087B07E017
:103D900035B9D4F8100218B90021184601F0AEFF69
:103DA0002046E9B2FCF7C8FE0020BDE8F081000023
:103DB0000A31544F0A30544F2DE9F84F0E4605682A
:103DC0008146C1EBC60100EB8104D4E914203C34E8
:103DD000904202D90120BDE8F88FA168101A8142F3
:103DE00000D20846C01C05EB461887081BE000BF40
:103DF000A268A0EB010A524500D2924699F8101031
:103E00000AF1030000911FFA8AF3E1688708284647
:103E1000F2B202F041FAE16801EB0A00E060A16948
:103E200001EB0A00A061D8F8180980B2B84205D3A6
:103E3000D4E90501814201D20028D9D1D4E9050194
:103E4000884208D8D5F83418012006F00F029040B7
:103E50008143C5F834180020BDE77047F0B5AFB016
:103E6000BC216846FCF751FB04204FF48273020426
:103E700000920021CDE909030BAB10910602082442
:103E80000225C7042197CDE90E6183E83100684619
:103E9000FDF784FC002801D072B6FEE72FB0F0BD1C
:103EA0002DE9F047454D044689464FF0000A286841
:103EB000C04380070AD0414E283E306820F0806021
:103EC0003060FCF76DFD0746B04608E00120BDE814
:103ED000F08700BFFCF764FDC01B022867D8D8F844
:103EE00000000001F6D4206829684FF4FE0721F491
:103EF0007C313E0241EA00302860207AA389B4F880
:103F000004C040022D4D2D495B1E227CACF1010CFA
:103F10001035091DA0F5007080B2521ECCF3080CBC
:103F200007EA034340EA0C00184306EA0262104322
:103F300028600868626920F0C000104308600A68C1
:103F4000A06922F0200202430A60281D0A6822F0BC
:103F500010020A6002684FF6F873E4699A4342EA75
:103F6000C40202600868B9F1000F40F010020A6054
:103F700011D00868B9F1010F11D040F400100860A9
:103F8000D8F80000444640F08060C8F80000FCF714
:103F900007FD05460DE0086840F40020EFE740F417
:103FA0008010ECE7FCF7FCFC401B022801D9032041
:103FB0008DE720680001F5D5504688E7284402586F
:103FC0002DE9F047454D044689464FF0000A286820
:103FD000C04380070AD0414E283E306820F0805010
:103FE0003060FCF7DDFC0746B04608E00120BDE884
:103FF000F08700BFFCF7D4FCC01B022867D8D8F8B4
:1040000000008000F6D4208829684FF4FE0721F0D4
:104010007C713E0241EA00502860207AA389B4F8FE
:1040200004C040022D4D2D495B1E227CACF1010CD9
:104030001835091DA0F5007080B2521ECCF3080C93
:1040400007EA034340EA0C00184306EA0262104301
:1040500028600868626920F44060104308600A68BC
:10406000A06922F4007202430A60281D0A6822F443
:1040700080720A6002684FF6F873E4699A4342EA74
:10408000C40202600868B9F1000F40F480720A604F
:1040900011D00868B9F1010F11D040F080700860AC
:1040A000D8F80000444640F08050C8F80000FCF703
:1040B00077FC05460DE0086840F48000EFE740F427
:1040C0000000ECE7FCF76CFC401B022801D9032040
:1040D0008DE720688000F5D5504688E728440258CF
:1040E00010B5026840F26F335169946944F00804D6
:1040F00094610268946944F0100494610268146841
:1041000024F001041460026814699C43146102687D
:10411000936823F44043936090F88120042A0CD0E4
:104120008A060AD5D0F8842042F08002C0F88420A4
:104130000268936943F02003936190F88120032A79
:104140000CD04A060AD5D0F8842042F00402C0F808
:1041500084200268936943F0400393618A050AD57D
:10416000D0F8842042F00102C0F8842002689369EC
:1041700043F400739361C9050AD5D0F8841041F067
:104180000801C0F8841001688A6942F480728A616B
:104190000021A0F86210A0F86A1010BD2DE9F041CE
:1041A000984616460D460746069C09E0FCF7F8FBC4
:1041B000A0EB0800A04202D3601C01D00BE054B178
:1041C0003868406935EA000007D00020B042EDD0E1
:1041D0000020BDE8F0810320FBE70120F6E77047EF
:1041E0000178407841EA00207047FCF7DFBB00000F
:1041F000F0B59DB04C216846FCF787F9202113A843
:10420000FCF783F90220FDF741F9244800242449F2
:10421000026842F44042026002680A6842F0010209
:104220000A60096801F001011B9101688904FCD54D
:104230001C4901220B6802207826C50323F00303E2
:104240009B1C0B60CDE900250AAD09900C270421C9
:1042500085E845000DAA12940523CDE9107482E883
:104260000B006846FEF714F908B172B6FEE740206D
:104270001A9008230501CDE9163013ABCDE91805D6
:104280003F21032283E81600042113A8FDF7F0FE66
:10429000002801D072B6FEE71DB0F0BD18480258E4
:1042A0002C040058284402582C48F0B52C4A0168C8
:1042B00041F470010160106800F00F00072804D27B
:1042C000106820F00F00C01D106026490020254C0A
:1042D00010340B68244D43F001030B6020600B6821
:1042E0002B400B60136803F00F03072B04D91368EE
:1042F00023F00F03DB1D13601A4C1C4A18341C4BAF
:10430000261D371D2060174C1A4D28343060261D9D
:104310003860371D23603B1D35601C1D3A60251D2C
:104320002E1D1860331D22602860326018600A68F4
:104330000C4B114C22F4802260330A601860206814
:104340006FF30F00B0F1005F03D20C490120C1F8F8
:10435000080143F2D2000A490860F0BD88ED00E090
:1043600000200052004402587FEDF6EA800201016D
:10437000000202020000FF010010005C00800051FA
:10438000004000520148FFF790B800009C03002451
:104390002DE9F047274B4FF0804A274D026898429D
:1043A000264E274F274C09D0504507D0A84205D0AC
:1043B000B04203D0B84201D0A04205D1D1F804C028
:1043C00022F070024CEA0202DFF87CC0DFF87C8049
:1043D0009842DFF87C900FD050450DD0A8420BD00A
:1043E000B04209D0B84207D0A04205D0604503D002
:1043F000404501D0484503D1CD6822F440722A439C
:104400004D6922F080022A43026098428A68C262A3
:104410000A68826207D0A04205D0604503D04045BB
:1044200001D0484501D10969016301214161BDE81D
:10443000F087000000000140000400400008004038
:10444000000C0040000401400040014000440140D5
:104450000048014042EA032283680A4323F47F4173
:104460000A43826070470000034B82681A400A4387
:1044700042F00701816070478FFFCFFF10B5036ADC
:10448000046A23F00A0324F00104046284690B43E4
:1044900024F0F00141EA02118161036210BD10B500
:1044A000036A23F0100303628369046A23F47043F0
:1044B00024F0A00443EA0232826144EA011101625D
:1044C00010BD000030B5416EB9B101680D4B03F16C
:1044D00008048A688968C2F34262490F5D5C615CC6
:1044E0002D01B5FBF1F1A0F86A10995CA25C0901FD
:1044F000B1FBF2F1A0F8681030BD0121A0F86A10FC
:10450000F8E70000E264000890F82810C90706D018
:104510000168C36A4A6822F400321A434A6090F87C
:104520002810890706D50168036B4A6822F4803297
:104530001A434A6090F82810490706D50168436B72
:104540004A6822F480221A434A6090F8281009072A
:1045500006D50168836B4A6822F400421A434A6018
:1045600090F82810C90606D50168C36B8A6822F442
:1045700080521A438A6090F82810890606D501688F
:10458000036C8A6822F400521A438A6090F828105B
:10459000490611D50168436C4A6822F480121A4317
:1045A0004A60416CB1F5801F06D10168836C4A688E
:1045B00022F4C0021A434A6090F82810090606D572
:1045C0000168C26C486820F40020104348607047BE
:1045D000F8B500260446C0F88C60FCF7E1F9054602
:1045E00020686FF07E470068000708D500222B4640
:1045F0004FF400112046009700F0F0F960B92068F0
:10460000006840070AD500222B464FF4800120465F
:10461000009700F0E3F908B10320F8BD2020C4F8AA
:104620008400C4F88800E666002084F88060F8BD45
:104630002DE9F04304468068D84E87B0D84B2168F6
:10464000D4E90427D4F81CC010430A68002547EABF
:104650000C073843324002430A602068E268416830
:1046600021F44051114341602268A1699A4201D06E
:10467000206A01439768DFF82CC3CB4ECB4807EA8A
:104680000C070F4397602168676ACA6A22F00F021D
:104690003A43CA622268B2420ED1006800F0380084
:1046A000182873D047DCB8B3082879D010286FD108
:1046B00078E028287ED17BE0BD498A4209D1006894
:1046C00000F00700062875D2DFE800F0546A6C6E2F
:1046D0007072B8498A4209D1006800F007000628C4
:1046E00068D2DFE800F0475D5F616365B2498A42E6
:1046F00009D1006800F0070006285BD2DFE800F06F
:104700003A5052545658AD498A420BD1006800F0D5
:10471000070006284ED200E010E0DFE800F02B4151
:1047200043454749A6498A420AD1006800F038004B
:10473000182839D0B7DD2028BBD13CE001203AE071
:10474000A0498A4209D1006800F00700062831D24A
:10475000DFE800F01026282A2C2E9B498A420BD134
:10476000006800F00700062824D2DFE800F00319F3
:104770001B1D1F2100201EE09A421BD18B48001DEB
:10478000006800F00700062814D202E00CE007E001
:1047900010E0DFE800F0030507090B0D02200AE036
:1047A000042008E0082006E0102004E0202002E0B9
:1047B000402000E080208549DFF814829A42854A33
:1047C0004FF400434FEA21174FF000064ED1102856
:1047D0001AD006DC022809D004280BD008287CD186
:1047E0000DE020283ED0402877D13DE0FCF780FE48
:1047F000014610E06846FCF78DFE01990BE003A826
:10480000FCF72AFF049906E01068800605D51068B9
:10481000C0F3C100C140002970D0606A676838F8F1
:10482000102007EB4703B1FBF2F0834255D8B0EB01
:10483000073F52D8002308461946FBF7BDFD024644
:104840007808130E120243EA012110183A4671410A
:104850000023FBF7B1FD604AA0F5407191423CD8BE
:1048600021688FE03946D8E71946D6E7D4F81CC04E
:104870004FF6EF799C4546D1082819D005DC58B190
:1048800001280CD0042875D10DE0102815D020285F
:1048900035D040286ED134E0FDF73AFD01E0FDF758
:1048A00049FD014610E06846FCF734FE01990BE033
:1048B00003A8FCF7D1FE049906E01068800604D531
:1048C0001068C0F3C100C140C1B1636A606838F8C4
:1048D0001330B1FBF3F1490000E04BE001EB500174
:1048E000B1FBF0F0A0F11001494543D84FF6F07349
:1048F0002168C0F342021840104343E043E03946C8
:10490000E3E71946E1E7082819D005DC58B101288A
:104910000CD004282ED10DE0102815D020282BD043
:10492000402827D12AE0FDF7F3FC01E0FDF702FD66
:10493000014610E06846FCF7EDFD01990BE003A885
:10494000FCF78AFE049906E01068800604D510681A
:10495000C0F3C100C140B1B1636A606838F8133078
:10496000B1FBF3F101EB5001B1FBF0F0A0F110014C
:10497000494505D9012506E03946EDE71946EBE73B
:10498000216880B2C8600120A4F86A00A4F8680019
:1049900028462667666707B0BDE8F083F369FFCF56
:1049A000000C0058FFF4FF1100100140544402585D
:1049B0000044004000480040004C004000500040CF
:1049C0000014014000780040007C00400090D003BB
:1049D000CA64000800440258FFFC0F002DE9F047AC
:1049E0009A4617460E460446089D4FF000094FF0C0
:1049F00020084CE0681C4AD0FBF7D2FFA0EB0A006D
:104A0000A8422AD84DB32068016849073FD5C0693C
:104A1000C04300053BD421684FF400600862216860
:104A200051E8000F20F4D07041E80002002AF6D1CE
:104A30002068083050E8001F21F0010140E8001212
:104A4000002AF5D1C4F8848084F88090C4F8888066
:104A5000C4F88C800320BDE8F087206850E8001F70
:104A600021F4D07140E80012002AF6D12068083005
:104A700050E8001F21F0010140E80012002AF5D1A2
:104A8000C4F8848084F88090C4F88880E2E72068C5
:104A9000C06936EA000004D00020B842AAD0002045
:104AA000D9E70120F9E72DE9F041D0F8C4220C46FE
:104AB000D0F8BC12F9B104EB8403002600EB8305A7
:104AC000AB694BB1C4EBC40702EB8702526CB3FB7A
:104AD000F2F702FB173282B1C1F81462D0F8C002BB
:104AE00003692BB1D1F8080201F5047122469847F9
:104AF0000020BDE8F0810320FBE7002321461A4691
:104B0000AE6100F082FCF3E770B5D0F8BC42054618
:104B10006CB100F06FFBC4F80C0204F50371D5F81A
:104B2000C002C268D4F804029047002070BD032080
:104B300070BD70B58121044600F0BAFA0025204608
:104B40000121258700F0B4FA82212046A4F878518B
:104B500000F0AEFAD4F8BC02A4F84C50A4F84E50C1
:104B600048B1D4F8C00204F52F744068804720682B
:104B700000F03BFE2560002070BD10B5D0F8BC42AF
:104B800084B1D0F8C01259B194F80002FF2807D0C0
:104B90008B68214694F801229847FF2084F8000290
:104BA000002010BD032010BD0A210180004870477D
:104BB000A40000244321018000487047F400002431
:104BC0004321018000487047B00000244321018048
:104BD00000487047380100242DE9F04704464FF49F
:104BE000077000F003FE05004FF0000735D0207C71
:104BF00001264FF400794FF01008C4F8BC5280B37E
:104C0000402320460222812100F04CFB40232687CE
:104C100002222046012100F045FBA4F87861082318
:104C2000032220468221A4F84E8000F03BFBA4F82A
:104C30004C60D4F8C00200688047C5F81472C5F80B
:104C40001872207CD5F80422A8B140232046012107
:104C500000F034FB0020BDE8F0870220C4F8BC72ED
:104C6000F9E7FFE702224B468121204600F01AFBBC
:104C70004B462687CCE74B46E8E710B5D0F8BC1288
:104C800051B1027C002AD1F8042207D0402301212F
:104C900000F014FB002010BD032010BD4FF4007382
:104CA000F5E719B1C0F8C012002070470320704723
:104CB000D0F8BC0218B1C0F80412002070470320DD
:104CC0007047D0F8BC0228B1C0F81022C0F8081212
:104CD00000207047032070472DE9FC4106460C4632
:104CE00000200546D6F8BC728DF80000ADF804002F
:104CF00037B1207810F0600129D0202945D102E099
:104D00000320BDE8FC81E288CAB100060BD5D6F8C5
:104D1000C0023946836860789847E288072A00D93C
:104D20000722394629E06078394687F80002A079E1
:104D300087F801023046E28800F051F82AE0D6F800
:104D4000C0020022214683686078984722E060789C
:104D500030B101281ED00A2809D00B2815D110E047
:104D600096F89C02032810D1022201A905E096F8CA
:104D70009C02032809D101226946304600F049F817
:104D800008E096F89C02032804D02146304600F043
:104D90001BF803252846B4E710B5D0F8B8220AB1AD
:104DA00052689047002010BD13460A46002110B5F6
:104DB00000F084FA002010BD13460A46002110B509
:104DC00000F023FB002010BD10B58021044600F048
:104DD00001FB2046BDE81040002100F0FBBA10B5F1
:104DE000C0F858210323C0F89432C0F85C21134660
:104DF0000A46002100F062FA002010BD10B505211E
:104E0000C0F8941200231A46194600F057FA002001
:104E100010BD10B582610223C0F89432C2611346FE
:104E20000A46002100F0F1FA002010BD10B504215F
:104E3000C0F8941200231A46194600F0E6FA002042
:104E400010BD000004A00A46024910B500F0E3F8C6
:104E5000004810BD500B002443444320436F6E664E
:104E6000696700001220088000487047480000244D
:104E700004A00A46024910B500F0CDF8004810BD64
:104E8000500B002443444320496E7465726661638D
:104E9000650000000420088000487047440000249A
:104EA00004A00A46024910B500F0B5F8004810BD4C
:104EB000500B002453544D6963726F656C656374C5
:104EC000726F6E696373000004A00A46024910B550
:104ED00000F0A1F8004810BD500B002453544D338E
:104EE00032205669727475616C20436F6D506F7219
:104EF0007400000010B51A2008800B480A490830D9
:104F0000021F096800681468081809D007490822B8
:104F1000FEF7DAFC0549042220461031FEF7D4FCE6
:104F20000248801E10BD000000E8F11F5E00002452
:104F3000F8B504460D460020ADF800004888010A87
:104F400008295FD2DFE801F05E0409175E5E3C4588
:104F5000D4F8B412207C0A6819E0207C02260028CC
:104F6000D4F8B80205D0C16A684688470146467041
:104F700039E0816AF8E7C0B2062843D2DFE800F0E2
:104F8000030A1014181CD4F8B402426805E06946FC
:104F900090471CE0D4F8B402826892B3207CF6E714
:104FA000D4F8B402C268F8E7D4F8B4020269F4E7AE
:104FB000D4F8B4024269F0E7D4F8B4028269ECE7AD
:104FC000207CF0B9D4F8B802416B684688470146A6
:104FD00009E0207CA8B9D4F8B802016B684688477C
:104FE000014607204870EA888AB1BDF8000040B148
:104FF000824200D902462046ADF80020FFF709FFA3
:10500000F8BDFFE729462046FFF7DEFEF8E7204619
:10501000FFF70CFFF4E770B500284FF000051ED035
:1050200004462E4602E0761C641CF6B22378002B60
:10503000F9D1022404EB4604148012786B1C032679
:105040004A550024AA1CCE5406E0551C8B54EAB2E3
:10505000531C401C8C54DAB20378002BF5D170BD80
:1050600001004FF0000004D0012901D0022901D035
:10507000032070470120704778B10023C0F8B83290
:10508000C0F8C032C0F8CC3209B1C0F8B412012166
:10509000027080F89C1200F0B1B80320704710B580
:1050A000D0F8C402FBF77CFDBDE81040FFF7D8BF85
:1050B00010B5D0F8C402FBF74DFDBDE81040FFF776
:1050C000CFBF70B51646044621B194F89C02032860
:1050D00041D048E0D4F89412002504F114000229CC
:1050E00032D1D0E90232934206D99A1A314682600F
:1050F0002046FFF761FE0FE09A4214D140689042CB
:1051000011D3D4F8981288420DD2002220461146BD
:10511000FFF752FEC4F8985200231A46194620465B
:1051200000F0CCF810E094F89C02032805D1D4F8E4
:10513000B802C16809B1204688478021204600F0A6
:1051400049F92046FFF75AFE94F8A00201280AD137
:1051500084F8A05207E0D4F8B80242691AB1204698
:105160009047002800D1002070BD10B513460446BA
:1051700021B194F89C02032823D02AE0D4F8941299
:1051800004F5AA70032924D1D0E9021291420AD968
:105190008A1A8260C068824200D3024619462046BD
:1051A000FFF702FE15E094F89C02032805D1D4F81D
:1051B000B802016909B1204688472046FFF736FE4C
:1051C00007E0D4F8B80282691AB120469047002857
:1051D00000D1002010BD0020704710B5D0F8B812E3
:1051E000012280F89C2219B103794A68D9B290470C
:1051F000002010BDD0F8C402FBF700BD70B50178E7
:10520000C9B90E49002202230D4C0925C1F8040436
:10521000C0F8C4120846C1E90332C1E906320A6285
:105220004A628A62CA620A63C1E90045FBF7DEFF8F
:1052300008B1FBF7F9F9002070BD0000701F0024D1
:1052400000000840D0F8C42201F07F000B06C0EB3C
:10525000C00002EB800002D590F83E00704790F845
:10526000FE01704710B5D0F8B82222B190F89C32F8
:10527000032B02D004E0032010BD126A02B1904754
:10528000002010BD10B5D0F8B82222B190F89C32A1
:10529000032B02D004E0032010BD526A02B19047F4
:1052A000002010BD10B51C46D0F8C402134622469B
:1052B000FBF7ADFCBDE81040FFF7D2BE10B5D0F84B
:1052C000C402FBF7D4FCBDE81040FFF7C9BE70B5BF
:1052D000044601250020D4F8B81284F89C52C4F882
:1052E00094026060C4F8A402E1B1D4F8BC0220B119
:1052F0004A6812B1002120469047002220464023F0
:105300001146FFF7CFFF4026A4F864510022334630
:1053100080212046C4F86061FFF7C4FFA584002007
:10532000266270BD032070BD90F89C12042903D141
:1053300090F89D1280F89C120020704710B5D0F8AC
:10534000B81221B190F89C22032A02D004E0032075
:1053500010BDC96901B18847002010BD017400204B
:10536000704710B5D0F8C402FCF73CF8BDE8104017
:10537000FFF776BE70B5044600F2AA20054600F09D
:105380004DF894F8AA020123B4F8B01210F01F02ED
:10539000C4F89432C4F898120AD0012A0ED0022A16
:1053A00012D000F080012046BDE8704000F012B835
:1053B00029462046BDE8704000F0C2B82946204684
:1053C000BDE8704000F0E7B929462046BDE87040CE
:1053D00000F041B910B5D0F8C402FBF76AFCBDE893
:1053E0001040FFF73DBE10B5D0F8C402FCF715F829
:1053F000BDE81040FFF734BE90F89C22042180F8ED
:105400009D2280F89C120020704710B5D0F8C4028D
:10541000FBF789FCBDE81040FFF722BE70B50546DA
:1054200008788C1C2870487868702046FEF7D8FEF3
:10543000A41C68802046FEF7D3FEA880A01CFEF7BF
:10544000CFFEE88070BD38B504460020ADF80000FE
:1054500049B1C4F8B812C96A19B168468847C4F896
:10546000CC02002038BD032038BDD0F8B832024647
:105470000320002B02D01B6810461847704700001D
:105480002DE9F0412C4E0446887800250F46C1B224
:105490000129317006D939462046FFF795FC0320D3
:1054A000BDE8F08194F89C0202280CD003281DD09E
:1054B00039462046FFF788FC31782046FFF76CFC20
:1054C00003252846ECE799B320466160FFF7CDFF3E
:1054D000050004D039462046FFF776FCF1E7204668
:1054E000FFF7A4FC032084F89C02EAE74FF00208CF
:1054F000C1B1606888421BD0C1B22046FFF74CFCA6
:10550000317820466160FFF7B0FF050010D03946C2
:105510002046FFF759FC21792046FFF73DFC84F82F
:105520009C82CEE7616084F89C822046FFF734FCC1
:105530002046FFF77BFCC4E7A0000024FFF753BF21
:105540002DE9F0410A784FF0000512F0600208D012
:10555000202A01D0402A71D1D0F8B8229268904711
:1055600031E04B78002201260A2B67D2DFE803F0F6
:10557000415E6658660805662D29FFF7D9FC5FE095
:1055800004468888D8B9C888C8B94888802816D2FF
:1055900094F89C2200F07F07032A10D03946204659
:1055A00084F89E72FFF7DDFE2046FFF73FFC1FB137
:1055B000022084F89C0243E084F89C6240E020468C
:1055C0003CE0FFF75DFF05463AE0CB88012B35D183
:1055D00090F89C32012B04D0022B02D0032B2DD14A
:1055E00004E000F108018260012216E00122011DA1
:1055F00013E090F89C22012A03D0022A01D0032A4A
:105600001CD1CA88022A19D1D0F8A412C66009B1E7
:105610000321C160022200F10C01FFF7FAFB0FE049
:10562000498801290CD1C0F8A46211E090F89C329D
:10563000012B08D0022B06D0032B04D0FFF7C4FBAC
:105640002846BDE8F08149880129F9D1C0F8A42293
:10565000FFF7ECFBF4E72DE9F0410446087800265B
:105660000D46097910F060000BD0202801D04028A9
:105670006DD1D4F8B8022946826820469047064684
:1056800086E06878A8B3012822D003287CD194F85A
:105690009C02022802D0032876D10BE0002973D0A7
:1056A000802971D02046FFF795FE80212046FFF724
:1056B00091FE6DE0688838B931B1802904D0E8885E
:1056C00010B92046FFF786FE2046FFF7AFFB5FE0EC
:1056D00094F89C020228E1D0032855D16888A8BB21
:1056E000480602D02046FFF7DAFC2046FFF79EFB73
:1056F000BFE7FFE794F89C020027022802D00328A6
:1057000042D111E009B180293ED1080601F07F00A5
:1057100000EB800004EB800101D5143101E001F5BC
:10572000AA7102220F602BE0080601F00F0000EBC7
:10573000800004EB80000BD5808C40B101F07F002D
:1057400000EB800004EB800514350CE020E01BE04A
:10575000B0F86401C0B101F07F0000EB800004EB01
:10576000800505F5AA7541B1802906D02046FFF7CE
:1057700069FD10B10120286000E02F600222294657
:105780002046FFF746FB03E029462046FFF71CFBB7
:105790003046BDE8F08170B5064608780D464FF0FA
:1057A000000410F0600003D0202801D0402817D159
:1057B00096F89C02012803D0022801D003280FD1BB
:1057C000287901280CD8D6F8B8028268304690476C
:1057D0000446E888204306D13046FFF727FB02E065
:1057E0003046FFF7F1FA204670BD70470048704719
:1057F000501D002470B54D7801230A78012D1C4CF2
:1058000002F00F0503FA05F3D0F81C5817D000EB8F
:10581000421245EA0343C0F81C38D2F8000B0004DA
:105820000BD40B89C978D2F8000BC3F30A031843D1
:1058300044EA81410843C2F8000B002070BD9EB2CB
:105840003543C0F81C5800EB4213D3F8000900049C
:10585000F3D40D89C978D3F80009C5F30A05890482
:10586000284341EA825108432043C3F80009E4E792
:1058700000800010D0F800196FF30A01C0F8001979
:10588000D0F8041841F48071C0F804180020704763
:1058900070B5044606990A9E049D01290D981DD0F5
:1058A000E06840F04000E060204600F035F8A16B71
:1058B0005EB321F48031A163012D0ED1E16D144A54
:1058C00089B2E165E16D1143E165A16841F006012E
:1058D000A160A16841F02001A16070BDA26B012808
:1058E0000C4922F48030A063E06800EA0100E06027
:1058F000E06820F44010E06003D1E06840F48010DC
:10590000E060204600F008F8D6E741F48031D2E7A5
:105910000000EE03BFFFBDFF08B50E490022009254
:10592000009B5B1C00938B420CD80369002BF7DAB9
:105930000092026942F001020261009A521C009238
:105940008A4201D9032008BD0269D207F5D100209F
:1059500008BD0000400D030070B50A7801234C78A3
:10596000012C00EB42122CD0D2F8004B002C0BDAA9
:10597000D2F8004B44F00064C2F8004BD2F8004B60
:1059800044F08044C2F8004B0C78D0F83C5804F046
:105990000F0403FA04F425EA0444C0F83C480978EB
:1059A000D0F81C4801F00F018B401C4924EA034346
:1059B000C0F81C38D2F8000B0840C2F8000B0020D9
:1059C00070BDD2F80049002C0BDAD2F8004944F03F
:1059D0000064C2F80049D2F8004944F08044C2F89B
:1059E00000490D78D0F83C4805F00F050C4E03FA3D
:1059F00005F5ADB2AC43C0F83C48D0F81C48097876
:105A000001F00F018B4099B28C43C0F81C48D2F8CA
:105A100000093040C2F80009D1E700000078F3EF38
:105A2000007833ECD0F8001E21F00301C0F8001E0E
:105A3000D0F8041821F00201C0F8041800207047C3
:105A4000D0F8001E21F00301C0F8001ED0F80418A1
:105A500041F00201C0F80418002070472DE9F04F12
:105A60000E4604460021DDF824B00D46109F08467E
:105A7000DDF82C2004EB800CCCF80411401C0F281E
:105A8000F8D32046AFB1806B40F4001CC4F838C096
:105A900088460846C4F8000ED4F80008012A2146BA
:105AA000C4F800081BD00846D1F8001841F00301E3
:105AB0001BE0D0F8040840F0020CC4F804C8A06B46
:105AC00020F4001CC4F838C0206840F0400CC4F832
:105AD00000C0206840F0800CC4F800C0D8E7084639
